S0130000325F736964655F746573742E73726563BC
S1130000008000208112000069120000A506000093
S113001000000000000000000000000000000000DC
S11300200000000000000000000000006912000051
S1130030000000000000000069120000E11200004E
S113004069120000691200006912000069120000C0
S11300506912000069120000C10600006D12000060
S113006069120000FD3F00006912000069120000DF
S113007069120000691200000D40000069120000BE
S11300806912000069120000691200006912000080
S113009000000000691200006912000069120000EB
S11300A06912000069120000691200006912000060
S11300B00000000010B5064C2378002B07D1054B37
S11300C0002B02D0044800E000BF0123237010BDC0
S11300D020010020000000003C870000084B10B500
S11300E0002B03D00749084800E000BF0748036815
S11300F0002B00D110BD064B002BFBD09847F9E72D
S113010000000000240100203C87000018010020AA
S11301100000000040697047002070474268C168D1
S113012013680B43136070474268C16813688B43BC
S113013013607047334B3448196802680B6830B554
S113014093430B60314B324A1B6815681C682C437F
S11301501C6015681C68AC431C6005680C68AC43E3
S11301600C6015681C682C431C6015681C68AC4343
S11301701C6005680C68AC430C6015681C682C4353
S11301801C6015681C68AC431C6005680C68AC43B3
S11301900C6015681C682C431C6015681C68AC4313
S11301A01C6005680C68AC430C6015681C682C4323
S11301B01C6015681C68AC431C6005680C68AC4383
S11301C00C6015681C682C431C6015681C68AC43E3
S11301D01C6005680C68AC430C6015681C682C43F3
S11301E01C6015681C68AC431C6004680868A04364
S11301F00860106819680143196011681A688A4315
S11302001A6030BD50010020540100204401002038
S11302104801002070B50126942332001D4C0500CE
S1130220E35806209A401C4B1A609023E3561B4A5D
S1130230DB0199181A4A11601A4A012194461A4A94
S11302406344136003F040F8DC23E358134A9E40F0
S1130250164B09201E60D823E356DB019918144A73
S11302601160104A01219446124A6344136003F05A
S11302702BF8A869002809D003680F4A5B689342E9
S113028005D14268C16813688B43136070BD9847F9
S1130290FCE7C0464C80000054010020104400419B
S11302A050010020204400414C010020480100205E
S11302B0440100204001002029010000F0B506009F
S11302C000208BB001AD376828706870A8703C6856
S11302D0494A02AB18705870987094424FD1B27C5E
S11302E003AC03956160A160A074E0742075012AD9
S11302F00ED060742074E073A073607320730023C5
S113030021006375A3613000BB6998470BB0F0BD51
S11303103A4907300B78013303400B701A4233D14A
S113032040210022980700D50A000421194202D076
S113033020231A43D2B2A17C1032D5B2002926D18F
S1130340E1732173E17C002937D121746173217D2C
S1130350002948D08020400005F036FDC0B2431C7F
S1130360DBB25A1C55432D126374EAB2002D00D03F
S1130370013AA273002B00D060743768BFE70A000B
S113038030002900A047C1E7C0218022CAE78020AD
S1130390400005F019FDC0B2421CD2B2531C6B439D
S11303A01B12E273D9B2002B21D001392173002A28
S11303B0C8D0E17CE0730029C7D08020400005F05C
S11303C003FDC0B2421CD2B2531C6B431B122274F5
S11303D0D9B2002B0DD001396173002AB7D0217D29
S11303E020740029B6D16174A173376887E721733B
S11303F0DDE76173F1E7C046210500003C01002000
S113040070B588B001AC6260A2601A780191A274E0
S11304105A780500E2749B78807C2375012811D0FA
S1130420002363742374E373A37363732373032339
S113043063750023A3612B6821009B6928009847FA
S113044008B070BD0721354A137801330B4013708F
S113045018422DD100223931980700D50A00042111
S1130460194202D020231A43D2B2A17C1032D6B250
S1130470002920D1E1732173E17C002931D1217459
S11304806173217D002942D08020400005F09CFC4E
S1130490C0B2431CDBB25A1C564336126374F2B228
S11304A0002E00D0013AA273002BC0D06074BEE7C6
S11304B0C0218022D0E78020400005F085FCC0B236
S11304C0421CD2B2531C73431B12E273D9B2002BE9
S11304D020D001392173002ACED0E17CE0730029B9
S11304E0CDD08020400005F06FFCC0B2421CD2B2D7
S11304F0531C73431B122274D9B2002B0CD0013944
S11305006173002ABDD0217D20740029BCD161749F
S1130510A1738CE72173DEE76173F2E73C010020ED
S113052070B588B001AC6260A2601A780191A274BF
S11305305A780500E2749B78807C2375012810D0DA
S1130540002363742374E373A3736373237300231B
S11305506375A3612B6821009B692800984708B044
S113056070BD0721354A137801330B4013701842CC
S11305702DD100223931980700D50A0004211942EF
S113058002D020231A43D2B2A17C1032D6B2002961
S113059020D1E1732173E17C002931D1217461738D
S11305A0217D002942D08020400005F00DFCC0B21E
S11305B0431CDBB25A1C564336126374F2B2002E4B
S11305C000D0013AA273002BC1D06074BFE7C021F0
S11305D08022D0E78020400005F0F6FBC0B2421C28
S11305E0D2B2531C73431B12E273D9B2002B20D036
S11305F001392173002ACED0E17CE0730029CDD0EB
S11306008020400005F0E0FBC0B2421CD2B2531C73
S113061073431B122274D9B2002B0CD001396173BD
S1130620002ABDD0217D20740029BCD16174A1733E
S11306308DE72173DEE76173F2E7C0463C010020D9
S113064003688EB000934368019383680293C36880
S11306500393036904934369059383690693C36908
S113066007930A4B1B680893094B1B680993094BB2
S11306701B680A93084B1B680B93084B1B680D936C
S1130680074B1B680C9300BE0EB0704728ED00E0CA
S11306902CED00E030ED00E03CED00E034ED00E056
S11306A038ED00E004207146084202D0EFF30980DF
S11306B001E0EFF308804169C2E700BE7047C0461D
S11306C010B572B60F210E4B1A8C0A4030315A54B1
S11306D04E229B5C0B4ADBB213601368012B09D0DA
S11306E04E230221064AD1540139D1540331D15445
S11306F062B610BD0449054800F0A0FEF0E7C0460C
S11307000048004110030020147F0000F005002081
S113071010B50124524982B00B68524823401DD1C0
S1130720514A43600260FF22436183604F4B02736E
S113073042738273C273027442741A688474002A06
S113074000D18AE04A4B1A68002A00D090601860F1
S1130750484B03600023836101330B60464C002344
S11307603C22210003F064FAB022FF23427340329A
S113077082734249424A0373D160424913709160C3
S11307800022694668464B700A708A7001A903F01A
S113079013FB01AA3C21200003F03AFA96213A48BF
S11307A0890101F08BF90A2002F0BEFC0E2002F050
S11307B007FD022235490B7893430B704B7E334A75
S11307C0DB09FBD1F021136909050B430F211361E8
S11307D053788B4302210B435370537E2B49DB091F
S11307E0FBD11F2061332A4AFF33D25C0B690240DC
S11307F0834313430B614B7E244ADB09FBD1937083
S1130800D370537E2149DB09FBD1224B8B804B7E75
S11308101E4ADB09FBD1022311780B431370537E6C
S1130820DB09FCD120221C4B01A859690A435A61F7
S11308301022D9690A43DA614022184B1A60184B16
S1130840184A5A63184A9A63184A1A8002F00CFE2E
S113085001A802F00BFE02B010BD186072E7C0469A
S1130860580100205C010020D87E0000E00B00202D
S1130870F00B0020F87E000034050020053F000046
S1130880D00B002010270000F0050020004000429B
S11308904C800000240600000004004000E100E059
S11308A0004800418001002050020020020F000097
S11308B0F0B55F4656464D464446F0B4914C924ED0
S11308C0A54400F021FD914B9149070018009A4678
S11308D000F0A4FD3F239B46002398465B46424616
S11308E04024F2540222335D8A4D9343013A335536
S11308F032553369884893433361884B06327364B5
S11309004D23F25443462B60854B42469946DA60A8
S11309104A46844B4946536080235B0053804B46D0
S1130920814A9A604A46814B1380102207F0EEF9FF
S113093042465B46F254325D3D3B134333557C4B98
S1130940984605E000F0E0FCC01B404500D9A7E054
S11309502C68002CF6D000F0D7FC7649C71B504613
S113096000F05CFD39000A22504600F081FD0120B0
S113097000F000FD8022812604AF3D001201002119
S113098004A807F0CCF936016B4C6E44208807F0BC
S1130990D7F86A4A6A4B06F0AFFA684A694B06F020
S11309A025FD03C50234AE42F0D18022002112019C
S11309B0300007F0B4F901258022634C0123520072
S11309C004A92000009502F019FF802332005B0087
S11309D004A92000009502F0C7FE802332005B00CA
S11309E004A9200002F0D6FE0022584B04A900926C
S11309F0019380222000520003F06EF80B000221C4
S1130A0002000091504600F08FFE5046504900F01D
S1130A1015FD504B03AE98465A2343449B464E4B18
S1130A209946FF239A464346B8461F004146002292
S1130A3008684968494B05F03BFE0022484B06F024
S1130A405BFA474B002204000D0005F0D3FAFF23A4
S1130A50002804D12000290005F0E0FAC3B24A4678
S1130A6012783900327052463000B370727003F05D
S1130A70A3F908239C460337E044BB45D6D1394843
S1130A80017803F001F94B464A461B780133137091
S1130A90354B9D443CBC90469946A246AB46F0BDBE
S1130AA03F23F45401339B460222F35C49469343AB
S1130AB05A46B3545B463F3AF2543369164893435B
S1130AC03361164B063273644D23F2544B464A4647
S1130AD0DC60144B2C60536080235B0053804B46D6
S1130AE0114A9A604A46114B1380102207F00EF9FE
S1130AF03F23F4545B46F25C3E3B13435A46B354E3
S1130B0026E7C046ECEFFFFF00480041F005002057
S1130B101C7F0000100300208001002000278000BB
S1130B20200300201A40004234050020010900007F
S1130B30801A0600287F000034030020666666667B
S1130B4066666A3F6666FA3F400200208084CE40B3
S1130B50347F0000340500203003002000002440CE
S1130B6000E06F40D00B00201410000070B5494C19
S1130B7043B22268002B00DA87E0474B19680B6800
S1130B8093430B60454B464A1B6816681D68354302
S1130B901D6016681D68B5431D60266845065FD54F
S1130BA00D6835430D6016681D6835431D60166871
S1130BB01D68B5431D602668850660D50D683543FC
S1130BC00D6016681D6835431D6016681D68B543C1
S1130BD01D602668C5064FD50D6835430D6016683F
S1130BE01D6835431D6016681D68B5431D60266881
S1130BF005073ED50D6835430D6016681D683543FD
S1130C001D6016681D68B5431D60266845072DD50F
S1130C100D6835430D6016681D6835431D60166800
S1130C201D68B5431D60266885071CD50D683543CE
S1130C300D6016681D6835431D6016681D68B54350
S1130C401D602468C0071DD40868A04308601068AC
S1130C5019680143196011681A688A431A6070BDE3
S1130C600D68B5439EE70D68B543E1E70D68B543EC
S1130C70D0E70D68B543BFE70D68B543AEE70D682F
S1130C80B5439DE708682043E0E7034B19680B6808
S1130C90134376E754010020500100204401002052
S1130CA048010020F0B556464D465F464446F0B430
S1130CB08146806983B00E0000280AD003687F4A09
S1130CC01B68934200D0A7E24268C16813680B43D3
S1130CD01360FFF72FFAFFF72DFAFFF72BFAFFF750
S1130CE029FAB368002B00DC98E2754A336893460E
S1130CF0744A754D9046754C9A780023002A04D0A6
S1130D00B37B9B18FF2B00DDFF23307D2968013066
S1130D10434318125B461A68C0B213680B4313604E
S1130D2023689C46434667461B6819683943196023
S1130D3021688C4667461968B943196029688C464E
S1130D40674611683943116021688C466746196803
S1130D503943196021688C4667461968B94319609C
S1130D6029688C46674611683943116021688C46AE
S1130D70674619683943196021688C4667461968C3
S1130D80B943196029688C46674611683943116074
S1130D9021688C46674619683943196021688C4676
S1130DA067461968B943196029688C466746116813
S1130DB03943116021688C466746196839431960C4
S1130DC021688C4667461968B943196029688C46BE
S1130DD0674611683943116021688C466746196873
S1130DE03943196021688C4667461968B94319600C
S1130DF029688C46674611683943116021688C461E
S1130E00674619683943196021688C466746196832
S1130E10B943196029688C466746116839431160E3
S1130E2021681A680A431A6021681A688A431A609A
S1130E30FFF79CFE316800224B78002B04D0727BB4
S1130E40D218FF2A00DDFF22F37C097801335A43CC
S1130E50FF231B021A4010000023002904D0327B18
S1130E605318FF2B00DDFF23B27C013253431B12C6
S1130E7003439BB29A46180AFFF778FE6A46534624
S1130E80D371D079FFF772FE327BF37B9B1A3373F5
S1130E90727B337C9B1A7373B27B737C9B1AB37320
S1130EA0326815239446F356B2686344013A3360BA
S1130EB0B260002A00DD1FE70AE0C0461D01000001
S1130EC0500100204401002054010020480100206A
S1130ED01F207368DA171040C0185B461A6843462F
S1130EE01B6840112E681168314311602668196827
S1130EF03143196026681968B14319602E68116876
S1130F0031431160266819683143196026681968ED
S1130F10B14319602E68116831431160266819685D
S1130F203143196026681968B14319602E68116845
S1130F3031431160266819683143196026681968BD
S1130F40B14319602E68116831431160266819682D
S1130F503143196026681968B14319602E68116815
S1130F60314311602668196831431960266819688D
S1130F70B14319602E6811683143116026681968FD
S1130F803143196026681968B14319602E681168E5
S1130F90314311602668196831431960266819685D
S1130FA0B14319602E681168B1431160266819684D
S1130FB03143196026681968B14319602E681168B5
S1130FC0B1431160266819683143196026681968AD
S1130FD0B14319602E681168B1431160266819681D
S1130FE03143196026681968B14319602E68116885
S1130FF0B14311602668196831431960266819687D
S1131000B14319602E681168B143116026681968EC
S11310103143196026681968B14319602E68116854
S1131020B14311602668196831431960266819684C
S1131030B14319602E681168B143116026681968BC
S11310403143196026681968B14319602E68116824
S1131050B14311602668196831431960266819681C
S1131060B14319602E681168B1431160266819688C
S11310703143196026681968B14319602E681168F4
S1131080B1431160266819683143196026681968EC
S1131090B14319602E681168B1431160266819685C
S11310A03143196026681968B14319602E681168C4
S11310B0B1431160266819683143196026681968BC
S11310C0B14319602E681168B1431160266819682C
S11310D03143196026681968B14319602E68116894
S11310E0B14311602668196831431960266819688C
S11310F0B14319602E681168B143116026681968FC
S11311003143196026681968B14319602E68116863
S1131110B14311602668196831431960266819685B
S1131120B14319602E681168B143116026681968CB
S11311303143196026681968B14319602E68116833
S1131140B14311602668196831431960266819682B
S1131150B14319602E681168B1431160266819689B
S11311603143196026681968B14319602E68116803
S1131170B1431160266819683143196026681968FB
S1131180B14319602E681168B1431160266819686B
S11311903143196026681968B14319602E681168D3
S11311A0B1431160266819683143196026681968CB
S11311B0B14319602E681168B1431160266819683B
S11311C03143196026681968B14319602E681168A3
S11311D0B14311602668196831431960266819689B
S11311E0B1431960013800D37CE64B469869002866
S11311F009D003680D4A5B6893420BD14268C16809
S113120013688B43136003B03CBC90469946A246D6
S1131210AB46F0BD9847F6E798475AE5044B054DB1
S11312209B46054B054C984652E6C04629010000F2
S113123050010020540100204401002048010020F6
S113124010B5054C200002F00FF9044A04492000AF
S113125003F062FA10BDC0464002002000000020E6
S11312606D340000FEE7C04603BEFEE7034B10B535
S11312701B68002B00D0984710BDC046E80500202D
S113128070B5124B124C9C421BD0124DA54218D083
S11312909C420AD2E243D2189208013292002900F9
S11312A0200006F033FDAC420BD00B480B4B9842A8
S11312B007D2C243D218920801329200002106F0EC
S11312C02EFD00F085FA00F073F8FEE720010020FF
S11312D0000000204087000020010020B40D002001
S11312E010B500F061F8002801D100F051F810BDEC
S11312F0014B18607047C046E8050020014B186890
S11313007047C046EC050020F0B54746154B80B445
S1131310154E164F9C46B86874681D680123640115
S1131320E40F984602E015001C0008004246B96824
S113133073689B0E1340624612689C42F3D1954237
S1131340F1D18842EFD36419FA25084BAD005B68EC
S11313506C43181A064B5843000D001904BC904600
S1131360F0BDC046EC05002000ED00E010E000E018
S11313705555000070B5041E07D0044D2E6800F0CA
S113138011F82B689B1B9C42F9D870BDEC0500201A
S113139010B5034A13680133136000F0DFF910BD80
S11313A0EC0500207047C046002070477047C046D7
S11313B010B501F03BFE06F06FFCFFF7F7FF0120CC
S11313C0FFF7D8FF094C200000F0B0FE200000F029
S11313D061FFFFF79DF9064C002C02D1FFF768FA74
S11313E0FCE7FFF765FA00E000BFF5E7C40A002058
S11313F000000000F8B505000F0016000024002AC4
S113140003D109E00134A64206D02B68395D1B687C
S1131410280098470028F5D12000F8BD70B50500D4
S11314200C1E09D0080006F031FD2B6802005B6831
S113143021002800984770BD0020FCE770B5040027
S11314400D1E11D0080006F021FD236802002900BA
S11314505B68200098470500236802225B68034903
S113146020009847401970BD0025F5E7387F00003B
S1131470F0B54F464646C0B481468BB00C00002AF6
S113148036D02023002001A9C854D3B2012B35D96A
S1131490FF27174009AD2000390004F091FCCBB2BE
S11314A0984620000E00390004F004FC4346040072
S11314B0013D3733092E00D8073B2B70002CEAD1AD
S11314C0280006F0E3FC4B461B6802005B68290019
S11314D04846984704004B461B6802225B6808494B
S11314E04846984700190BB00CBC90469946F0BD8D
S11314F00368C9B21B6898470400ECE70A27C9E7E8
S1131500387F0000F0B54D465F4656464446F0B479
S11315101E008DB016AB81461F78100033003100D9
S1131520150006F0B7FA002800D0E3E001227400A9
S113153064085242734B2800210006F0ABFA0028DD
S113154016D101226F4B52422800210004F048FDBD
S113155000280DD14B461B6803225B686A49484644
S113156098470DB03CBC90469946A246AB46F0BDA8
S1131570E022664B12062800310004F03BFD0028EF
S113158000D0A3E0E022624B12062800310004F0F0
S11315901DFD002800D099E000220023280031001E
S11315A004F014FD002800D098E0002398460020A1
S11315B05849002F08D0002401340022564BE4B2CD
S11315C005F076F8A742F7D102000B00280031009D
S11315D004F042FD0090019104F020FD002220233C
S11315E08346050003A9CA540BAC28000A2104F061
S11315F0E7FB2800CEB20A2104F05CFB013C303644
S1131600051E2670F1D1200006F040FC4B461B68F5
S113161002005B6821004846984743461E18300084
S1131620002F9ED0584606F0CDFA02000B00009819
S1131630019905F0DBFE4B461B6804005B680D0056
S1131640012236494846984733189A46B84600223C
S1131650314B2900200005F04FFC0090019104F06B
S1131660DDFC202200218346050003AB99540BAE18
S113167028000A2104F0A4FB2800CCB20A2104F0BB
S113168019FB013E3034051E3470F1D1300006F0F0
S1131690FDFB4B461B6802005B68310048469847D7
S11316A0D44684445846E24606F08CFA0B00020005
S11316B00098019905F09AFE4346013BDBB2040011
S11316C00D009846002BC2D150464AE74B461B6892
S11316D003225B6812494846984742E74B461B6819
S11316E02D211B684846984780231B069C4680464C
S11316F066445CE74B461B6803225B68094948461D
S113170098472EE7FFFFEF7F487F0000FFFFEF4180
S1131710FFFFEFC10000E03F00002440447F0000D1
S1131720407F00003C7F000030B51D0083B0069B65
S1131730DBB200932B00FFF7E5FE03B030BDC046DB
S1131740014B18607047C046040000200122024B80
S113175052421A607047C04604000020154A10B572
S11317601368591C03D0013B1360002B00D010BD3B
S113177072B6114B114A0433934213D90121104814
S1131780047D0F4A2142FBD02020118BFF309B089F
S11317905B0001431183D3610A4B13800123117D44
S11317A00B42FCD0BFF34F8F074A084BDA60BFF3FC
S11317B04F8FFEE704000020000000000302000039
S11317C00040004102A5FFFF0400FA0500ED00E01F
S11317D01E2210B550494B6893431C3A13434B6087
S11317E008234E4A91690B4393614D4A4D4B9382B2
S11317F00223918A0B4302219382D3681942FCD0BD
S11318000123494A0121137003E053785BB2002B92
S113181002DA13781942F8D1012343498B604B78DB
S1131820414A5BB2002BFADB1100404B53604B780A
S11318303D4A5BB2002BFADB8223DB0153805378F1
S11318405BB2002BFBDB0223102035498B84CA6872
S1131850334B1042FBD0364A1020DA621A00D168AA
S11318602F4B0842FBD010209A8C32490A439A84A9
S1131870DA682B491042FBD00223802040248A8C52
S113188013438B84CB68264A1842FBD0D3681C428E
S1131890F8D01021D3681942FCD0002322498B6070
S11318A04B78214A5BB2002BFADB1100224B5360C8
S11318B04B781D4A5BB2002BFADB194B1F49186A9F
S11318C0014080201962196A8143196203239360DD
S11318D01B4B536053785BB2002BFBDB00220F4B96
S11318E01A725A729A72DA72164B174A1A60174BA6
S11318F01968174B1B68DA0E8B065B0F1802FF235F
S113190049010B401343134A034313858023024ABE
S113191051680B43536010BD004000410004004077
S1131920000800400C060000000C00400105010006
S1131930B805FF7D040A000000070300FFFCFFFF59
S11319400306010084000020006CDC022460800097
S113195020608000004000423F20704710B50069BD
S1131960022100F061FE10BD10B50069032100F0F2
S113197099FD10BD10B5130004000A00006903218D
S113198001F002F8002801D10123636010BDC046B4
S1131990074B0200186810B5411C03D001225242C3
S11319A01A6010BD1069022100F082FEF9E7C046FA
S11319B05800002010B582B004006B46D81D23687F
S11319C00A4A5B68017093420BD102000123032190
S11319D0206900F0D9FF002801D10123636002B01F
S11319E010BD0100012220009847F8E77519000096
S11319F010B50A4C03002068421C00D010BD1A68C0
S1131A000749D2688A4205D11869022100F050FEC4
S1131A102060F3E7180090472060EFE758000020AB
S1131A209119000010B50378422202330370024971
S1131A30024801F04BF810BD14000020C40A002035
S1131A4010B50278030041780020A12A08D0212A89
S1131A5005D120291DD022290FD0232909D010BD5A
S1131A602129FCD19A3A1249124801F02FF8012099
S1131A70F5E75A88104B1A60F1E79B780C4CE37138
S1131A8096232268DB009A420AD0FFF75FFE00200B
S1131A90E5E7074C1A3A2100064800F057FDEFE746
S1131AA0E379DB07F1D4FA20FFF74AFE0020D6E7FA
S1131AB008000020C40A0020100000207047C0461F
S1131AC0FA220021054B92009A60054A59600832B7
S1131AD01A60044A19761A617047C046F00500205E
S1131AE04C7F0000C40A00200300006970B5002880
S1131AF028D1EFF3108472B624255D5D002D00D14A
S1131B009BE0002C02D162B6BFF36F8FD869002A24
S1131B1013D01C6A844200D887E00024451CDD6190
S1131B209D69AC466044007808550134D869A242E6
S1131B3003D01D6AA842F1D32200196A814239D028
S1131B40100070BDEFF3108072B634241C5D002CBD
S1131B5077D0002802D162B6BFF36F8FD86A002A0B
S1131B6012D01C6BA04266D20024451CDD629D6A23
S1131B70AC466044007808550134D86AA24203D0C8
S1131B801D6BA842F1D32200196B8842D8D10021E1
S1131B90D9621961EFF3108472B6342019540130FC
S1131BA01D5C002D13D11000002CCAD162B6BFF306
S1131BB06F8FC6E700210120D9611861EFF310840B
S1131BC072B62330195411301D5C002DEBD019541A
S1131BD059680868197A4901411801200931FF310F
S1131BE04D782843487059681D7A8C466D01D96830
S1131BF06544AE6888041549000931400143A96071
S1131C005868197A8446490161448868800B8003C6
S1131C10886059680868197A0B00402108335B0111
S1131C20C318187901431971BDE7196A002281426A
S1131C3000D085E7BEE70022A6E7002CB6D000203E
S1131C407FE70028B2D000207BE7C046FF3F00F0CA
S1131C504368027A10B51C68130008335B01E3186B
S1131C60DA79FF21D2074FD50122DA714369002BBB
S1131C704BD083681940436849019C4661448B6892
S1131C809B049B0C03630023436183694B60EFF364
S1131C90108172B63423C254103BC35CDBB2002BF8
S1131CA04AD135228354002902D162B6BFF36F8F23
S1131CB043681A68037A5B01D31801220933FF339E
S1131CC059780A435A704368017A9C464901C368AB
S1131CD061448C689A041C4B1209234013438B60A3
S1131CE04268037A94465B0163449A68920B9203B8
S1131CF09A604368027A19681300402208335B0132
S1131D00CB1819790A431A7110BD836819404368C6
S1131D1049019C4661448B6842619B049B0C0362AD
S1131D20836A4B602423C254EFF3108172B61033DC
S1131D30C35CDBB2002BB4D03523C2540029E3D1F9
S1131D4062B6BFF36F8FDFE7FF3F00F00369002B3C
S1131D5010D1EFF3108272B62433C35CDBB2002AD5
S1131D6002D162B6BFF36F8F002B14D0036AC0692F
S1131D70181A0FE0EFF3108272B63423C35CDBB29F
S1131D80002A02D162B6BFF36F8F002B03D0036B1E
S1131D90C06A181A70470020FCE7C046F8B54F46E1
S1131DA04646C0B40C0000AF151E012D40D9D31D0A
S1131DB06A46DB08DB00D31A9D46080006F066F885
S1131DC06E4603230130400030707370022D42D000
S1131DD02378002B3FD0611CB370032D54D0032310
S1131DE00224002008E00A78002A28D00233DBB25B
S1131DF0013132559D4228D00234E4B2F054A54258
S1131E00F1D822000125224B1B78002B11D1214B44
S1131E101B78002B23D0204B204898461B88310088
S1131E209946484405F072FF43464C441C8000E048
S1131E300025BD4628000CBC90469946F8BD2500F7
S1131E406B1E9D412200EDB2DDE72A006B1E9D4111
S1131E501400EDB2D7E7012502220224D3E7002AB9
S1131E60E7D00F4B31009846180005F04FFF43466A
S1131E700C4A536191690C4B0B40936193699B0B22
S1131E809B031C439461D4E7012503220324BAE78E
S1131E90C00A002017070020980A0020100600201E
S1131EA0D8080020C80A0020FF3F00F0F0B55F46C4
S1131EB056464D4644460123F0B4002687B003AC91
S1131EC0444F200098468A463B702670FFF7AAFDCF
S1131ED0834602F0C3FB210002F05EFB0922237853
S1131EE00500002120000193914605F018FF02230C
S1131EF063709E33E3715A3323726B464A461B79EF
S1131F0022702371424653465D44093562716580EF
S1131F103E70092B3CD042462F4B304D1A709A46E6
S1131F202B0006CC06C322781A704A462C4B1A8022
S1131F30984602ABDC1C2000DE70FFF773FD02F054
S1131F408DFB210002F028FB53461E703B78002BCA
S1131F5016D143461C88002C12D0224E22002900A0
S1131F60300005F0D3FE204A204B56619169A40449
S1131F700B4093619169A30C8C0BA4031C439461E3
S1131F80012007B03CBC90469946A246AB46F0BD42
S1131F90114B1B78002B0AD0114E104835880922AA
S1131FA040192100093505F0B1FE3580E8E70D4BF5
S1131FB01A0003CC03C2217811700B4A5361916952
S1131FC00A4B0B405146936193699B0B9B030B4354
S1131FD09361D5E7C00A00201707002010060020EF
S1131FE0980A0020D8080020C80A0020FF3F00F00B
S1131FF0F0B5CE788BB007000D00022E12D002F09F
S11320002DFB290002F0E2FA002807D1012E11D09D
S11320100024032E3ED020000BB0F0BDC417241AB8
S1132020E40FF8E7C9883548FFF740FF441EA04194
S1132030C4B2F0E7ED88112D41D8122212233049A1
S1132040EDB2002D24D02A002E4B1C78002CE2D1B6
S11320502D4B1C78002C08D02C4F2D483E8880191D
S1132060751905F053FE3D80D5E72A4CAD042000D8
S113207005F04CFE284B294A5C61996901240A4009
S11320809A619969AA0C8D0BAD0315439D61C2E752
S11320901D00D9E7AB78002B15D0022B1FD0012BE4
S11320A024D0032BB7D102F0D9FA01A902F0A2FA85
S11320B0AA7901A93800FFF771FE0400ABE71222E8
S11320C012250F49C0E7ED88032D03D90422042506
S11320D01349B9E7EDB2042204231149B1E7AA79FF
S11320E010493800FFF75AFE040094E7AA790E4914
S11320F03800FFF753FE04008DE7C046C40A0020F1
S1132100C47F0000C00A002017070020980A00209E
S113211010060020D8080020C80A0020FF3F00F065
S1132120C07F0000B47F0000D87F0000F8B5002411
S11321304C4B012105001A201C7001F0C5F8012147
S11321401A2001F011F9484B012119201C7001F0EB
S1132150BBF80121192001F007F92023434A582034
S1132160D1690F340B430121D361414B1A5C0A43FB
S11321701A543C22985CA043985406209E5C304339
S1132180985459201E5C31431954995C2140995448
S11321906021985C01439954364A374B53805378F5
S11321A0DB09FCD13548FFF7A3F8354E0123300095
S11321B010C800212278134380222370520005F0B6
S11321C0AEFDA378DB07FCD41F2104362D4B6662D9
S11321D01A680F00530B960CD00D072237400240AB
S11321E00B401F2B38D0DBB21F2F38D01F210E40DD
S11321F00321072A01D004310140278D9A013B00B5
S11322002148034013431F222385238D93433343E3
S11322102385208D0B0301001C4A11407F221943A2
S113222021852378C1211340237004232278890057
S113223013430C22237023899343154A2381535853
S11322401B021B0A5350802313600223227813437A
S1132250237001232B70F8BD05231F2FC6D11D2623
S1132260C6E7C0469A0A0020C50A002000040040C0
S113227000440041000C0040064000000130000012
S1132280C80A0020246080003FF8FFFFFF8FFFFF93
S113229000E100E00078002810D00121084B1B6801
S11322A01A898A431A810822198B0A431A83042241
S11322B0198B0A431A830022024B1A607047C046E6
S11322C0C80A0020CC0B0020F0B556465F464D46A8
S11322D04446F0B46C4E83B07368002B34D06B4A20
S11322E06B4F6C4D083604374035012491469346B4
S11322F009E0022B4ED0822B2DD008CE01340437B6
S11323004035002B20D0832BF3D1604B62019846DB
S11323104244936904379C4661465F4B0B40C0219D
S113232089050B43936143461868230070210833E1
S113233055615B011A5C01348A4340210A431A54F3
S113234008CE4035002BDED103B03CBC9046994604
S1132350A246AB46F0BD62014A4490694E4B8021CF
S11323600340C0208005034393614B461B685561BD
S113237001932300019A08335B01D0180279494282
S11323800A4302717020019A995C81433020014311
S11323909954B2E7382001F0AFFE80233F4A5B0036
S11323A002609A465A46426052460023C260242282
S11323B0036203614361C3618460835434228046B1
S11323C0C3620363835401328354504605F08AFC8C
S11323D043469861504605F085FC43466201986285
S11323E05A4491682C4B0B40C02189050B439360E0
S11323F05B4618682300072108335B011A5C8A4393
S113240003210A431A544246434652681B7A9446AF
S113241042465B01926963445A6043465B681A68AA
S113242043461B7A5B01D31801220933FF335978E1
S11324300A435A704346197A5B6849019C464346ED
S1132440DB68614488689A04154B120903401343FE
S113245042468B60434652681B7A94465B01634450
S11324609A68920B92039A6043465B6819684346E4
S11324701A7A1300402208335B01CB1819790A43F6
S11324801A7143463B6038E75C000020C80A00200C
S11324909C0A0020D8080020FFFFFF8FA87F0000BF
S11324A0FF3F00F0264B8A00D05810B50C000028DE
S11324B02AD00368234A9B6893423ED10369002BC8
S11324C011D1EFF3108272B62433C35CDBB2002A5D
S11324D002D162B6BFF36F8F002B03D0036AC069C9
S11324E0181A1BD110BDEFF3108272B63423C35CEB
S11324F0DBB2002A02D162B6BFF36F8F002BF1D09A
S1132500036BC06A181A07E0FF230F4A0B405B01F4
S1132510D31898688004800C0028E3D0FF220A4B6B
S113252014401B68083464011C196379803AFF3A2B
S1132530134363710223E371D4E79847ECE7C04681
S11325409C0A00204D1D0000C80A0020F0B540255B
S11325504746A8468224454680B4304E640033681A
S1132560185D28432E4D18557560B068844667463B
S11325702C4838408027BF0238434746B060B068D3
S1132580800B8003B060185D07431F550234185D4B
S11325904006FCD50824FF34185DC007FCD5B0689C
S11325A0C0B2904200D91000002A2CD000231E0093
S11325B00C1DA5425E4134002E1DB1425B412343F4
S11325C008249442A44164421C421FD08B071DD1AD
S11325D000260027141FA408631C9C469B00AC59CA
S11325E001378C510436BC45F9D89A420BD0EC5CC7
S11325F0CC545C1CA24206D92E5D02330E559A427D
S113260001D9EA5CCA5404BC9046F0BD0023EC5CDA
S1132610CC5401339A42FAD1F5E7C046C80A0020E7
S113262018070020FF3F00F01E4B8A00D05810B559
S1132630002816D003681C4A9B6893422BD1036977
S1132640002B17D1EFF3108272B62433C35CDBB2D4
S1132650002A02D162B6BFF36F8F002B1DD1002078
S113266010BDFF231940114B490159188868800493
S1132670800CF5E7EFF3108272B63423C35CDBB24F
S1132680002A02D162B6BFF36F8F002BE7D0036B31
S1132690C06A181AE4E79847E2E7036AC069181A9F
S11326A0DEE7C0469C0A00204D1D0000C80A002039
S11326B0F0B5454657464E46E0B4AC4B82B01B6875
S11326C00D00002B07D10120404202B01CBC9046F3
S11326D09946A246F0BDA64C2378002B00D1AFE06A
S11326E064232370A34BAA00D358002B6BD01A6821
S11326F05468A14A944200D006E11A69002A00D025
S1132700A3E0EFF3108272B62421595C002900D1B2
S113271025E1002A02D162B6BFF36F8FD9691A6A24
S1132720914200D3FDE098694A1C84466846DA6108
S11327306144097807300170196A8A4201D000782F
S1132740C3E7012000220121DA611961EFF310814E
S113275072B624241A5511341D5D002D2CD01A553F
S11327605A6814681A7A5201A21801240932FF32F5
S113277055782C4354705A681D7A94466D01DA6872
S11327806544AE6894047D4A240932402243AA6019
S11327905C681A7AA446520162449468A40BA403A8
S11327A094605A6814681A7A1300402208335B0153
S11327B0E3181C7922431A71002900D0AAE062B6FA
S11327C0BFF36F8FA6E0FF266D4F2E407301FA18FA
S11327D09846936801249B0402D19468A404A40C31
S11327E04346F9188B689B049B0C3F2B00D886E06A
S11327F08868403B9B049A0C830B9B0313438B60B8
S11328000121BA468946C244534649469B683B68FF
S1132810AD0143440933FF331A780A431A706B46F7
S11328205849D81D4919220005F070FA002C00D12E
S113283049E753469B689B0400D17DE0200069E092
S11328400021192000F090FD4AE7EFF3108272B6E0
S11328503421595C002900D181E0002A02D162B6FA
S1132860BFF36F8FD96A1A6B914260D29A6A4C1C7B
S11328709446DC6261440A786946C81D02701A6B8A
S11328800125A24200D05AE70022DA621A61EFF36E
S1132890108172B634201A5401301C5C002C2CD0E8
S11328A01A545A6810681A7A52018218012009329F
S11328B0FF325478204350705A681C7A944664015D
S11328C0DA686444A66890042C4A00093240024342
S11328D0A26058681A7A8446520162449068800B58
S11328E0800390605A6810681A7A130040220833F3
S11328F05B01C318187902431A7128005CE78B68DE
S11329009B0B9B038B607BE76A46D01D0100012271
S11329101800A047012800D0D5E66B46D81D0078E2
S1132920D3E61A6A00208A4200D10BE7CBE61A6B81
S113293000259142A8D0C6E640223B6808367601BD
S11329409E19317943440A433271012249460933BD
S1132950F271FF335A7820000A435A70DAE7002AEA
S113296000D0B0E662B6BFF36F8FACE6CC0B0020AC
S1132970C50A00209C0A0020E91A0000FF3F00F06D
S1132980C80A002018070020F0B54D465F46564699
S11329904446F0B49946454B85B01B680D009346F8
S11329A0002B08D10120404205B03CBC904699461A
S11329B0A246AB46F0BD8023DB019945F2D83C4CDE
S11329C02378002B6BD0642323704B46002B6BD0F1
S11329D0FF24384B2C409A461B6827009846002356
S11329E0354A0293AB01D318083764017F0103937E
S11329F05B46A3463C004746304E01933B199B7906
S1132A00DB091BD02E4B2F49186803F053F92E4BCA
S1132A101721584303F04EF93B19DB799B070DD47A
S1132A20735D002B01D10138F6D201235C46735546
S1132A305444A3699B0B9B03A361B3E70023735521
S1132A404B46C8463F2B01D93F239846424601993D
S1132A50039805F05BF95146039A59444A6142468A
S1132A600B0088699204910C820B92030A439A61C9
S1132A70022280213B19DA715A7949420A435A7178
S1132A80029B4246434402934B469B1A9946019B40
S1132A90434401934B46002BB0D1029884E70021B4
S1132AA01A2000F061FC8EE700207DE7CC0B0020AB
S1132AB09A0A0020C80A0020D80800201007002025
S1132AC08400002040420F0070110100134B70B5C8
S1132AD01B781400002B0BD1114B1B78002B09D051
S1132AE0104E1148358840192D1905F00FF935801D
S1132AF0200070BD002AFBD00C4D280005F006F91B
S1132B000B4B0C4A5D6199690A409A619869A20469
S1132B10910C820B92030A439A61E9E7C00A0020F0
S1132B2017070020980A002010060020D80800206B
S1132B30C80A0020FF3F00F070B54B780C000B2B47
S1132B4000D98CE0524A9B00D3589F468A78514B57
S1132B501A60514A93699B0B9B03936101231800EC
S1132B6070BD0B784D4A002B7BD04D4B1B78013B3D
S1132B7059424B41137000235370474B5A61996972
S1132B80484A0A4002219A619A69920B92030A43C5
S1132B909A610123E3E78B78012B64D00022404B38
S1132BA01A70D6E78878012860D0002804D1012261
S1132BB03B4B1A70CDE78878374A0624936911682D
S1132BC09B0B9B039361082202238025FF328B54C5
S1132BD0FF340B5D6D422B430B558B5C9B07FCD57F
S1132BE07F21314B08409A7A8A43104398729A7A2B
S1132BF0FF390A439A720123B1E7FFF7F9F9030099
S1132C00ADE70023ABE7294B1B78244A1370224B12
S1132C105A619969234A0A4001219A619A69920B7F
S1132C2092030A439A61012399E70A780023D206A2
S1132C3095D1FFF749FB2A200221A2781B4BFF30D4
S1132C401A60154A13681C5C214319544A20012157
S1132C50FF301C5C214319547CE70E4BD4E701235D
S1132C607DE7137088E70D4A114B7FE70022104B74
S1132C7018700A4B1A70084A53619169094B0B404A
S1132C80936193699B0B9B0318439061012366E74F
S1132C90707F0000BC0A0020C80A0020D808002069
S1132CA00C060020FF3F00F000500041CC0B002038
S1132CB0B80A0020F0B557464E464546E0B4C54F25
S1132CC004003B689A8B120737D5C026802007255D
S1132CD0B968C14AB60511403143B960BF494000E3
S1132CE07960195CA943012529431954B9690A403B
S1132CF070213243BA61BA4A7A611A5C8A4310215C
S1132D000A431A54B868B74A024080204003024379
S1132D10BA60BA680620920B9203BA604022FF3070
S1132D201D5C2A431A540A20FF301A5C0A4300210E
S1132D301A54AD4A116008229A839A8B520713D50C
S1132D4004229A83A94B1A78002A07D01A78013AE8
S1132D50D2B21A701B78002B00D128E1A44B1A7848
S1132D60002A00D0F6E03B680822FF32995CC906CD
S1132D7025D5102199544022F431585C974D0243D3
S1132D805A5460222B781A4200D0CEE02900200049
S1132D90FFF7D2FE002800D0D3E006232021954A75
S1132DA0FF33D1543B680822FF32995C490606D5AB
S1132DB0402199544022C831585C02435A541D8C16
S1132DC0FE231D4000D188E08B4B002498468B4B9A
S1132DD0012699462B0023411E4200D182E02300A4
S1132DE03A6808335B01D318D979C90702D4DB796F
S1132DF09B0769D54146A3005858002800D1B6E086
S1132E0003681B684B4500D0C3E04368027A1B6823
S1132E10FF219C46130008335B016344DA79D2072F
S1132E2052D5DE714369002B60D0426883689446B2
S1132E300B405B0163449A689204920C0263002283
S1132E40426182695A60EFF3108272B63423C65429
S1132E50103BC35CDBB2002B5FD135214354002A05
S1132E6002D162B6BFF36F8F43681A68037A5B01BD
S1132E70D31801220933FF3359780A435A7043683F
S1132E80017A9C46490161448B689C46C3689A0454
S1132E9013099A466246534B1340524613438B60C0
S1132EA04268037A94465B0163449A68920B9203E6
S1132EB09A604368027A19681300402208335B0160
S1132EC0CB1819790A431A713300A3409D43082C87
S1132ED003D00134002D00D07CE71CBC90469946F9
S1132EE0A246F0BD082CF8D0013473E74268836829
S1132EF094460B405B0163449A6846619204920CC9
S1132F000262826A5A602423C654EFF3108272B6B6
S1132F101033C35CDBB2002B9FD03523C654002A88
S1132F20D2D162B6BFF36F8FCEE72B79002B32D1AB
S1132F302800FEF785FD002803D1BB699B0B9B038A
S1132F40BB61062180203B68FF315A5C404202434A
S1132F505A5428E71A78013AD2B21A701B78002B17
S1132F6000D000E70121192000F0FEF9FBE6E3B2EE
S1132F70032C21D0012BA7D1922180204900535C3E
S1132F8040420343535428232339FF39FF33D15498
S1132F909AE7984798E701F061FB290001F04AFBA2
S1132FA00028CED1BB699B0B9B03BB61F5E60121D5
S1132FB01A2000F0D9F9D1E6B22180204900535CEF
S1132FC040420343535468236339FF39FF33D154D8
S1132FD07AE7C046C80A0020FFFFFF8F18070020C9
S1132FE0D8080020FF3F00F0CC0B00209A0A0020F4
S1132FF0C50A0020005000419C0A0020511C00001A
S1133000044B10B51B78002B02D10348FFF752FE86
S113301010BDC04617070020C40A0020014A024B15
S11330201A60704700500041C80A0020FA21344B4E
S113303010B51868890002F03DFE324B0138984201
S113304000D9FEE73049314A4860C020136A0006BF
S11330501B021B0A0343136200238B6007330B60BC
S11330608021136A09061B021B0A0B431362FC220C
S1133070274B0024196A0A43FC211A621A6A89013F
S11330800A43A0211A621A6AC9020A431A6220007A
S11330900021013400F018F9142CF8D11D4A53789A
S11330A05BB2002BFBDB1C4A1A4B1C495A804A7E3C
S11330B01A4BD209012AFAD0E422D2009A803F2284
S11330C0DA705A7E1549D209012AFAD0C0235B016D
S11330D00B61002300208B7000F02CF80D4A53780C
S11330E05BB2002BFBDB0E4A0A4B5A800D4AD379A4
S11330F0DB09012BFBD041220A4B5A7010BDC0469C
S113310084000020FFFFFF0010E000E000ED00E07D
S113311000040040000C00401E400000004000423B
S11331202140000000480042014B18607047C0462F
S11331308C0000201F4A537EDB09012BFBD005289D
S113314031D81D4B80001B589F461A4B1B4A1969E6
S11331500A400F211A615A788A4302210A435A709D
S11331607047144B154A19690A400F211A615A789D
S11331708A435A70F4E70F4B104A19690A400F2129
S11331801A615A788A4303210A435A70E8E7094BC3
S11331900A4A19690A400F211A615A788A4301219F
S11331A00A435A70DCE7F021024B09051A690A4305
S11331B0CFE7C04600400042E47F0000FFFFFFF07D
S11331C010B5041E062C00D16BE0072800D16EE078
S11331D0052800D80E340121200000F0F3F80E2C4D
S11331E00DD13449CB79334ADB09012BFAD00221C2
S11331F013788B431370D379DB09012BFBD02E4951
S11332004B7E2D4ADB09012BFAD01F2063001C19C9
S11332102A4BE4001C19217C1369014083430B43AE
S1133220110013614B7E244ADB09012BFAD00223DF
S113323011780B43110013704B7E1F4ADB09012BDD
S1133240FAD00223117B0B43137301231376537EAD
S11332501949DB09012BFAD002230A7B13430B73B0
S11332600A7E154BD207FBD51900588B80B24B7ED2
S1133270114ADB09012BFAD0022113788B43137016
S1133280537EDB09012BFBD00D4B1A680D4B1B68D9
S11332909A4202D002D89B1A984010BDD31AD84043
S11332A0FBE72C240121200000F08CF8A7E72D2453
S11332B0F8E7C04600480042004000424C8000004D
S11332C0880000209000002010B50824430018183E
S11332D0234AC00013181C57013415D0012931D0DA
S11332E0002912D002291ED003290DD18256596813
S11332F0D3011C4A0620944663445A184032107085
S113330001228A405A605A6110BD82565968D3011D
S1133310144A0220944663445A1840321070012221
S11333208A405A60F0E782565968D3010D4A062054
S1133330944663445A184032107001228A405A60FD
S11333409A61E1E782565868D301064A02249446FA
S1133350814063441A18403214709960D4E7C0461F
S11333604C80000000440041F0B5082442001018CD
S1133370124BC0001A18145701341CD00126350012
S11333805268C35695400E48DB01181884682C42D5
S11333900BD10C00671EBC418218403210783440B7
S11333A00336A400B04320431070054A9446634496
S11333B0002901D09D61F0BD5D61FCE74C800000F7
S11333C00044004170B508244500244A2B18DB0052
S11333D0D3181C57631C11D04B1CDBB20C2B2CD8FC
S11333E01F4C9B00E3589F4609292DD00A2930D051
S11333F000240B2902D10A39FFF766FF200070BDB3
S113340001246442FAE7174C2818A446C000131894
S113341082565B68D2015808624410183030DC07C9
S11334200DD40F250478AC43D31801222143C9B22B
S11334300170403319780A431A700024DEE70F251F
S1133440047809012C40EFE70021FFF73DFF002439
S1133450D4E70839FFF738FF0024CFE74C80000099
S1133460FC7F0000004400417047C0467047C046DE
S1133470F0B55F4656464D46444693461A00F0B4AE
S113348097B00B9320AB0791197821AB139119785E
S11334901300013B14911593002B39DD56080023CA
S11334A000223100B34204D35B1A9BB249088B4219
S11334B0FAD25B180132159992B29BB28A4227DA8A
S11334C09342EED9079CD000A446D9008444884690
S11334D02700614664464744656824680094019562
S11334E03C687D680C604D60009C019D41463C60D9
S11334F07D605844046845685944009401950C68FB
S11335004D6804604560009C019D0C604D60C8E7F7
S1133510139B002B00D1EDE00023129301330A9397
S113352000231193109300238C4C0E930F940A9A4A
S113353053009BB20C93002A00D1B2E00023002474
S1133540029303940023864C0493059400231A00E9
S11335500D930B9B9246191E914269D9079A0A9BB7
S1133560914653449BB2DB00994449464A68096832
S1133570080011005B441E685F689846049A059B26
S11335800890099103F0B8FC029A039B04000D0013
S11335903000390003F0B0FC02000B0020002900C9
S11335A003F024FF049A059B009001913000390038
S11335B003F0A2FC029A039B04000D0008980999E9
S11335C003F09AFC02000B002000290002F044FDE5
S11335D05346079ADE0097190400009A019B0D00D8
S11335E03868796803F002FF4B46186059605E44FE
S11335F03068716822002B0003F0F8FE434618601F
S1133600596038687968009A019B02F025FD38609A
S113361079602B0030687168220002F01DFD0C9B5C
S11336203060716053449BB29A460B9B534595D8C6
S1133630049A059B0E980F9903F05EFC029A039B73
S1133640119E0400B1463000109E0D00310003F0BD
S113365053FC02000B002000290003F0C7FE029A6D
S1133660039BB0460F0006000E980F9903F044FC2C
S1133670049A059B04000D004846414603F03CFCB7
S113368022002B0002F0E8FC0D9B0A9A01339BB246
S1133690029003910D93934203D0049605971A0068
S11336A057E70E9A0F9B00202D4903F09FFE2D4BE8
S11336B0002203F021FC01F07DF8149B119010917D
S11336C0012B43D00E980F990022254B02F0C4FC25
S11336D00022244B03F010FC01F06CF8129B0C9AAE
S11336E001330A92139ADBB20E900F9112939A420D
S11336F000D01CE7149B012B21D00B9B002B1ED068
S1133700180004F01DFA6B4654229B181F88079E6C
S11337100137FF00F719B84604000D005F46306812
S1133720716822002B0002F0C3FF03C63868796871
S113373022002B0002F0BCFF03C74645EFD117B0AF
S11337403CBC90469946A246AB46F0BD8022120688
S11337500B00944663441093B4E7C0460000F0BFE6
S11337600000F03F0000E03FF0B583B008AC2778DC
S1133770DC070DD4002401261D000134E4B22541E8
S11337802E42F9D001970094FFF772FE03B0F0BD0A
S11337900024F7E7F0B557464E464546E0B4002B03
S11337A026D08846013B9BB20133DB00434491465B
S11337B09A464B4630CB994643461A685B681000DC
S11337C0190003F099FB220006000F002B002000D3
S11337D0290003F091FB0B0002003900300002F0D5
S11337E03BFC00F0E7FF434603C398469A45E0D10B
S11337F01CBC90469946A246F0BDC046F0B54D4665
S1133800444656465F46F0B487B003931D0010ABA0
S11338108A461978100014000592049104F0D2F934
S11338200022964B03F0E2FD00900191002162100A
S113383002928846894668D0AB009B46904A9344DE
S1133840484604F0BFF9009A019B04000D0002F001
S11338502FFF039B06000F00062B00D900E15B46F7
S11338601B689F46874A884B03F046FB00F05CFFC9
S1133870864A04000D00864B3000390003F03CFBFF
S113388000F052FF834A844B06000F0020002900F9
S113389003F032FB02000B008048814903F0A6FDCF
S11338A004000D007F4A804B3000390003F024FBF4
S11338B002000B002000290002F0CEFB04000D00E2
S11338C0049B012B00D174E04B46DE005644306863
S11338D0716822002B0002F0EBFE306071604646F6
S11338E0059B01369E1BF600564430687168220021
S11338F02B0002F0DDFE306071604B4601339BB259
S113390099469846029B99459ADB07B03CBC904681
S11339109946A246AB46F0BD5A4A5B4B03F0ECFA1B
S113392000F002FF594A04000D00594B30003900E1
S113393003F0E2FA00F0F8FE5C4A5D4B06000F006B
S11339402000290003F0D8FA02000B0059485A4914
S113395003F04CFD594A04000D00594BA4E7002222
S113396000980199574B03F0C7FA02000B0020009E
S1133970290003F03BFD002200230E00040002F0A6
S113398039FB00286FD0220033002000310002F000
S113399063FB009A019B02F08BFE0B000200374987
S11339A0002003F023FD049B04000D00012B00D034
S11339B08AE74B46DE0056443068716822002B00CB
S11339C003F09AFA306071604646059B01369E1BEF
S11339D0F60056443068716822002B0003F08CFA1C
S11339E03060716089E7274A274B03F085FA00F0BD
S11339F09BFE02000B000020204903F0F7FC324A32
S1133A00324B03F079FA04000D0059E71D4A1E4BAE
S1133A1003F072FA00F088FE2D4A2E4B03F06CFA84
S1133A2002000B002848294903F0E0FC04000D00C3
S1133A3046E7002200980199224B03F05DFA060044
S1133A400F0002000B002000290003F0CFFC32001D
S1133A503B0002F02DFE02000B0003F04DFA9CE740
S1133A600024064D2CE780231B069C466644220056
S1133A7033002000310002F0EFFA8AE70000F03F43
S1133A803080000068A17454FB2119402CBB1E54E3
S1133A90FB212940BD7ED29A30ABE03F8984A570DA
S1133AA0F3FCD13F52CCE6165F59C93FB9FC87F409
S1133AB0DBD7DF3FBCE82B483316DB3F2B6A300DE6
S1133AC0C347B43F0000E03F48E17A14AE47E13F0A
S1133AD0713D0AD7A370DD3FF0B556464D464446C6
S1133AE05F46F0B45310013B85B0884691469A4630
S1133AF0012B00DC7DE0002300249B4600230125EC
S1133B0000930194404BEC18E4004444A668E76831
S1133B102068616832003B0002F058FA002812D095
S1133B20226963693000390002F064FA00280AD07F
S1133B30009A019B3000390002F05CFA002802D0A0
S1133B40AB46009601970135ADB25545DADB082343
S1133B502D4D58469A465D4403F0F2FFED002C00CB
S1133B60029003911034AA44454444442E686F687B
S1133B7065682468300022002B00390003F036FC0D
S1133B8043465344009001911868596802000B00A1
S1133B9002F062FA02000B003000390003F026FC48
S1133BA022002B0002F058FA02000B000098019941
S1133BB002F07EFD0022154B03F09EF9029A039B4E
S1133BC002F04AFA0E9A0F9B03F096F90400484655
S1133BD001380D0003F0B4FF02000B00200029009F
S1133BE002F066FD05B03CBC90469946A246AB4641
S1133BF0F0BD002300240825029303940023082425
S1133C009A466D42B0E7C046FFFFFF1F0000E03F49
S1133C1000290BDD4B0059184118137803705378B1
S1133C2043709378837003308842F6D17047C0465E
S1133C30F8B504000F001E1E0FDD5500AD182368F3
S1133C4020009B6898477A19236862605B690B4A75
S1133C506661934204D12000F8BD16000025EEE70A
S1133C6020009847011EF6D0054802F0ADF8054D36
S1133C706B68834200D203006B60ECE7190100001B
S1133C8040420F00D00B0020F0B557464E46454643
S1133C908A46E0B4070043683D4C82B0002B6DD1E6
S1133CA0FDF732FBFB682060002B03D05046B96857
S1133CB098478246374B01AD1C680026002C3FD044
S1133CC0A37C98467B88632B00D8A674236861681C
S1133CD05B686269994653462E706E70AE70002B15
S1133CE026D0207B002809D0E37B002B06D00130AE
S1133CF001334343504643431B0C2B70607B002825
S1133D0009D0237C002B06D00130013343435046B5
S1133D1043431B0C6B70A07B002809D0637C002BF1
S1133D2006D0013001334343504643431B0CAB7070
S1133D302B002000C8474346A374A468002CBFD1BD
S1133D40154C23685A1C2260182B11DDFDF7D6FA96
S1133D50FA2322689B005343104D2A68811A1800E5
S1133D6001F0A8FF002378802360FDF7C7FA2860DC
S1133D7002B01CBC90469946A246F0BDFDF7C4FAB9
S1133D8022687B68801A984200D287E788E7C04699
S1133D90E80B0020E00B0020E40B0020EC0B0020DB
S1133DA0FF22044B1A7000225A80DA60013A9A60AA
S1133DB07047C046D00B0020562270B50578447871
S1133DC08378E800C0B242436EB2120A002E5ADB76
S1133DD06E064AD4A80666D55532D5B20022002212
S1133DE0AB20FF2C20D0002C00D173E0002803D09E
S1133DF0661C70430012C0B2002D03D0661C7543CC
S1133E002D12EDB2002A03D0661C72431212D2B2F4
S1133E10E443E4B2661C74432412E4B200192D197D
S1133E201219C0B2EDB2D2B2FF2B1AD01C00661E1A
S1133E30B4415B431B12E318DBB2002B4ED00028C5
S1133E4003D05C1C60430012C0B2002D03D05C1C84
S1133E5065432D12EDB2002A03D0013353431B12E4
S1133E60DAB24D7008708A7070BDAD0621D4AB25EE
S1133E706843013DFF3D0012281A563AD5B2C0B23C
S1133E8000220022ADE76E0618D4AD0633D400221A
S1133E90AB22552550436D42000A2D1A5530C2B24B
S1133EA0EDB200209DE7D0430025C0B215000022EA
S1133EB097E70020D5430020EDB292E7A80611D47D
S1133EC010005530C0B2002555256D42AA1AD2B251
S1133ED0002586E7FF22FF25FF20A5E70022002515
S1133EE00020BEE710005638C0B200255525AA1A96
S1133EF0D2B2002575E70020D5431000EAB20025B0
S1133F006FE7C046F8B544465F464D465646374BC4
S1133F10F0B41C687D23814688469B46002C37D02C
S1133F20334B9A46236866681B69534542D16069DE
S1133F3082B2002A43D0013A92B2013251008A1867
S1133F4033000021B618002700221D7852195D782D
S1133F507F199D78033349199E42F6D193009A182C
S1133F60FB00DB1BDB00DB1B8F0079180F01120148
S1133F70791A120A1B0A090A0004000C870038186F
S1133F8080185844C518AB46A4688B44002CC9D18A
S1133F9059464B465943090A414514D2154B4F46DD
S1133FA0187800281ED138003CBC90469946A24699
S1133FB0AB46F8BD2000984782B2002ABBD100214D
S1133FC000230022D8E74B464046584301F072FED6
S1133FD0084BC7B21B78002BE5D001211800FFF76E
S1133FE0C3F9E0E70021FFF7BFF9DCE7E00B0020AD
S1133FF015010000F40B00207047C04610B50248BC
S113400000F0A8FA10BDC046F80B002010B5024815
S113401000F0A0FA10BDC046BC0C002010B504008E
S113402000F06EF8200010BDF0B54F464646C0B40F
S1134030214D83B02149280000F066F82049214829
S113404000F062F82049214800F05EF82049214838
S113405000F05AF82049214800F056F8204F214931
S1134060380000F051F8012399461F4C01930233A4
S1134070984600932900023B0022200000F040FAF9
S11340801A4E1B4D32002900200000F045FB4B4620
S113409001934346174C009339001B331F22200021
S11340A000F02EFA32002900200000F035FB03B0A6
S11340B00CBC90469946F0BD800D002000080042DB
S11340C0000C0042840D002000100042880D0020E6
S11340D0001400428C0D002000180042900D0020B6
S11340E0940D0020001C0042F80B0020000000206A
S11340F0F93F0000BC0C002010B503F0F3FD10BD27
S113410010B503F0F9FD10BD01607047F0B5056806
S11341109F1EAC462E687D1EAF419507624635430F
S11341203F063D431560072211400A0005AC247880
S11341300568A0016E680243022B05D05B033100C1
S1134140114319436960F0BD0023F8E730B5C0247A
S11341501205A4032240C0240568A4022B680904A4
S11341601A43214011432960026853682343536072
S113417030BDC0460123026811680B431360026816
S11341801368DB07FCD4D369DB07F9D47047C04656
S11341900223026811680B4313600268D3699B070A
S11341A0FCD470470268137EDB0702D4137E9B079E
S11341B0FCD57047002203685A8370470368187E51
S11341C04007C00F7047C0460368187EC009704797
S11341D0802102684942137E0B4313767047C04620
S11341E00368188DC0B270470268137EDB07FCD5E4
S11341F089B201201185704703682A4A30B5934279
S113420028D0294A93422DD0284A934232D0284AB2
S1134210934237D0274A934203D0274A934238D057
S113422030BDC02180240323244A254D0902A40162
S113423024489B0004608446C020634480001C58CA
S113424022400A431A50204A558053785BB2002B0F
S1134250FBDBE5E7C02180240902184A0223A400FD
S11342601A4DE5E7C02180240904194A0223E40019
S1134270184DDDE7C02180240906174A02232401D2
S1134280164DD5E78024C021154A03236401154D3A
S1134290CEE7C021802409040D4A0323E401124D12
S11342A0C6E7C04600080042000C0042001000426D
S11342B00014004200180042001C0042FF00FFFFEF
S11342C01840000000E100E0000C00401440000031
S11342D0FFFF00FF15400000FFFFFF001640000035
S11342E000FFFFFF1740000019400000F8B504006C
S11342F00D0016001F00FFF77FFF012322681168DD
S11343000B43136022681368DB07FCD4D369DB0713
S1134310F9D41C21AB000B407107090C0B4313604B
S1134320842322689375012D00D0F8BD0821012E45
S113433017D00D4B79431868C00001F0BBFC07236C
S1134340216803408D895A03EB04DB0C13438B81F2
S1134350216800048A89C30C500B400318438881E8
S1134360E3E70831E5E7C0468400002001207047F8
S1134370C023F0B50E0008210500C05C2A4F43009D
S11343801B18DB00FB1883B059561400FFF71AF80A
S1134390C1230821E85C43001B18DB00FB185956B5
S11343A0FFF710F83300012228690121FFF79EFF6F
S11343B0F02380221B01286923409200934230D0CD
S11343C00132FF3293422AD08022002152009342CC
S11343D01ED00F232340012B1FD0023B5A425A41C7
S11343E002239B1AF02214402200303A56425641CE
S11343F001220096FFF78AFEC223EA5C0133E95CDE
S11344002869FFF7A3FE2869FFF7C2FE03B0F0BDD9
S11344100F2305212340012BDFD10023E2E70721ED
S1134420D7E70621D5E7C0464C80000010B504004C
S11344300069FFF79FFE2000143000F03FF910BD23
S113444010B50069FFF7AEFE10BDC04610B51430BC
S113445000F04EF910BDC04610B5143000F050F90C
S113446010BDC04610B5143000F02EF910BDC04682
S113447010B50069FFF7B8FE012010BD70B50368E0
S11344801C4A5B6A82B004000D0093422ED1C02303
S11344900821C05C184E43001B18DB00F318595662
S11344A0FEF790FFC1230821E05C43001B18DB00EA
S11344B0F3185956FEF786FF2B00012201212069CB
S11344C0FFF714FF00230122009300210233206927
S11344D0FFF71CFEC223E25C01332069E15CFFF7B5
S11344E035FE2069FFF754FE02B070BD034A9847B9
S11344F0FAE7C046714300004C800000130400003A
S1134500F8B54F464646C0B41F0008AB1E7809AB49
S11345101D7800234360FA2389469B0083600C4B7B
S11345200400083303601430904600F0A9F84B46A9
S113453042462361C023E2540133E7540133E65475
S11345400133E55420000CBC90469946F8BDC046A2
S11345509C84000010B504000069FFF72FFE0028BA
S11345600BD12069FFF730FE002805D02069FFF742
S11345702FFE2069FFF71EFE10BD2069FFF730FEF5
S113458001002000143000F089F8EAE70379413390
S113459001200B707047C04670B544680E00002CB3
S11345A011D0002503E0E4682D18002C09D02368FD
S11345B031005B68200098470028F4DA012040426B
S11345C070BD2800FCE70020FAE7C04670B54468D7
S11345D00D00002C03D10AE0E468002C07D0236806
S11345E029009B68200098470028F5D070BD002062
S11345F0FCE7C04670B544680D00002C14D00C4E86
S113460007E00120237941332B70E4682D18002C36
S11346100AD02368DB68B342F3D02900200098470E
S1134620E4682D18002CF4D100232B7070BDC04613
S11346308D45000070B544680D00002C03D10AE0DC
S1134640E468002C07D0236829001B6820009847E1
S11346500028F5D070BD0020FCE7C0460121064AC1
S113466010B5136805480B4005D1022404700234C8
S113467044704360116010BDA00D0020980D00200F
S113468010B5A4220021040003F049FB0023A42256
S1134690A35004322000A35010BDC046F8B5A42591
S11346A0465904000F00701CA42101F089FBA823C3
S11346B0E3588B4201D0A7556151F8BD0023A422D1
S11346C0835004328350704770B5A4230400A82695
S11346D0E3588059984207D0255CA421013001F0A9
S11346E06FFB2800A15170BD01204042FBE7C0468A
S11346F0A423A822C3588058181A00D5A4307047A0
S1134700A823A422C3588258934201D0C05C7047A6
S113471001204042FBE7C0460B0010B50100180021
S113472003F0A6FA10BD000030B5204A4B0087B054
S11347305B0893421CDD1E4A934205DD02000B0018
S113474002F054FE07B030BD02AA00F093F8032330
S11347501840049A059B012818D002280DD000287F
S11347601ED0029803990124009401F0E5F8E9E7CA
S11347700022002300F07AFBE4E70298039900F09A
S113478075FB80231B069C466144DBE7009002987E
S1134790039901F0D1F880231B069C466144D1E7BC
S11347A00298039900F062FBCCE7C046FB21E93F85
S11347B0FFFFEF7FF0B546464F46C0B48DB004000E
S11347C00D0000F05DFA294B009001911B785BB25B
S11347D09846013312D022002B002000290003F058
S11347E059F98146002809D10026002732003B00F0
S11347F02000290001F0EAFB002806D10098019965
S11348000DB00CBC90469946F0BD01230293184BA1
S11348100694079503934B460A93434604940595DF
S1134820002B15D03B0032003000390001F040FF6E
S1134830434608900991022B0CD103F027FA212357
S113484003600A9B0093002B0AD108980999D7E7C3
S11348500896099702A801F0BBF90028F1D1ECE70A
S113486003F014FA0A9B00930360EEE7940000201F
S1134870D4840000F0B54E4657464546E0B4DC4BC0
S11348804E0090B01700894676089E4200DC81E015
S1134890D84B9E4220DCD84A002900DC89E1D74B62
S11348A002F0A4FDD54B04000D009E4200D18AE025
S11348B0D34AD44B02F09AFD02000B0020003A6068
S11348C07B60290002F092FDCD4ACE4B02F08EFDB2
S11348D0B860F960012066E0CB4B9E4200DC8DE0BD
S11348E0CA4B9E4265DCCA4932158A4692445346F5
S11348F01B05F51A2900040003F0ECF803F020F975
S113490002000B00200029000A920B9302F06EFDB6
S11349100022C04B02F0F0FA0290039103F0DAF89F
S113492003F00EF904000D0002000B000298039935
S11349300C940D9502F05AFD0022B64B02F0DCFAFD
S1134940002200230E900F9101F03AFB002800D1C1
S11349504CE1002300222000290001F031FB022257
S1134960431E9841131AAC4A3900019202220AA844
S11349700092524600F094FB4B46002B13DA80223F
S1134980120694467B68404263447B60FB68634440
S1134990FB6008E002000B003A607B600022002309
S11349A00020BA60FB6010B01CBC90469946A24639
S11349B0F0BD02000B0002F019FDB860F960386028
S11349C079600020EFE7D3228E4B520502F00EFDF2
S11349D0924A934B04000D0002F008FD02000B0004
S11349E020003A607B60290002F000FD8B4A8C4B6A
S11349F002F0FCFCB860F9600120D4E701F04CF847
S1134A00884A894B04000D0002F076FA0022874B95
S1134A1001F022FB03F05EF8804603F091F8764A39
S1134A20764B0690079102F067FA02000B00200013
S1134A30290002F0DBFC734B02900391069807995E
S1134A406F4A02F059FA434604000D000494059598
S1134A501F2B30DC013B764A9B009B589E422AD098
S1134A6002000B000298039902F0C0FC02000B0044
S1134A7005000C003A607B60029803992A00230029
S1134A8002F0B4FC049A059B02F0B0FC06000B0093
S1134A903200BA60FB604B464046002B00DB82E7E5
S1134AA080231B069C46644461443D607C60BE6078
S1134AB0F960404277E7049A059B0298039902F053
S1134AC095FC0B0002003A607B604B0036155B0DD1
S1134AD005000C00F31A102BCEDD06980799D3229B
S1134AE0484B520502F008FA04000D0002000B00C6
S1134AF00298039902F07AFC02000B0002980399D1
S1134B000892099302F072FC22002B0002F06EFC62
S1134B1004000D0006980799404A414B02F0ECF955
S1134B2022002B0002F062FC02000B0004900591AD
S1134B300898099902F05AFC02000B003A607B6065
S1134B404B005B0DF61A0500089A099B0C000292B3
S1134B500393312E90DD06980799B822304B9205C5
S1134B6002F0CAF904000D0002000B000298039938
S1134B7002F03CFC0A0001001300029103920200BF
S1134B800898099902F032FC22002B0002F02EFC56
S1134B9004000D0006980799264A274B02F0ACF949
S1134BA022002B0002F022FC02000B000492059369
S1134BB058E7124B01F050FA104B04000D009E42CE
S1134BC03CD00F4A0F4B01F047FA02000B002000C3
S1134BD03A607B60290002F009FC094A094B01F0A4
S1134BE03BFAB860F96001204042DCE60323BAE6F0
S1134BF0FB21E93F7BD9024000004054FB21F93FEF
S1134C003163621A61B4D03DFB213941FFFFEF7F6C
S1134C10EAFBFFFF000070415C8500007370032E07
S1134C208A19A33B83C8C96D305FE43F0000E03FAD
S1134C30DC840000C14920259A837B39D3220D4BA3
S1134C40520501F009FA0C4A0C4B04000D0001F066
S1134C5003FA02000B0020003A607B60290002F096
S1134C60C5FB054A054B01F0F7F9B860F96001206E
S1134C70404298E661B4D03D7370032E8A19A33B79
S1134C80F0B556464D4644465F46754BF0B40A00AF
S1134C900D00190083B0060004002940994200D198
S1134CA0BAE0002D00DC94E02D1500D1A3E06D4B9B
S1134CB012039C468023120B5B0365441A43EB07E3
S1134CC000D581E06B109846E30F9B189B18802257
S1134CD016210026002764009203B818984202DCCB
S1134CE087181B1AB618E00F5B0001391B18640003
S1134CF052080029F1D10022019294468022120622
S1134D002020914609E09F4241D0E10FC9180138A3
S1134D10CB186400520800281ED0614651189F42E7
S1134D20F1DA8D18AC46CD0FED07BA464D4539D0B2
S1134D30DB1B8C42BF417F42DB1B641A01990138A3
S1134D408B46934459460191E10FC9185746CB1835
S1134D50640052080028E0D123432BD1019B5B0857
S1134D60414972108C466244F10702D5802109063C
S1134D700B43414609058D181E002F0030003900F1
S1134D8003B03CBC90469946A246AB46F0BDA14256
S1134D900ED88D18AC46CD0FED074D4548D09A4638
S1134DA00023CAE76546002DC2DB7D1CAA46BFE787
S1134DB03B00AAE7019B01333ED0019A01239446AC
S1134DC0134063445B08CBE7E30F52009A18640076
S1134DD078E76B005B0803432F00002BCED000253F
S1134DE0002A31D1E20A153D6405002AFAD0802355
S1134DF05B031A4223D180200023400300E00B0010
S1134E005200591C0242FAD02020401AED1A230005
S1134E10C3408C401A434AE702002B00290002F0E9
S1134E206BF832002B0001F017F906000F00A5E71C
S1134E306546002DB9DAB2E70136002390E7012375
S1134E4020205B420021E1E73B000200390002F030
S1134E50CDFA02000B0001F02BFC06000F008DE7D9
S1134E600000F07F01FCFFFF0000E03FF0B54F467B
S1134E704646C0B487B000920193754B4F008146FB
S1134E8088467F089F4263DC02F024FE002800D19C
S1134E90DAE04A4643464846414602F02DF804000B
S1134EA00D006C4A6C4B02F027F86C4A6C4B01F015
S1134EB0D3F822002B0002F01FF86A4A6A4B02F072
S1134EC095FA22002B0002F017F8684A684B01F0AB
S1134ED0C3F822002B0002F00FF8664A664B02F07A
S1134EE085FA22002B0002F007F8644A644B01F0B3
S1134EF0B3F822002B0001F0FFFF0290039100227F
S1134F00604B2000290001F0F7FF029A039B060082
S1134F100F002000290001F0EFFF009A019B04001C
S1134F200D004846414601F0E7FF02000B00200057
S1134F30290002F05BFA02000B003000390002F095
S1134F4055FA02000B0000204F4902F04FFA70E0BE
S1134F5002000B0001F0D0FF04000D003D4A3E4B5F
S1134F6001F0CAFF3D4A3E4B01F076F822002B00C7
S1134F7001F0C2FF3B4A3C4B02F038FA22002B00FE
S1134F8001F0BAFF394A3A4B01F066F822002B00CF
S1134F9001F0B2FF374A384B02F028FA22002B0006
S1134FA001F0AAFF354A364B01F056F82B002200D7
S1134FB001F0A2FF354B029003919F429FDD344BD9
S1134FC000229F423ADC334900207B182E49160008
S1134FD01F0002F00BFA049005910022294B2000D7
S1134FE0290001F089FF32003B0002F0FFF9029A28
S1134FF0039B06000F002000290001F07DFF009AAA
S1135000019B04000D004846414601F075FF020073
S11350100B002000290002F0E9F902000B00300027
S1135020390002F0E3F902000B000498059902F03C
S1135030DDF907B00CBC90469946F0BD164B00262E
S113504004920593154FC8E700200F49F1E7C046C5
S1135050FFFF3F3ED43888BEE9FAA8BDC4B1B4BD51
S11350609EEE213EAD529C804F7E923E9015CB1910
S1135070A001FA3E7751C1166CC1563F4C555555A7
S11350805555A53F0000E03F0000F03F3233D33FC9
S11350900000E93F0000E0FF0000E73F0000D23FCE
S11350A0F0B556464D4644465F46F0B48E4CA54492
S11350B0099119001400A89A0B938C4B9200D258B2
S11350C00B000290013BE01E18211D0016000892FF
S11350D0009300F079FEC3430200DB171A4013006B
S11350E0110001330E929A009B1ADB001B190693E0
S11350F04C1B761918D4A99BA5009C46361926AFDB
S11351006544013607E0286802F01AFD013403C73C
S11351100435B44208D0002CF5DA00200021013413
S113512003C70435B442F6D1089B002B01DA00F022
S1135130F9FB76AB19008B4626AA9146089A0A9386
S11351400132D2009344029A9A469046009BDB00B7
S1135150994408339844009B002B00DAB5E14C468F
S113516000260027029D2268636803CD01F0C4FE77
S113517002000B003000390000F06EFF083C06000E
S11351800F004545EFD15346C0C39A4608239C46B9
S1135190E144DA45DFD10899554A0B00944663444B
S11351A09B0012A884461A000298624483460D921A
S11351B00B9A0433D200634493440F930591059AE8
S11351C00A98D30019000C938C46030063441E68AC
S11351D05F68002A34DD12AB99461300454A8046C5
S11351E094466344DB00984474AB9A460022424BD5
S11351F03000390001F080FE02F06CFC02F0A0FCEB
S113520000223E4B04000D0001F076FE02000B006C
S11352103000390002F0EAF802F05CFC4B4601C3AE
S11352209946434620001A685B68290000F014FF81
S113523008235B429C46E04406000F00D045D5D1CC
S1135240069B30001A003900994600F0C3FCFF2386
S113525000229B0504000D0001F04EFE00F020FC2E
S11352600022274B01F048FE02000B002000290019
S113527002F0BCF804000D0002F02CFC804602F0A1
S11352805FFC02000B002000290002F0AFF84C463E
S113529006000F00002C00DCF8E0059B18205A1EC5
S11352A0920012AB9B58001B1900014188448140B5
S11352B05B1A12A98B501722121B13410793079BE9
S11352C0002B4BDD01239C46059BE044002B00DCB6
S11352D0F2E280251096119712AB002100240948B0
S11352E06D04059F19E0C04684FDFFFF648600003D
S11352F0FEFFFF3FFFFFFF1F0000703E00007041F4
S113530000002040FFFFFF00002A02D0AA1A1A6002
S11353100134013104338F4209DD1A68002CF3D0C3
S1135320821A01311A60012404338F42F5DC109E85
S1135330119F069B002B0EDD012B00D1B1E0022B47
S113534009D1059B12A95A1E920012AB9B581093C7
S11353509B029B0A8B50079B022B7ED000230022CA
S11353603000390000F02CFE059B002800D16BE2D0
S113537008995A1E914210DCBF490F988C4612A915
S113538063448C4600219B0063441C68043B214316
S11353908342FAD1002900D0B5E0089B12AA013B50
S11353A09B00D358002B00D084E201220D9B043BC8
S11353B0596801320029FAD005990B008C46013353
S11353C062440792934242DC0E9A9446A99A63443B
S11353D092460B9A9B00944626AA90469A44059BB3
S11353E00A9A6344DB0098440C9B94469946079BB5
S11353F0E144DB00634405935346186802F0A0FBC4
S1135400434618605960009B002B23DB444600266A
S11354100027029D2268636803CD01F06DFD020040
S11354200B003000390000F017FE083C06000F00A6
S11354305D45EFD14B469E60DF6004239C460433F8
S1135440E2449C46059BE144E0449945D4D1079B42
S11354500593B4E600260027ECE732003B00002069
S1135460864901F0C3FF06000F00002C00D175E748
S1135470069A0020814900F0ADFB02000B003000C9
S1135480390001F0B3FF06000F0067E7069B002B0D
S113549012D1059B12AA013B9B00D558EB1507932B
S11354A00DE7059B12A95A1E920012AB9B5810934C
S11354B05B025B0A8B504EE70022714B00F0A4FDA7
S11354C000280ED10023079348E7534600260027FF
S11354D0C0C39A4608239C46E144DA4500D03AE624
S11354E059E601239C4601330793059BE044002BB6
S11354F000DDEEE632003B000020604901F076FF5B
S113550006000F002AE743460B93069B12A8183B9C
S1135510190006939300C3580092002B0FD15648EC
S11355201300844612A8634484469B006344043BEE
S11355305868013A18390028F9D000920691069A61
S113554000204E4900F046FB009B04000D00002B98
S113555000DAB3E112AA94469F00DB0067449C463C
S11355600A9A0593624493461600386802F0E8FAF2
S113557022002B0001F0C0FC424B3060716000221D
S11355802000290001F0B8FC083E74AB04000D00B3
S1135590043FB342E9D100239A464EAB0293089BE1
S11355A099464B4600260027002B21DB8020364BF2
S11355B05D469846C005354900260027002408E0CA
S11355C008239C460835E044A24511DB434618688D
S11355D059682A686B6801F08FFC02000B003000E8
S11355E0390000F039FD013406000F00A145E7DA67
S11355F0029A53469446DB0063441E605F600123B5
S11356009C46093BE2449C4674ABE3449B45C8D1A9
S1135610029B9946A89B022B00DD82E0002B37DC1D
S11356201DD1059B00254B441E000024326873687D
S11356302800210000F010FD009B05000C00083E2E
S11356405A1E0092F2D2079B002B03D080231B0624
S11356509C4664442A00230009990A604B60072091
S11356600B9B18409F239B009D443CBC904699464D
S1135670A246AB46F0BDC046FFFFFF3F0000F03F2F
S11356800000E03F0000703E78860000FB21F93FF7
S1135690059B00204B441E0000214CAF3268736808
S11356A0083E00F0D9FCBE42F8D1079B002B24D061
S11356B08023099A1B06CB18106053600B0002006C
S11356C04E984F9901F092FE009B002B0BDD0124B4
S11356D050AD0CCD00F0C0FC009B0134A342F8DABD
S11356E0079B002B03D080231B069C4661440B00C0
S11356F0020009998A60CB60B1E702000B00099CA3
S1135700226063600B0002004E984F9901F06EFE18
S1135710009B002BDBDC0B00020009998A60CB6044
S11357209DE7A89B032B9AD1009B002B00DCE3E0B0
S11357307E4A059B94464B441E685F68009B634405
S11357409A46DB004B4498464CAB9B4643465C6808
S11357501B681800210032003B000290039100F006
S11357607BFC04000D0002000B000298039901F079
S11357703DFE3B00320000F06FFC43469860D96068
S11357801C605D6008235B429C46E04426002F00B9
S1135790C345DBD1009B012B00DCADE0059BC84673
S11357A04B441E685F685346DB009B46D84443461F
S11357B030005C681B683900009301941A002300D0
S11357C000F04AFC04000D0002000B00009801994F
S11357D001F00CFE3B00320000F03EFC43469860B2
S11357E0D9601C605D6008235B429C46E04426004F
S11357F02F00C145DBD15D460027002408354D4408
S113580050AE2A686B683800210000F025FC083D82
S113581007000C00AE42F4D1079B002B71D080210D
S1135820099A4E9B090613604B468C465B68644498
S1135830634453604B469B68176193604B46DB6837
S113584054616344D3600AE7994643460B93069B2D
S113585030005A42390000F0BDF90022344B0400F4
S11358600D0000F0D1FB002832D0324B0022200082
S1135870290001F041FB02F02DF94A460600970089
S113588002F05EF900222A4B01F036FB02000B0005
S11358902000290001F0AAFD02F01CF912AAD0513F
S11358A04A46069B0132183300920693930012AACB
S11358B0D65044E601227FE500243AE5A89B022B5A
S11358C014DC002B0FDC00D0C9E600250024BAE666
S11358D04B46200029009E0002F0FCF812AB9851C0
S11358E04B4600932BE600200021DEE64EAB9946A2
S11358F0A89B032B00D0B2E6079B00270024002BB3
S11359008DD14E9A4F9B09990A604B604B469A6819
S1135910DB68009201938A60CB603A0023000A613D
S11359204B619CE676AB0A9335E4C046FFFFFF1F4C
S1135930000070410000703EF0B54F464646C0B4CA
S113594087B000920193464A4B00814688465B0823
S1135950934205DC02F0BEF84146031E484666D079
S11359604A4643464846414601F0C6FA04000D0043
S113597002000B004846414601F0BEFA394A3A4B50
S113598006000F002000290001F0B6FA374A384B10
S113599001F02CFD22002B0001F0AEFA354A364B03
S11359A000F05AFB22002B0001F0A6FA334A344BD4
S11359B001F01CFD22002B0001F09EFA314B324A0B
S11359C000F04AFB0E9B02900391002B34D0009808
S11359D0019900222D4B01F08FFA029A039B049047
S11359E005913000390001F087FA02000B00049899
S11359F0059901F0FBFC22002B0001F07DFA009ACE
S1135A00019B01F0F3FC224A04000D00214B3000FD
S1135A10390001F071FA02000B002000290000F0A7
S1135A201BFB02000B004846414601F0DFFC07B0B7
S1135A300CBC90469946F0BD02000B0020002900E2
S1135A4001F05AFA124A134B01F0D0FC32003B0029
S1135A5001F052FA4A46434600F0FEFAE7E7C04630
S1135A60FFFF3F3E7CD5CF5A3AD9E53DEB9C2B8ACC
S1135A70E6E55A3E7DFEB157E31DC73ED561C11927
S1135A80A0012A3F1111813FA6F810110000E03F48
S1135A90495555555555C53F49004B0819007047A0
S1135AA0454AF8B5564692464B005B0D9A444D461E
S1135AB05F4644465246F0B4894605000C000E0089
S1135AC00700132A22DC002A47DB52463B4B1341D2
S1135AD098460B0042461340034311D0384A394BD1
S1135AE000F0BAFA0022002300F084FA002805D05E
S1135AF0002C41DB4E46434600279E4338003100CC
S1135B003CBC90469946A246AB46F8BD5246332A61
S1135B1008DD8023DB009A45F2D102000B0000F07F
S1135B209BFAEDE7284A9446012263445242DA4044
S1135B3093460242E4D0224A224B00F08DFA00221E
S1135B40002300F057FA0028D8D0002C1ADB5B465B
S1135B504E469F4338003100D2E7194A194B00F0F2
S1135B607BFA0022002300F045FA0028C6D0002C5E
S1135B7016DB00270026C1E7802352465B0313414E
S1135B809944B7E75346142B12D0342352460127C5
S1135B909B1A9F407F19AF429B415B429944D6E7D1
S1135BA06400640825430027002DA7D0074EA5E70D
S1135BB0133B9C46E144CAE701FCFFFFFFFF0F00D3
S1135BC09C7500883CE4377EEDFBFFFF0000F0BFCE
S1135BD0002070474B0070B55B0D14000A00002BC9
S1135BE01AD14B005B08034315D00022224B01F06D
S1135BF083F9224B0A009C4222DB4B005B0D363BAF
S1135C001F4DE318AB4220DC002B0DDD1D4C1B05A2
S1135C1022401A43110070BD1B4DAB42F0D102006B
S1135C200B0000F019FAF6E71D00353518DA174BAA
S1135C3002009C420ADC0B001548164900F032F8B9
S1135C40134A144B01F058F9E5E702000B0012481F
S1135C50124900F027F8104A104B01F04DF9DAE729
S1135C60084C363322401B051343190000220C4B09
S1135C7001F042F9CFE7C04600005043B03CFFFFBB
S1135C80FE070000FFFF0F80FF07000050C3000065
S1135C9059F3F8C21F6EA5019C7500883CE4377E59
S1135CA00000903C30B54A00DB0FDB0752081A4372
S1135CB0110030BD002243088B4274D303098B4288
S1135CC05FD3030A8B4244D3030B8B4228D3030CC8
S1135CD08B420DD3FF22090212BA030C8B4202D36A
S1135CE01212090265D0030B8B4219D300E0090A92
