:1000000000800020211600001916000019160000BB
:1000100000000000000000000000000000000000E0
:1000200000000000000000000000000019160000A1
:10003000000000000000000019160000A5160000D6
:1000400019160000191600001916000019160000F4
:10005000191600001916000019160000BD16000040
:100060001916000059540000191600001916000056
:10007000191600001916000071540000191600002E
:1000800019160000191600001916000019160000B4
:1000900000000000191600001916000019160000D3
:1000A0001916000019160000191600001916000094
:1000B0000000000010B5064C2378002B07D1054B3B
:1000C000002B02D0044800E000BF0123237010BDC4
:1000D0001001002000000000107C0000084B10B54B
:1000E000002B03D00749084800E000BF0748036819
:1000F000002B00D110BD064B002BFBD09847F9E731
:100100000000000014010020107C00000C01002001
:100110000000000080B586B000AF7860254A7B689B
:100120001A607B6800225A607B680C337B61224B2B
:10013000BB60BB681B14DAB27B691A70BB681B1208
:10014000DAB27B695A70BB68DAB27B699A707B68F5
:100150000F333B61184BFB60FB681B14DAB23B6941
:100160001A70FB681B12DAB23B695A70FB68DAB28C
:100170003B699A707B6801229A747B6800225A61FD
:100180007B6800229A600D4B1B68002B02D10B4B41
:100190007A681A600A4B1B68002B03D0084B1B6857
:1001A0007A689A60064B7A681A607B681800BD46C8
:1001B00006B080BDF8750000FFFFFF00F4070020C7
:1001C000F807002080B584B000AF78603960002364
:1001D000FB60FB681B0CDAB20823FB181A70FB6883
:1001E0001B0ADAB20823FB185A70FB68DAB208233C
:1001F000FB189A703A680823F9187868002300F011
:1002000005F8C046BD4604B080BDC04690B587B075
:1002100000AFF860B9607A601A00FB1C1A70FB68C6
:100220001B681C681423F818FB1C1A78FB6819005B
:1002300000F03CF81423FB187A68B968F868A04706
:10024000C046BD4607B090BD80B582B000AF7860B3
:100250007B685B691800BD4602B080BD80B582B086
:1002600000AF78607B689B7C1800BD4602B080BD03
:1002700080B584B000AF786039607B680C33FB6078
:100280003B68BB60BB681B0CDAB2FB681A70BB68CA
:100290001B0ADAB2FB685A70BB68DAB2FB689A7064
:1002A0007B681800BD4604B080BDC04690B585B0DF
:1002B00000AFF860B960FB1D1A70BB680C331A0000
:1002C000BB680F331C00F868FB1D1978230000F091
:1002D00005F8F868BD4605B090BDC04680B588B049
:1002E00000AFF8607A603B600B23FB180A1C1A70A1
:1002F000FB687B611323FB1800221A701223FB1882
:1003000000221A701123FB1800221A707B69132235
:10031000BA1812781A707B691222BA1812785A70B9
:100320007B691122BA1812789A700B23FB181B787C
:10033000002B42D01F23FB1800221A701F23FB182A
:100340001B78022B39D81F23FB181A781E23FB18A1
:1003500079688A5C1A701F23FB181A781D23FB1812
:1003600039688A5C1A701E23FB181B78002B1CD07E
:100370001D23FB181B78002B17D01E23FB181B789E
:1003800001331D22BA181278013253430B22BA18D6
:1003900012785343BB61BB691B0CBB611F23FB1865
:1003A0001B78BA69D1B2FA68D1541F23FB181A78A6
:1003B0001F23FB1801321A70C0E7C046F868BD461B
:1003C00008B080BD80B582B000AF7860002318000F
:1003D000BD4602B080BDC04680B582B000AF786037
:1003E0000A00FB1C1A707B68FA1C12781A70C0464F
:1003F000BD4602B080BDC04680B584B000AFF86095
:100400007A600B23FB180A1C1A700B23FB181B784D
:100410007A685A43FB681100180000F005F8C046DE
:10042000BD4604B080BDC04680B582B000AF7860E4
:1004300039607B68044ADA607B683A689A60C04633
:10044000BD4602B080BDC0460553000080B582B0F5
:1004500000AF78607B681A787B681100180004F0A0
:100460001FFBC046BD4602B080BDC04680B584B00B
:1004700000AF78607A683B23591C03D0FA600332DE
:10048000013BF9E77B681800BD4604B080BDC0465B
:10049000B0B584B000AF2C4B180000F0F7F80400A2
:1004A000294B180000F000F9030000221900200079
:1004B00000F004F90200254B19001000FFF7D8FEE8
:1004C000234BFF211800FFF787FFFA23DA00204BA8
:1004D00005211800FFF790FF0F23FB1800221A7068
:1004E0000E23FB1800221A700D23FB1800221A702D
:1004F0003B1D0F22BA1812781A703B1D0E22BA1833
:1005000012785A703B1D0D22BA1812789A700E4B51
:10051000180000F0BBF804000B4B180000F0C4F802
:1005200003001D000823FA183B1D1100180004F0F9
:10053000BBFB0823FB181A002900200004F0DCF99B
:10054000C046BD4604B0B0BD2C010020F0B0FF0095
:10055000E407002090B58BB000AF00237B627B6A7C
:100560001D2B4DDC7B6ADB00180006F093FE0300B8
:100570000C00BB61FC61B869F96906F0D5F90300AC
:10058000D9B2394B1B68DAB21723FB1819700B2349
:10059000FB18FF2119700A23FB181A703B1D172244
:1005A000BA1812781A703B1D0B22BA1812785A70BA
:1005B0003B1D0A22BA1812789A707A6A2B4B1100E6
:1005C000180000F0ADF803003B613A693B1D1100D3
:1005D000180004F069FB7B6A3B22D31A1A00234BF4
:1005E0001100180000F09CF80300FB60FA683B1D46
:1005F0001100180004F058FB7B6A01337B62AEE700
:100600001B4B1800FFF722FF1A4B1B78002B12D050
:10061000154B1B68FE2B05DC134B1B685A1C124B39
:100620001A601AE0134B00221A700F4B1B685A1EF7
:100630000D4B1A6011E00C4B1B68002B05DD0A4BBB
:100640001B685A1E084B1A6007E00A4B01221A70F9
:10065000054B1B685A1C044B1A600A2001F0A2F8D3
:10066000C046BD460BB090BDE00100202C0100202B
:10067000E40700200400002080B582B000AF78605D
:100680007B681800BD4602B080BDC04680B582B010
:1006900000AF78607B681800FFF7EEFF03001800DA
:1006A000BD4602B080BDC04680B582B000AF786064
:1006B0003C231800BD4602B080BDC04680B584B062
:1006C00000AFF860B9607A600B4B1B6801221340E1
:1006D00006D10A4B180000F041F8074B01221A60BE
:1006E0007B68BA68F968054804F09EF903001800B1
:1006F000BD4604B080BDC04600020020E4010020D9
:1007000080B582B000AF786039603A6813005B0052
:100710009B187A68D3181800BD4602B080BDC04649
:1007200080B582B000AF786039607B683A681100AC
:100730001800FFF7E5FF03001800BD4602B080BDBA
:1007400080B582B000AF78607B68180000F030F8A8
:100750007B681800BD4602B080BDC04680B582B03F
:1007600000AF78607B68180000F010F8064A7B68DC
:100770001A607B6818331800FFF7E2FF7B681800E7
:10078000BD4602B080BDC046B075000080B582B0E5
:1007900000AF78607B681800FFF7BCFC034A7B68F9
:1007A0001A607B681800BD4602B080BDD475000099
:1007B00080B582B000AF78607B6800221A607B68E9
:1007C0001800BD4602B080BD80B582B000AF786031
:1007D00039607B68012B07D13B68054A934203D1FE
:1007E000044B1800FFF742FEC046BD4602B080BD74
:1007F000FFFF00002C01002090B58FB002AFF86021
:10080000B9607A603B60FB681800FFF727FD0300C2
:100810001C003B687A68B96814203818009400F00E
:10082000C5F9FB681B6818331B681422B918FA68ED
:1008300010009847C046BD460DB090BD90B58FB032
:1008400002AFF860B9607A603B60FB681800FFF7A0
:1008500005FD03001C003B687A68B968142038184D
:10086000009400F0DBF9FB681B6818331B68142246
:10087000B918FA6810009847C046BD460DB090BD43
:1008800080B582B000AF78607B681833180000F044
:10089000FDF9C046BD4602B080BDC04680B5A2B0DD
:1008A00000AF786039607B681833180000F0FEF9FB
:1008B0007B68180000F00EFA3B683B660123FB657D
:1008C0003B6E9A68FB6DD80FD1179A4248410300DE
:1008D000DBB2002B00D155E13B68FB67FB6F3B624D
:1008E0003B6AFB61FB691B6802331A783B6ABB6198
:1008F0001723FB181A701723FB181B78002B1BD02B
:10090000BB69997B1623FB181722BA1812781A7044
:100910001523FB180A1C1A701623FB181A781523C6
:10092000FB181B78D3183B613B69FF2B01D9FF23D0
:100930003B613B69DAB200E000223B6AFB600B23BB
:10094000FB181A70FB68197D0A23FB180B22BA18D2
:1009500012781A700923FB180A1C1A700A23FB1854
:100960001B780922BA181278013253431B12DBB2EA
:100970009AB28223FB188C490A431A807A23FB1807
:100980008222BA1812881A807A23FB181B881B123D
:10099000DBB2180000F072FA7A23FB181B88DBB276
:1009A000180000F06BFA3B687B677B6FFB63FB6BA7
:1009B000BB63BB6B1B6801331A78FB6B7B63332310
:1009C000FB181A703323FB181B78002B1BD07B6B92
:1009D000597B3223FB183322BA1812781A7031234C
:1009E000FB180A1C1A703223FB181A783123FB18E3
:1009F0001B78D318FB62FB6AFF2B01D9FF23FB6234
:100A0000FB6ADAB200E00022FB6BBB622723FB1813
:100A10001A70BB6AD97C2623FB182722BA181278D1
:100A20001A702523FB180A1C1A702623FB181B7842
:100A30002522BA181278013253431B12DBB29AB244
:100A40007823FB1812021A803B683B673B6FBB653B
:100A5000BB6D7B657B6D1B681A78BB6D3B654F2357
:100A6000FB181A704F23FB181B78002B1BD03B6D13
:100A7000197B4E23FB184F22BA1812781A704D2397
:100A8000FB180A1C1A704E23FB181A784D23FB180A
:100A90001B78D318BB64BB6CFF2B01D9FF23BB644D
:100AA000BB6CDAB200E00022BB6D7B644323FB1811
:100AB0001A707B6C997C4223FB184322BA18127877
:100AC0001A704123FB180A1C1A704223FB181B786A
:100AD0004122BA181278013253431B12DBB299B289
:100AE0007823FB187822BA1812880A431A806E23DA
:100AF000FB187822BA1812881A806E23FB181B88FC
:100B00001B12DBB2180000F0B9F96E23FB181B882A
:100B1000DBB2180000F0B2F93B68BB66BB6EDA7B53
:100B2000BB6E1B7BD31ADAB2BB6E1A73BB6E1A7C18
:100B3000BB6E5B7BD31ADAB2BB6E5A73BB6E5A7C48
:100B4000BB6E9B7BD31ADAB2BB6E9A733B6884226E
:100B5000BA1813608423FB181B681B688422BA1818
:100B60001268527D52B29A188423FB181B681A60CF
:100B70008423FB181B689B685A1E8423FB181B6880
:100B80009A6099E63B687B667B6E5A687B681100C9
:100B9000180000F0CDF87B681833180000F0ECF86E
:100BA000C046BD4622B080BD00FFFFFF80B586B0C5
:100BB00000AFF860B9607A603B60FB68BA681A60A1
:100BC000FB687A685A60FB687A689A60FB6812333F
:100BD0007B613B683B613B691A787B691A703B69B2
:100BE0005A787B695A703B699A787B699A7020239E
:100BF000FB181A78FB681100180000F0D3F8FB68A6
:100C000000225A757A68FB681100180000F0F6F8A7
:100C1000FB681800BD4606B080BDC04680B586B0F2
:100C200000AFF860B9607A603B60FB68BA681A6030
:100C3000FB687A685A60FB687A689A60FB681233CE
:100C40007B613B683B613B691A787B691A703B6941
:100C50005A787B695A703B699A787B699A7020232D
:100C6000FB181A78FB681100180000F09BF8FB686D
:100C700003225A757A68FB681100180000F0BEF86C
:100C8000FB681800BD4606B080BDC04680B582B086
:100C900000AF786000F0DAF800F0E4F87B68180044
:100CA00000F06AF8C046BD4602B080BD80B582B093
:100CB00000AF78607B681B68002B07D07B681B68DF
:100CC0001B681A687B681B6818009047C046BD46C1
:100CD00002B080BD80B584B000AF78600E23FB18F1
:100CE00000221A800E23FB181B881B12DBB218008F
:100CF00000F0C4F80E23FB181B88DBB2180000F0CC
:100D0000BDF80C23FB1800221A800C23FB181B884B
:100D10001B12DBB2180000F0B1F80C23FB181B8883
:100D2000DBB2180000F0AAF8C046BD4604B080BD92
:100D300080B584B000AF786039603B68002B00DA82
:100D40001F335B11FB60FF2000F098F8002000F0DB
:100D500095F8002000F092F8002000F08FF8FB6872
:100D60005A1EFA605A1E9341DBB2002B00D0EAE70C
:100D7000C046BD4604B080BD80B582B000AF78608B
:100D80007B681B68002B08D07B681B681B680433DA
:100D90001A687B681B6818009047C046BD4602B0C1
:100DA00080BDC04680B582B000AF78600A00FB1CF1
:100DB0001A70FB1C1B78012B04D17B68180000F013
:100DC0009FFA17E07B6800225A747B685A7C7B6824
:100DD0001A747B681A7C7B68DA737B68DA7B7B68C1
:100DE0009A737B689A7B7B685A737B685A7B7B68B3
:100DF0001A73C046C046BD4602B080BD80B584B0FF
:100E000000AF786039600023FB600023BB60BB68E3
:100E1000002B17DC7B68BA6806329200F968D15063
:100E20000122BB689A40131E08D07B685B7D5BB2D1
:100E30001A003B685343FA68D318FB60BB68013360
:100E4000BB60E4E7C046BD4604B080BD80B500AFDE
:100E500000F076FB0121062003F064FAC046BD468F
:100E600080BDC04680B500AF00F098FB012109208D
:100E700003F058FAC046BD4680BDC04680B584B078
:100E800000AF0200FB1D1A700F23FB18FA1D127829
:100E90001A700F23FB181B785BB2002B1CDADD4B9A
:100EA0001968DD4B1B68DC4A126812680A431A6035
:100EB000DA4B1968DA4B1B68D94A126812680A4380
:100EC0001A60D64B1B68D943D54B1B68D44A1268AD
:100ED00012680A401A601CE0CE4B1B68D943CE4B07
:100EE0001B68CD4A126812680A401A60CB4B196819
:100EF000CB4B1B68CA4A126812680A431A60C74B78
:100F00001B68D943C64B1B68C54A126812680A4061
:100F10001A600E23FB18FA1D12781A700E23FB18A4
:100F20001B78402213401CD0BA4B1968BA4B1B687F
:100F3000B94A126812680A431A60B84B1968B84B6C
:100F40001B68B74A126812680A431A60B34B1B68E1
:100F5000D943B34B1B68B24A126812680A401A6040
:100F60001CE0AC4B1B68D943AB4B1B68AA4A126808
:100F700012680A401A60A94B1968A94B1B68A84A55
:100F8000126812680A431A60A44B1B68D943A44B29
:100F90001B68A34A126812680A401A600D23FB18E6
:100FA000FA1D12781A700D23FB181B7820221340AB
:100FB0001CD0984B1968984B1B68974A12681268A6
:100FC0000A431A60954B1968954B1B68944A12683E
:100FD00012680A431A60914B1B68D943904B1B68F7
:100FE0008F4A126812680A401A601CE0894B1B681D
:100FF000D943894B1B68884A126812680A401A60F4
:10100000864B1968864B1B68854A126812680A432A
:101010001A60824B1B68D943814B1B68804A126857
:1010200012680A401A600C23FB18FA1D12781A7015
:101030000C23FB181B78102213401CD0754B196829
:10104000754B1B68744A126812680A431A60734B26
:101050001968734B1B68724A126812680A431A6057
:101060006E4B1B68D9436E4B1B686D4A1268126841
:101070000A401A601CE0674B1B68D943664B1B682B
:10108000654A126812680A401A60644B1968644B1A
:101090001B68634A126812680A431A605F4B1B6838
:1010A000D9435F4B1B685E4A126812680A401A6097
:1010B0000B23FB18FA1D12781A700B23FB181B78F0
:1010C000082213401CD0534B1968534B1B68524ADB
:1010D000126812680A431A60504B1968504B1B681B
:1010E0004F4A126812680A431A604C4B1B68D94376
:1010F0004B4B1B684A4A126812680A401A601CE08F
:10110000444B1B68D943444B1B68434A126812681E
:101110000A401A60414B1968414B1B68404A1268EB
:1011200012680A431A603D4B1B68D9433C4B1B684D
:101130003B4A126812680A401A600A23FB18FA1D1B
:1011400012781A700A23FB181B78042213401CD053
:10115000304B1968304B1B682F4A126812680A43DB
:101160001A602E4B19682E4B1B682D4A12681268A4
:101170000A431A60294B1B68D943294B1B68284A2C
:10118000126812680A401A601CE0224B1B68D9439F
:10119000214B1B68204A126812680A401A601F4BD4
:1011A00019681F4B1B681E4A126812680A431A60AE
:1011B0001A4B1B68D9431A4B1B68194A12681268EC
:1011C0000A401A600923FB18FA1D12781A700923C5
:1011D000FB181B780222134024D00E4B19680E4BCB
:1011E0001B680D4A126812680A431A600B4B196893
:1011F0000B4B1B680A4A126812680A431A60074BB5
:101200001B68D943064B1B68054A126812680A40DE
:101210001A6024E0040200200802002010020020CE
:1012200014020020324B1B68D943324B1B68314AF1
:10123000126812680A401A602F4B19682F4B1B68FE
:101240002E4A126812680A431A602B4B1B68D94356
:101250002A4B1B68294A126812680A401A60082340
:10126000FB18FA1D12781A700823FB181B7801224C
:1012700013401CD01E4B19681E4B1B681D4A126878
:1012800012680A431A601C4B19681C4B1B681B4AE6
:10129000126812680A431A60174B1B68D943174B30
:1012A0001B68164A126812680A401A601CE0104B4C
:1012B0001B68D9430F4B1B680E4A126812680A401C
:1012C0001A600D4B19680D4B1B680C4A12681268A6
:1012D0000A431A60084B1B68D943084B1B68074A2E
:1012E000126812680A401A60C046BD4604B080BD4C
:1012F0000402002008020020100200201402002036
:1013000080B586B000AF78608C4B1B780133DAB2C1
:101310008A4B1A700F23FB1803221A700F23FB1835
:101320001B7801229A401300DBB2013BDBB25BB2B7
:10133000824A127852B213405BB2DAB27F4B1A7013
:101340001723FB1800221A707C4B1B781A0001230C
:10135000134008D01723FB181722BA1812788021DF
:1013600049420A431A70754B1B781A000223134036
:1013700007D01723FB181722BA18127840210A4306
:101380001A706E4B1B781A000423134007D01723E2
:10139000FB181722BA18127820210A431A70674BDB
:1013A0001B781A000823134007D01723FB181722B5
:1013B000BA18127810210A431A70604B1B781A0071
:1013C0001023134007D01723FB181722BA181278DE
:1013D00008210A431A70594B1B781A002023134026
:1013E00007D01723FB181722BA18127804210A43D2
:1013F0001A70524B1B781A004023134007D0172352
:10140000FB181722BA18127802210A431A704B4BA4
:101410001B785BB2002B07DA1723FB181722BA18C8
:10142000127801210A431A700F23FB181B78072B2F
:101430000FD80F23FB181B780722D31A01229A40DA
:101440001300D9B21723FB181722BA1812788A187A
:101450001A7000233B613B69022B6BDC0E23FB18E7
:1014600079683A698A18123212781A700E23FB18BA
:101470001B78002B0CD00E23FB181B78190080233F
:10148000580005F027F90300DBB20133D9B200E0C0
:1014900000217A683B69D3180F330A1C1A707A68E6
:1014A0003B69D3180F3319780D23FB181722BA188C
:1014B00012781A700C23FB180A1C1A700D23FB18E3
:1014C0001B780C22BA181278013253431B12D9B27E
:1014D0007A683B69D3180C330A1C1A707A683B6926
:1014E000D3180C331B78002B0CD07A683B69D318C7
:1014F0000C331B78013BD9B27A683B69D3180C33A3
:101500000A1C1A707A683B69D3180F331B78002BBA
:101510000CD07A683B69D3180F331B78013BD9B2E2
:101520007A683B69D3180F330A1C1A703B69013380
:101530003B6190E7C046BD4606B080BD1C0200205E
:1015400080B500AF104B94229B5801229A401300A3
:101550001A000E4B1A600C4B90229B56DB010C4A72
:101560009446634410331A000A4B1A60064B9022CB
:101570009B56DB01064A9446634420331A00064B0F
:101580001A60C046BD4680BDF87600000402002007
:1015900000440041080200200C02002080B500AF8A
:1015A000104BDC229B5801229A4013001A000E4B6C
:1015B0001A600C4BD8229B56DB010C4A94466344BC
:1015C00010331A000A4B1A60064BD8229B56DB01D7
:1015D000064A9446634420331A00064B1A60C046FC
:1015E000BD4680BDF8760000100200200044004196
:1015F000140200201802002080B500AF034B190030
:101600000120FFF7E1F8BD4680BDC046FFFF0000A6
:1016100080B500AFFEE7C04680B500AF03BEFEE771
:1016200080B582B000AF1A4B7B601A4B3B60194A01
:10163000194B9A4212D07A683B689A420ED009E060
:101640007B681A683B681A603B6804333B607B68C0
:1016500004337B603A68104B9A42F1D30D4A0E4B2B
:101660009A4210D07A683B689A420CD00B4B3B6090
:1016700005E03B6800221A603B6804333B603A682F
:10168000074B9A42F5D300F03BF900F0C5F8FEE7AE
:10169000887C0000000000201001002010010020C4
:1016A000E409002080B500AF00F0AAF8031E02D1C3
:1016B00000F092F800E0C046BD4680BD80B500AFA6
:1016C000044B1B68002B02D0024B1B689847C04696
:1016D000BD4680BD2002002080B582B000AF78609A
:1016E000034B7A681A60C046BD4602B080BDC04652
:1016F0002002002080B500AF024B1B681800BD46D9
:1017000080BDC0462402002080B586B000AF214BCA
:101710009B687B61204B5A688023DB0413405A1E70
:101720009341DBB23B611D4B1B68FB607B69BB6077
:101730003B697B60FB683B60164B9B687B61164B8B
:101740005A688023DB0413405A1E9341DBB23B618D
:10175000124B1B68FB607A683B699A42E6D13A6893
:10176000FB689A42E2D1BA687B699A42DED33A6852
:101770007B68D318FA2292005A43064B5968BB681B
:10178000CB1A07494B431B0DD3181800BD4606B0B2
:1017900080BDC04610E000E000ED00E02402002023
:1017A0005555000080B584B000AF78607B68002B91
:1017B0000CD0084B1B68FB6000F01CF8054B1A6846
:1017C000FB68D21A7B689A42F6D300E0C046BD4659
:1017D00004B080BD2402002080B500AF044B1B681C
:1017E0005A1C034B1A6000F071F8C046BD4680BD1C
:1017F0002402002080B500AFC046BD4680BDC04673
:1018000080B500AF00231800BD4680BD80B500AF95
:10181000C046BD4680BDC04680B500AF02F092FC18
:1018200005F0A6FDFFF7F2FF0120FFF7BBFF094B14
:10183000180001F04BFC074B180001F0E1FCFEF72B
:1018400027FEFEF787FE044B002BFAD000E000BF16
:10185000F7E7C046E00700200000000080B500AFB9
:10186000BFF34F8F024B034ADA60BFF34F8FFEE79F
:1018700000ED00E00400FA0580B500AF054B1B7DCC
:10188000DBB21A00012313405A1E9341DBB2180049
:10189000BD4680BD0040004180B582B000AF786099
:1018A000034B7A681A60C046BD4602B080BDC04690
:1018B0000800002080B500AF034B012252421A609D
:1018C000C046BD4680BDC0460800002080B500AFC0
:1018D000094B1B6801330BD0074B1B685A1E064B84
:1018E0001A60054B1B68002B03D1044B984700E09E
:1018F000C046BD4680BDC04608000020157C0000E3
:1019000080B582B000AF754A53681E218B43022117
:101910000B435360724B724A926908210A439A61E1
:10192000704B714A9A826F4A938A02210B439382C9
:10193000C0466C4BDB6802221340FAD06B4B01228D
:101940001A70C046694B1B78DBB21A0001231340A2
:1019500005D0664B5B78DBB25BB2002BF2DB634BEE
:1019600001229A60C046614B5B78DBB25BB2002B10
:10197000F9DB5E4B5E4A5A60C0465C4B5B78DBB27B
:101980005BB2002BF9DB594B8222D2015A80C04650
:10199000564B5B78DBB25BB2002BF9DB514B02227A
:1019A0009A84C0464F4BDB6810221340FAD04D4B4F
:1019B000504ADA62C0464B4BDB6810221340FAD023
:1019C000484A484B9B8C9BB24B490B439BB2938438
:1019D000C046444BDB6810221340FAD0414A414BC9
:1019E0009B8C9BB202210B439BB29384C0463D4B20
:1019F000DB6880221340FAD03A4BDB684022134068
:101A0000F5D0C046374BDB6810221340FAD0374B75
:101A100000229A60C046354B5B78DBB25BB2002B8C
:101A2000F9DB324B354A5A60C046304B5B78DBB24B
:101A30005BB2002BF9DB2B4A136A31490B4013626E
:101A4000284A136A80218B431362284B03229A6031
:101A5000264B2C4A5A60C046244B5B78DBB25BB203
:101A6000002BF9DB1E4B00221A721D4B00225A720A
:101A70001B4B00229A721A4B0022DA72224B234A25
:101A80001A60234B1B68DB08072213407B60214B45
:101A90001B68DB0E3B601E4B1B685B01FF22134083
:101AA0003A6813433B601C497B689BB21B029AB2A5
:101AB000E023DB0013409AB23B689BB2FF20034057
:101AC0009BB213439BB20B85044A536880210B439E
:101AD0005360C046BD4602B080BDC04600400041D4
:101AE00000040040000800400C060000000C00400C
:101AF00001050100B805FF7D040A0000000703008E
:101B0000FFFCFFFF0306010034000020006CDC0234
:101B100024608000206080000040004280B582B0D8
:101B200000AF0200FB1D1A70064BFA1D127811005F
:101B30001F220A40012191400A001A60C046BD469A
:101B400002B080BD00E100E0B0B582B000AF02009D
:101B50003960FB1D1A70FB1D1B787F2B32D92F4C6F
:101B6000FB1D1B781A000F231340083B99082B4AD2
:101B7000FB1D1B7818000F230340083B9B0806330E
:101B80009B00D31804331B68FA1D1278100003223F
:101B90000240D200FF2090400200D2431A403B682E
:101BA0009B01FF201840FB1D1B781D0003232B40C9
:101BB000DB00984003001A438B1D9B00E31804339D
:101BC0001A6027E0164CFB1D1B785BB29B0814497A
:101BD000FA1D127852B29208C03292005258F91D82
:101BE0000978080003210140C900FF208840010056
:101BF000C94311403A689201FF201040FA1D127843
:101C0000150003222A40D200904002000A43C0334C
:101C10009B001A51C046BD4602B0B0BD00ED00E0C9
:101C200000E100E080B582B000AF78607B6818000A
:101C3000BD4602B080BDC04680B582B000AF7860BE
:101C40007B681800BD4602B080BDC046B0B582B00A
:101C500000AF78607B6801241D00631C05D028005C
:101C6000FFF7EAFF1035013CF7E77B681800BD4637
:101C700002B0B0BDB0B582B000AF78607B68094AF1
:101C80001A607B68043307241D00631C05D02800FC
:101C9000FFF7DCFF2035013CF7E77B681800BD4605
:101CA00002B0B0BD0050004180B582B000AF786096
:101CB0007B681A68137802210B431370C046BD4637
:101CC00002B080BD80B582B000AF78607B681A68D2
:101CD00013787F210B401370C046BD4602B080BD13
:101CE00080B582B000AF78607B681A6813780421F1
:101CF0000B431370C046BD4602B080BD80B582B0B4
:101D000000AF78607B681A6813890C218B431381BC
:101D1000C046BD4602B080BD80B582B000AF7860DD
:101D20007B681A68138901218B431381C046BD4625
:101D300002B080BD80B582B000AF78607B681B6860
:101D40009B8B1B07DB0FDBB21800BD4602B080BDCA
:101D500080B582B000AF78607B681B6808229A83E8
:101D6000C046BD4602B080BD80B582B000AF78608D
:101D70007B681A68138B08210B431383C046BD464A
:101D800002B080BD80B582B000AF78607B681B6810
:101D90009B8B5B07DB0FDBB21800BD4602B080BD3A
:101DA00080B582B000AF78607B681B6804229A839C
:101DB000C046BD4602B080BD80B582B000AF78603D
:101DC0007B681A68138B04210B431383C046BD46FE
:101DD00002B080BD90B583B000AF786008001100FC
:101DE000FB1C021C1A70BB1C0A1C1A707B681A6848
:101DF000FB1C1B78B91C097807200140C8B20833C6
:101E000059018B5C0724044007208343181C231CC2
:101E100003438B54C046BD4603B090BD90B583B01C
:101E200000AF786008001100FB1C021C1A70BB1C7C
:101E30000A1C1A707B681A68FB1C1B78B91C09788D
:101E400007200140C8B2083359018B5C07242040A9
:101E5000040170208343181C231C03438B54C04689
:101E6000BD4603B090BDC04680B582B000AF78607B
:101E70007B681B681B8C9BB21800BD4602B080BDFE
:101E800080B582B000AF78600A00FB1C1A707B68D6
:101E90001A68FB1C1B7808335B01D318DB79DB065F
:101EA000DB0FDBB21800BD4602B080BD80B582B04A
:101EB00000AF78600A00FB1C1A707B681A68FB1C74
:101EC0001B7808335B01D318DB795B06DB0FDBB2D1
:101ED0001800BD4602B080BD80B582B000AF78600A
:101EE0000A00FB1C1A707B681A68FB1C1B780833FD
:101EF0005B01D318DB79DB07DB0FDBB21800BD46D3
:101F000002B080BD80B582B000AF78600A00FB1CD3
:101F10001A707B681A68FB1C1B7808335B01D318A6
:101F2000DB799B07DB0FDBB21800BD4602B080BD3A
:101F300080B582B000AF78600A00FB1C1A707B6825
:101F40001A68FB1C1B7808335B01D3180733102277
:101F50001A70C046BD4602B080BDC04680B582B092
:101F600000AF78600A00FB1C1A707B681A68FB1CC3
:101F70001B7808335B01D318073340221A70C04620
:101F8000BD4602B080BDC04680B582B000AF78606B
:101F90000A00FB1C1A707B681A68FB1C1B7808334C
:101FA0005B01D318073301221A70C046BD4602B048
:101FB00080BDC04680B582B000AF78600A00FB1CCF
:101FC0001A707B681A68FB1C1B7808335B01D318F6
:101FD000073302221A70C046BD4602B080BDC0461B
:101FE00080B582B000AF78600A00FB1C1A707B6875
:101FF0001968FB1C1A7884235B0052018A18D218D6
:10200000537810210B435370C046BD4602B080BDCB
:1020100080B582B000AF78600A00FB1C1A707B6844
:102020001968FB1C1A7884235B0052018A18D218A5
:10203000537801210B435370C046BD4602B080BDAA
:1020400080B582B000AF78600A00FB1C1A707B6814
:102050001968FB1C1A7884235B0052018A18D21875
:10206000537802210B435370C046BD4602B080BD79
:1020700080B582B000AF78600A00FB1C1A707B68E4
:102080001968FB1C1A7884235B0052018A18D21845
:10209000137840210B431370C046BD4602B080BD8B
:1020A00080B582B000AF78600A00FB1C1A707B68B4
:1020B0001968FB1C1A7884235B0052018A18D21815
:1020C000137801210B431370C046BD4602B080BD9A
:1020D00080B582B000AF78600A00FB1C1A707B6884
:1020E0001A68FB1C1B7808335B01D3189B795B06CD
:1020F000DB0FDBB21800BD4602B080BD80B582B0F8
:1021000000AF78600A00FB1C1A707B681A68FB1C21
:102110001B7808335B01D3189B791B06DB0FDBB2FE
:102120001800BD4602B080BD80B582B000AF7860B7
:102130000A00FB1C1A707B681A68FB1C1B780833AA
:102140005B01D218537940210B435371C046BD4601
:1021500002B080BD80B582B000AF78600A00FB1C81
:102160001A707B681A68FB1C1B7808335B01D21855
:102170005379802149420B435371C046BD4602B09A
:1021800080BDC04680B582B000AF78600A00FB1CFD
:102190001A707B681A68FB1C1B7808335B01D21825
:1021A000137940210B431371C046BD4602B080BD78
:1021B00080B582B000AF78600A00FB1C1A707B68A3
:1021C0001A68FB1C1B7808335B01D2181379802135
:1021D00049420B431371C046BD4602B080BDC046A4
:1021E00080B582B000AF78600A00FB1C1A70FB1C3F
:1021F0001B787A685B01D3189B689B049B0C9BB28D
:102200001800BD4602B080BD80B582B000AF7860D6
:1022100008001100FB1C021C1A703B000A1C1A80EB
:10222000FB1C1B783A0012889204920C91B27A68D7
:102230005B01D3189A688904890C920B92030A43B4
:102240009A60C046BD4602B080BDC04680B582B02F
:1022500000AF786008001100FB1C021C1A703B00E4
:102260000A1C1A80FB1C1B783A0012889204920CFC
:1022700091B27A685B01D31810339A688904890C8B
:10228000920B92030A439A60C046BD4602B080BDDD
:1022900080B582B000AF786008001100FB1C021C02
:1022A0001A703B000A1C1A80FB1C1B783A0012882B
:1022B0009204920C91B27A685B01D3189A688904EF
:1022C000890C8903034802400A439A60C046BD4610
:1022D00002B080BDFF3F00F080B582B000AF7860F3
:1022E00008001100FB1C021C1A703B000A1C1A801B
:1022F000FB1C1B783A0012889204920C91B27A6807
:102300005B01D31810339A688904890C8903044847
:1023100002400A439A60C046BD4602B080BDC04636
:10232000FF3F00F080B584B000AFF8607A600B2307
:10233000FB180A1C1A700B23FB181B787A68F968C3
:102340005B01CB1804331A60C046BD4604B080BDA3
:1023500080B584B000AFF8607A600B23FB180A1CCC
:102360001A700B23FB181B787A68F9685B01CB188D
:1023700014331A60C046BD4604B080BD90B583B02A
:1023800000AF786008001100FB1C021C1A703B00B3
:102390000A1C1A80FB1C1C783B001A887B68110001
:1023A000180000F043F803001A1C07231340D9B2A9
:1023B0007A686301D3189A68072001400907044826
:1023C00002400A439A60C046BD4603B090BDC04675
:1023D000FFFFFF8F90B583B000AF78600800110059
:1023E000FB1C021C1A703B000A1C1A80FB1C1C7888
:1023F0003B001A887B681100180000F017F80300F2
:102400001A1C07231340D9B27A686301D31810331A
:102410009A68072001400907034802400A439A606E
:10242000C046BD4603B090BDFFFFFF8F80B582B0B0
:1024300000AF78600A00BB1C1A80BB1C1B88402BB5
:1024400020D006DC102B19D0202B19D0082B13D04C
:1024500022E080225200934218D080225200934200
:1024600002DC802B10D017E08022920093420FD024
:102470000C4A93420ED00FE000230EE001230CE043
:1024800002230AE0032308E0042306E0052304E016
:10249000062302E0072300E000231800BD4602B037
:1024A00080BDC046FF03000080B582B000AF7860F9
:1024B0007B681A68137801210B4313707B68181D21
:1024C00080235B001A00002104F095FF7B681B68E5
:1024D0009B78DB07DB0FDBB2002B00D0F6E77B68D5
:1024E0001B687A6804325A62C046BD4602B080BD9D
:1024F00080B588B000AF7860314B3B61304BFB60FA
:102500002F4BBB603B691B685B0B1F221340FB61B9
:10251000FB681B689B0C1F221340BB61BB681B68D8
:10252000DB0D072213407B61FB691F2B01D10523C3
:10253000FB61BB691F2B01D11D23BB617B69072B8D
:1025400001D103237B617B681A68FB69DBB2191C2C
:102550001F230B40D9B2138D081C1F210140880195
:1025600018490B40191C031C0B4313857B681A6820
:10257000BB69DBB2191C1F230B40D9B2138D081C99
:102580001F2108401F218B43191C031C0B4313857B
:102590007B681A687B69DBB2191C07230B40D9B230
:1025A000138D081C07210140080307490B40191C23
:1025B000031C0B431385C046BD4608B080BDC04612
:1025C000246080003FF8FFFFFF8FFFFF80B584B0DD
:1025D00000AF7860EFF31083FB60FA687B681A60E5
:1025E0007B6801225A6072B67B681800BD4604B051
:1025F00080BDC04680B582B000AF78607B681B6844
:10260000002B02D162B6BFF36F8F7B681800BD4606
:1026100002B080BD80B582B000AF78607B685A6838
:10262000511E7B68596013001800BD4602B080BD82
:1026300080B582B000AF7860034A7B681A607B681F
:102640001800BD4602B080BDA076000080B584B001
:1026500000AFF860B9607A603B60FB681800FFF774
:10266000E7FF304AFB681A60FB68BA685A60FB688B
:102670007A689A60FB683A68DA60FB6800221A613F
:10268000FB6800225A61FB680022DA61FB680022C5
:102690001A62FB68242200219954FB680022DA6246
:1026A000FB6800221A63FB68342200219954FB68FE
:1026B000352200219954FB68DB68180004F07EFE87
:1026C00003001A00FB689A61FB68DB68180004F0DD
:1026D00075FE03001A00FB689A62FB685868FB6885
:1026E0009B68DBB240221900FFF748FEFB68586880
:1026F000FB689B68DBB203221900FFF76BFBFB68EA
:102700005868FB689B68D9B2FB689B691A00FFF7A1
:1027100009FEFB68180000F039FAFB681800BD4696
:1027200004B080BD8C760000B0B590B000AFF8600A
:10273000B9607A60BB687B63FB681B69002B00D0C3
:1027400082E02C23FB181800FFF740FF2C23FB1816
:102750001800FFF75FFF03005A1E9341DBB2002B06
:102760000BD0FB6824229B5CDBB201225340DBB21E
:10277000002BEBD00024002500E001252C23FB18C2
:102780001800FFF737FF012D00D0DEE0C046002320
:10279000FB63FA6B7B689A4207D2FB68DA69FB68D5
:1027A0001B6A9A4201D2012300E00023002B11D0C2
:1027B0007A6BFB6BD118FB689869FB68DB695C1C62
:1027C000FA68D461C3181B78DBB20B70FB6B013362
:1027D000FB63DEE7FB68DA69FB681B6AD31A5A42BF
:1027E0005341DBB2002B2DD0FB680022DA61FB687D
:1027F00001221A612423FB181800FFF7E7FE2423A7
:10280000FB181800FFF706FF03005A1E9341DBB2C6
:10281000002B12D0FB68242200219954FB6835223A
:102820009B5CDBB2002BEAD0FB6835220021995477
:10283000FB68180000F0AAF9E1E72423FB18180050
:10284000FFF7D8FEFC6B80E01C23FB181800FFF795
:10285000BDFE1C23FB181800FFF7DCFE03005A1E08
:102860009341DBB2002B0BD0FB6834229B5CDBB2C4
:1028700001225340DBB2002BEBD00024002500E006
:1028800001251C23FB181800FFF7B4FE012D5CD1B5
:10289000C0460023BB63BA6B7B689A4207D2FB68D1
:1028A000DA6AFB681B6B9A4201D2012300E0002325
:1028B000002B11D07A6BBB6BD118FB68986AFB6850
:1028C000DB6A5C1CFA68D462C3181B78DBB20B703D
:1028D000BB6B0133BB63DEE7FB68DA6AFB681B6B2B
:1028E000D31A5A425341DBB2002B2DD0FB68002291
:1028F000DA62FB6800221A611423FB181800FFF744
:1029000065FE1423FB181800FFF784FE03005A1E0F
:102910009341DBB2002B12D0FB6834220021995482
:10292000FB6835229B5CDBB2002BEAD0FB683522CA
:1029300000219954FB68180000F028F9E1E71423FE
:10294000FB181800FFF756FEBC6B23001800BD46AD
:1029500010B0B0BD90B587B000AF78607B685A68A2
:102960007B689B68DBB219001000FFF7B5FA031E05
:1029700000D1A1E07B685A687B689B68DBB21900D4
:102980001000FFF701FB7B685B69002B47D17B6878
:102990005A687B689B68DBB219001000FFF720FCC7
:1029A00003001A007B681A627B6801225A617B6807
:1029B00058687B689B68D9B27B689B6A1A00FFF7EE
:1029C000B1FC7B682422012199541023FB181800C4
:1029D000FFF7FCFD1023FB181800FFF71BFE030098
:1029E0005A1E9341DBB2002B10D07B6834229B5CD3
:1029F000DBB2002B05D07B683522012199540024DD
:102A000005E07B68352200219954E3E70124102377
:102A1000FB181800FFF7EEFD012C48D04CE07B6856
:102A20005A687B689B68DBB219001000FFF7D8FB7F
:102A300003001A007B681A637B6800225A617B6876
:102A400058687B689B68D9B27B689B691A00FFF75E
:102A500069FC0823FB181800FFF7B8FD0823FB18D2
:102A60001800FFF7D7FD03005A1E9341DBB2002B7D
:102A700014D07B683422012199547B6824229B5C0A
:102A8000DBB2002B05D07B6835220121995400244C
:102A900005E07B68352200219954DFE701240823F3
:102AA000FB181800FFF7A6FD012C05D100E0C04679
:102AB0007B68180000F06AF8BD4607B090BDC046BC
:102AC00080B588B000AF78607B681B69002B2CD183
:102AD0001F23FB1800221A701423FB181800FFF79D
:102AE00075FD1423FB181800FFF794FD03005A1E10
:102AF0009341DBB2002B06D01F23FB187A682421F8
:102B0000525C1A70EDE71423FB181800FFF772FDF2
:102B10001F23FB181B78002B05D07B681A6A7B6883
:102B2000DB69D31A2DE000232BE01E23FB180022C3
:102B30001A700C23FB181800FFF748FD0C23FB1834
:102B40001800FFF767FD03005A1E9341DBB2002B0C
:102B500006D01E23FB187A683421525C1A70EDE708
:102B60000C23FB181800FFF745FD1E23FB181B78EC
:102B7000002B05D07B681A6B7B68DB6AD31A00E0F8
:102B800000231800BD4608B080BDC04680B582B0A5
:102B900000AF78607B685A687B689B68DBB219007D
:102BA0001000FFF735FA7B6858687B689B68D9B2DC
:102BB0007B68DB689BB21A00FFF76AFB7B6858688A
:102BC0007B689B68DBB200221900FFF71DFB7B6866
:102BD0005A687B689B68DBB219001000FFF7D2FAD5
:102BE000C046BD4602B080BD80B500AF034B1800A3
:102BF00001F0B0F8C046BD4680BDC046E0070020E9
:102C0000F0B58DB000AFF861B96111001722BA18A4
:102C100011706A463A611722BA181278012A01D84F
:102C2000002391E01722BA181278013ABA62110013
:102C30000131B9600021F960B968490FF868C60030
:102C40000E43B968CD00110001313960002179606F
:102C50003D687E682900490F3000C4000C432900FC
:102C6000CB00130001330733DB08DB006A46D31ABD
:102C70009D466B4600337B62BB69180004F072FC12
:102C800003000133DBB2DB18DAB27B6A1A707B6AAD
:102C900003225A701F2310229446BC44634402222C
:102CA0001A701F231022BA18D2181723FB18127893
:102CB0001B789A4239D2BB691B78002B35D01F2371
:102CC00010229446BC4463441B781F2210218C467A
:102CD000BC446244591C11701900BB695A1CBA618A
:102CE0001A787B6A5A541F231022BA18D218172355
:102CF000FB1812781B789A4216D01F231022944694
:102D0000BC4463441B787A6A0021D1541F231022EB
:102D10009446BC4463441A781F2310218C46BC445B
:102D2000634401321A70BCE7C046796A1F2310223F
:102D30009446BC4463441A78064B180000F0BEFE6B
:102D400003005A1E9341DBB23A6995461800BD460E
:102D50000DB0F0BDE007002080B582B000AF786014
:102D60000A00FB1C1A70FB1C1B78002B06D00B4BB7
:102D700001221A700A4B00221A800AE0074B002237
:102D80001A70074B1B881A0006497B68180000F070
:102D900095FEC046BD4602B080BDC046D5060020A7
:102DA000D6060020D806002080B584B000AF786039
:102DB00039600F23FB1800221A700F23FB1818002C
:102DC00003F038F902003B681B689A183B681A60E8
:102DD00003F012FB02000F23FB181900100003F090
:102DE00079FA02003B681B689A183B681A600F2347
:102DF000FB181B781800BD4604B080BD90B589B0A3
:102E000000AF786039600023BB61334B01221A7038
:102E10001F23FC181823FA187B6811001800FFF70D
:102E2000C3FF030023700C23FB18180009231A00AA
:102E3000002104F0E0FA0C23FB1809221A700C237D
:102E4000FB1802225A700C23FB1801225A710C2322
:102E5000FB18A022DA710C23FB18FA221A7209223D
:102E6000BB699BB2D3189AB20C23FB185A800C236F
:102E7000FB181F22BA1812781A71174B00221A7009
:102E80003B68092B08D10C23F9187B68092218002C
:102E900000F014FE01231AE00023BB617B680121CE
:102EA0001800FFF759FF0C23F9187B680922180056
:102EB00000F004FE1823FA187B6811001800FFF7D1
:102EC00073FF7B6800211800FFF746FF01231800FD
:102ED000BD4609B090BDC046D406002080B590B074
:102EE00000AF786039603723FB183A68D2781A70DF
:102EF0003F23FB1800221A700023BB633723FB1803
:102F00001B78022B0CD13B68DB881A00544B110054
:102F10001800FFF773FF03005A1E9341DBB29BE0DA
:102F200003F06AFA02003B681900100003F0FCF994
:102F300003003B633B6B002B05D03B6BDA17D31AC6
:102F4000DB0FDBB288E03723FB181B78012B1DD188
:102F50003B68DB88082B03D13E23FB1801221A7043
:102F60003E23FB181B78002B01D03E4B00E03E4B6C
:102F7000BB63BB6B1B789AB23B68DB889A4253D920
:102F80003B68DA883F23FB181A704DE03723FB18A3
:102F90001B78032B48D13B689B78002B09D1334B1E
:102FA000BB63BB6B1B789AB23B68DB889A423BD908
:102FB00035E03B689B78022B09D13B68DB88DAB2AD
:102FC0002B497B681800FFF71BFE030044E03B68B9
:102FD0009B78012B09D13B68DB88DAB225497B68F5
:102FE0001800FFF70DFE030036E03B689B78032BCB
:102FF00013D103F001FA02000C23FB181900100092
:1030000003F0B6F93B68DB88DAB20C23F9187B6869
:103010001800FFF7F5FD03001EE000231CE03B68ED
:10302000DA883F23FB181A70BB6B002B01D10023F9
:1030300012E03F23FB181B78002B04D13F23FB1821
:10304000BA6B12781A703F23FB181A78B96B7B6839
:10305000180000F033FD01231800BD4610B080BDFC
:10306000E00700202C76000040760000107600007B
:10307000147600002076000080B582B000AF786042
:103080000A00FB1C1A70FB1C1B78032B09D10E4B8A
:1030900003211800FFF78CF80B4B03211800FEF7F3
:1030A00089FFFB1C1B78012B09D1074B012118005C
:1030B000FFF77EF8044B01211800FEF77BFFC046A6
:1030C000BD4602B080BDC0462802002080B582B057
:1030D00000AF7860424B00221A7001211A2001F0E3
:1030E00021F901211A2001F047FA3E4B00221A7003
:1030F0000121192001F016F90121192001F03CFAF3
:10310000394B394AD26920210A43DA6137495822BA
:103110008B5C012003438B54344A34493C23CB5C01
:10312000DBB20F218B43D9B23C23D1542F4A2F4914
:103130003C23CB5CDBB206210B43D9B23C23D154F8
:103140002A4959228B5C012003438B54274A274983
:103150003C23CB5CDBB20F210B40D9B23C23D154D2
:10316000224A22493C23CB5CDBB260210B43D9B21B
:103170003C23D1541E4B1F4A5A801D4B5B781B06C3
:10318000DB0FDBB2002B00D0F7E71B4B1800FEF77C
:10319000A3FA1A4B1800FFF787F9184B1800FFF72E
:1031A000A7F9164B1800FEF78DFD144B1800FEF71B
:1031B00097FD124B1800FEF7A1FD00210720FEF736
:1031C000C3FC0720FEF7AAFC0C4B1800FEF76CFDB1
:1031D0007B6801221A70C046BD4602B080BDC04661
:1031E0002C0300202D030020000400400044004177
:1031F000000C004006400000E92B000028020020DF
:1032000080B582B000AF78607B681B7801225340A4
:10321000DBB2002B01D000230FE00A4B1800FEF7B1
:103220007BFD084B1800FEF79FFD064B1800FEF7CC
:10323000C3FD054B00221A6001231800BD4602B0F1
:1032400080BDC046280200203003002080B582B037
:1032500000AF786039601B4B002200211800FEF798
:10326000F5FF184B00211800FEF7A4FE154B0021B6
:103270001800FEF76FFF134B00211800FEF742FE07
:1032800003001A0001235340DBB2002B00D0F2E709
:103290000D4A3B68DBB2191C7F230B40D9B2937AED
:1032A0007F2008407F218B43191C031C0B43937222
:1032B000054A937A802149420B439372C046BD462A
:1032C00002B080BD280200200050004190B585B0BA
:1032D00000AF786039603B689A880F23FB181A703A
:1032E0000F23FB181B78002B11D13B68180002F04C
:1032F000BBFE03001A0001235340DBB2002B04D0B5
:103300007B680021180000F029FC01231BE003F07A
:1033100073F802000E23FC183B681900100003F03C
:103320004BF8030023700E23FB181B780122534037
:10333000DBB2002B04D07B680021180000F00EFCEB
:103340000E23FB181B781800BD4605B090BDC04683
:1033500080B584B000AF78600F23FB1801221A708B
:103360000F23FB181B78282B1CD20F23FB181A786D
:103370000E4B9200D358002B14D00F23FB18197852
:103380000F23FB181A78094B9200D2587B6818005B
:1033900000F00EF80F23FB181A780F23FB180132E8
:1033A0001A70DDE7C046BD4604B080BD0C000020A9
:1033B00090B585B000AFF860B9607A607B68832B08
:1033C00018D1BB68D9B24B4B40221800FFF702F866
:1033D000BB68D9B2BB689A01474BD218454B18005D
:1033E000FEF7B6FFBB68D9B2424B04221800FEF7C5
:1033F00015FD7BE07B68022B10D1382002F0F2F83B
:1034000003001C0080235B00BA683A492000FFF7E4
:103410001DF93A4BBA689200D45067E07B68822B62
:103420001FD1BB68D9B2334B40221800FEF7D2FF40
:10343000BB68D9B2BB689A012F4BD2182D4B18002C
:10344000FEF786FFBB68DAB22A4B11001800FEF7C0
:10345000AFFEBB68D9B2274B03221800FEF7DEFC93
:1034600044E07B68002B41D1BB68D9B2214B40229C
:103470001800FEF783FFBB68D9B2BB689A01204BE6
:10348000D2181C4B1800FEF74DFFBB68D9B2194B80
:1034900001221800FEF79EFCBB68D9B2154B4022F2
:1034A0001800FEF797FFBB68D9B2134A114B1800FA
:1034B000FEF74EFFBB68D9B20E4B01221800FEF793
:1034C000ADFCBB68D9B20B4B40221800FEF7E0FE02
:1034D000BB68D9B2074B00221800FEF795FEBB6807
:1034E000DAB2044B11001800FEF71EFEC046BD46BE
:1034F00005B090BD28020020F8040020B806002086
:103500003803002080B582B000AF786039603A6837
:103510007B681100180000F067F803005A1E934101
:10352000DBB2002B0DD03B68DAB2084B110018005B
:10353000FEF710FE3B68DAB2044B11001800FEF7EC
:1035400039FDC046BD4602B080BDC04628020020FD
:1035500080B582B000AF78603960064A3B680833B6
:103560005B01D318053320221A70C046BD4602B055
:1035700080BDC0460050004180B588B000AFF86003
:10358000B9607A60BB687B61154B00211800FEF7BB
:10359000F9FDFB680021180000F004F90300FB614D
:1035A000FA697B689A4201D97B68FB610D4B3B61EC
:1035B0000023BB61BA697B689A420BD27A69BB6906
:1035C000D3183969BA698A1812781A70BB6901333D
:1035D000BB61EFE7FB691800BD4608B080BDC0467F
:1035E000280200203803002080B582B000AF786048
:1035F0003960104B3A689200D358002B0ED00D4B17
:103600003A689200D3581B6808331B68094A396826
:1036100089008A5810009847030007E03B68DAB237
:10362000054B11001800FEF7DBFD03001800BD4636
:1036300002B080BDB80600202802002080B584B00A
:1036400000AFF860B9607A603B60424B1B685A4239
:103650005341DBB2002B02D001235B4276E03E4BAC
:103660001B78DBB25A425341DBB2002B03D000215E
:10367000192000F081FF384B64221A70374BBA686A
:103680009200D358002B0FD0344BBA689200D35815
:103690001B6804331B68314AB968890088583A6846
:1036A00079689847030051E0BA68FB681100180078
:1036B000FFF79AFF02003B689A429B415B42DBB2F4
:1036C000002B07D0BA68FB6811001800FFF78CFFC9
:1036D00003003B60BA68FB681100180000F0B6F800
:1036E000BB68DAB21E4B11001800FEF7D9FCBB68AC
:1036F0009A011C4BD1183A687B68180003F072FEDF
:103700003B68002B09D0BA68FB6811001800FFF76E
:103710006BFF031E01D1012300E00023002B14D016
:10372000BB68DAB20E4B11001800FEF72BFDBB6828
:10373000DAB20B4B11001800FEF726FCBB68DAB2B8
:10374000074B11001800FEF763FC3B681800BD46EC
:1037500004B080BD300300202D030020B8060020F7
:10376000280200203803002080B584B000AF7860C4
:1037700039600F23FA18396878680123FFF75EFF74
:103780000300013B5A1E9341DBB2002B02D0012300
:103790005B4202E00F23FB181B781800BD4604B003
:1037A00080BDC04680B582B000AF786039603B68AC
:1037B000D9B23B689A01234BD218234B1800FEF76D
:1037C000B1FD3B68D9B2204B08221800FEF760FD1E
:1037D0003B68D9B21C4B00221800FEF715FD3B6870
:1037E000DAB2194B11001800FEF7CCFC3B68DAB2D4
:1037F000154B11001800FEF76BFC03001A000123A3
:103800005340DBB2002B00D0F0E73B68DAB20E4B3E
:1038100011001800FEF760FB03001A00012353405B
:10382000DBB2002B00D0F0E73B68DAB2064B1100A8
:103830001800FEF7D5FC0300DBB21800BD4602B04D
:1038400080BDC046380300202802002090B585B016
:1038500000AF786039603B68DAB20E23FC18164B73
:1038600011001800FEF7BCFC030023800E23FB1898
:103870001B883F2B0BD93B68D9B20E23FB181B8842
:10388000403B9AB20C4B1800FEF7BEFC06E03B68CA
:10389000D9B2094B00221800FEF7B6FC3B68DAB239
:1038A000054B11001800FEF79BFC0300DBB218006B
:1038B000BD4605B090BDC0462802002080B588B046
:1038C00000AFF860B9607A603B600023FB610023C1
:1038D000BB61594B1B685A425341DBB2002B02D0EB
:1038E00001235B42A4E03A688023DB019A4202D9BB
:1038F00001235B429CE0514B1B78DBB25A4253419F
:10390000DBB2002B03D000211A2000F035FE4B4B18
:1039100064221A703B68002B00D188E0BB68DAB2E1
:10392000474B11001800FEF7E9FB031E3CD0454B46
:103930001B684549180002F043FE03001A00434B80
:1039400053431721180002F03BFE03007B61BB6864
:10395000DAB23B4B11001800FEF7D4FA03001A004C
:1039600001235340DBB2002B1ED0394ABB68D31869
:103970001B78002B04D17B695A1E7A61002B01D180
:10398000012300E00023002BE1D0314ABB68D318AB
:1039900001221A70BB68D9B2294B00221800FEF729
:1039A00055FC01235B4243E0294ABB68D31800223F
:1039B0001A703B683F2B02D93F23BB6101E03B6893
:1039C000BB61BB689A01234BD318BA6979681800A8
:1039D00003F008FDBB68D9B2BB689A011D4BD21831
:1039E000174B1800FEF7B4FCBB68D9B2BB699AB29A
:1039F000134B1800FEF72AFCBB68DAB2104B11001B
:103A00001800FEF7D7FABB68DAB20D4B11001800A8
:103A1000FEF7A0FBFA69BB69D318FB613A68BB6982
:103A2000D31A3B607A68BB69D3187B6072E7FB6985
:103A30001800BD4608B080BD300300202C030020D4
:103A4000280200203400002040420F0070110100C5
:103A5000D8070020F804002080B584B000AFF860DB
:103A6000B9607A603B60BB689A01124BD3183A6820
:103A70007968180003F0B6FCBB68D9B2BB689A013C
:103A80000C4BD2180C4B1800FEF762FCBB68D9B285
:103A9000094B00221800FEF71FFCBB68D9B23B6837
:103AA0009AB2054B1800FEF7D1FB3B681800BD46E3
:103AB00004B080BDF80400202802002080B588B042
:103AC00000AFF860B9607A60BB68BB617B687B61FE
:103AD00000233B610023FB611C4B1B78002B01D0B2
:103AE0007B692EE01A4B1B78002B13D0194B1B88D7
:103AF0001A00194BD3187A68B969180003F072FCE0
:103B00007B689AB2134B1B88D3189AB2114B1A8058
:103B10007B6916E07B68002B12D0BA69FB69D2186A
:103B20007B68F8680021FFF797FF03003B61FA69A3
:103B30003B69D318FB617A683B69D31A7B60E9E77C
:103B40007B691800BD4608B080BDC046D406002081
:103B5000D5060020D6060020D806002080B582B009
:103B600000AF786039603B68D9B2044B002218007E
:103B7000FEF76CFBC046BD4602B080BD28020020A7
:103B800080B586B000AF786039603B685B780B2BFE
:103B900000D9CDE09A00694BD3181B689F463B685B
:103BA0001B78002B10D11423FB1800221A70142349
:103BB000FB1800225A701423FA1878680223002197
:103BC000FFF74AFF0123B4E01023FB1800221A700C
:103BD0001023FB1800225A70594B1B78012B03D17C
:103BE0001023FB1801221A701023FA187868022398
:103BF0000021FFF731FF01239BE03B689B78012BFD
:103C000018D10C23FB1800221A700C23FB18002279
:103C10005A704C4B1B78012B03D10C23FB1801224B
:103C20001A700C23FA18786802230021FFF714FF9A
:103C300001237EE0424B00221A707B6800211800AD
:103C4000FFF78CFF012374E03B689B78012B0FD1B9
:103C50003C4B01221A700823FB1800221A7008231B
:103C6000FA18786801230021FFF7F6FE012360E0CF
:103C70003B689B78002B09D1314B01221A707B687D
:103C800000211800FFF76AFF012352E03B689B7890
:103C90001A007B6811001800FFF7D8FA012348E0EA
:103CA0003A687B6811001800FFF718F9030040E03C
:103CB00000233EE0244A786801230021FFF7CCFE70
:103CC000012336E03B681B781A001F23134019D1EB
:103CD0007B681800FFF73CFB3B689B781A001A4B87
:103CE0001A601A4B01211800FEF7AAF9174B02219E
:103CF0001800FEF78DF97B6800211800FFF72EFFF2
:103D0000012316E0002314E0114A78680123002102
:103D1000FFF7A2FE01230CE03B689B781A000C4BD6
:103D20001A607B6800211800FFF718FF012300E0EC
:103D300001231800BD4606B080BDC0465476000081
:103D40002F0300202E030020300300202802002033
:103D50003403002090B585B000AF7860944B1B7899
:103D6000002B00D01EE1934B1800FDF7E3FF031E6C
:103D700011D07B68002200211800FFF719FB8D4B42
:103D800000211800FEF72CF98B4B00221A60894B9A
:103D90001800FDF7DDFF874B1800FDF7F3FF031E4A
:103DA00039D0844B1800FDF7FBFF844B1B78DBB246
:103DB0005A1E9341DBB2002B12D0804B1B78DBB232
:103DC000013BDAB27D4B1A707C4B1B78DBB25A4256
:103DD0005341DBB2002B03D001211A2000F0CCFBB1
:103DE000774B1B78DBB25A1E9341DBB2002B12D00B
:103DF000734B1B78DBB2013BDAB2714B1A70704B1C
:103E00001B78DBB25A425341DBB2002B03D00121B5
:103E1000192000F0B1FB674B00211800FEF730F8C5
:103E2000031E47D0634B00211800FEF781F8654B55
:103E3000BB60604B00211800FEF7A4F9BB681B783B
:103E40001A00602313400AD10F23FC18BA687B685C
:103E500011001800FFF794FE0300237009E00F2300
:103E6000FC18BA687B6811001800FFF72FFA0300EE
:103E700023700F23FB181B78002B05D04D4B00211E
:103E80001800FEF767F904E07B6800211800FFF7CF
:103E90005FFB484B00211800FEF708F8031E09D00D
:103EA000444B00211800FEF759F8424B002118003E
:103EB000FEF7DEF80E23FB1800221A703D4B1800A7
:103EC000FDF7D2FF0300DAB20D23FB1801218A436C
:103ED0001A700D23FB181B78002B66D00D23FB18DE
:103EE0001A780E23FB181B781A4113000122134085
:103EF0004BD00E23FB181A782E4B11001800FDF73B
:103F0000EBFF031E09D10E23FB181A78294B110071
:103F10001800FDF7F7FF031E01D0012300E0002386
:103F2000002B20D00E23FB181A78274B9200D35871
:103F3000002B10D00E23FB181A78234B9200D35875
:103F40001B681B680E22BA1811781F4A89008A580C
:103F50001000984707E00E23FB181A787B681100C1
:103F60001800FFF789F80E23FB181B7801229A40EE
:103F700013005BB2DB435BB20D22BA18127852B267
:103F800013405AB20D23FB181A700E23FB181A782F
:103F90000E23FB1801321A700E23FB181B78082B16
:103FA00002D896E7C04600E0C046BD4605B090BDC9
:103FB000D506002028020020300300202C0300201A
:103FC0002D03002038030020B806002080B582B001
:103FD00000AF786039607B68012B0BD13B68074AE2
:103FE000934207D1064B1800FDF744FE054B18001D
:103FF000FDF718FEC046BD4602B080BDFFFF0000C1
:1040000028020020E007002080B500AF034B190014
:104010000120FFF7DBFFBD4680BDC046FFFF00006B
:10402000B0B582B000AF02003960FB1D1A70FB1DF5
:104030001B787F2B32D92F4CFB1D1B781A000F23C6
:104040001340083B99082B4AFB1D1B7818000F23CF
:104050000340083B9B0806339B00D31804331B68BE
:10406000FA1D1278100003220240D200FF20904077
:104070000200D2431A403B689B01FF201840FB1D01
:104080001B781D0003232B40DB00984003001A43DC
:104090008B1D9B00E31804331A6027E0164CFB1DB0
:1040A0001B785BB29B081449FA1D127852B2920831
:1040B000C03292005258F91D0978080003210140CE
:1040C000C900FF2088400100C94311403A689201AD
:1040D000FF201040FA1D1278150003222A40D2005A
:1040E000904002000A43C0339B001A51C046BD46AF
:1040F00002B0B0BD00ED00E000E100E080B582B0AC
:1041000000AF78607B68013B0C4A934201D90123E0
:1041100010E00B4B7A68013A5A6001235B4203219D
:104120001800FFF77DFF064B00229A60044B072220
:104130001A6000231800BD4602B080BDFFFFFF00DB
:1041400010E000E080B582B000AF3D4B1A68FA2362
:104150009900100002F034FA03001800FFF7CEFFB8
:10416000031E00D0FEE701235B4202211800FFF787
:1041700057FF344B334A126AFC210A431A62314B0F
:10418000304A126AFC2189010A431A622D4B2D4ADA
:10419000126AA021C9020A431A6200237B6007E069
:1041A0007B680021180000F0BDF87B6801337B605C
:1041B0007B68132BF4D9C046234B5B78DBB25BB230
:1041C000002BF9DB204B214A5A80C046204B5B7EF6
:1041D0001B06DB0FDBB2012BF8D01D4BE422D20013
:1041E0009A801B4B3F22DA70C046194B5B7E1B0640
:1041F000DB0FDBB2012BF8D0154BC02252011A6144
:10420000134B00229A70002000F028F8C0460E4B95
:104210005B78DBB25BB2002BF9DB0B4B0D4A5A80AB
:10422000C0460D4BDB791B06DB0FDBB2012BF8D050
:10423000094B41225A70C046BD4602B080BDC046FF
:104240003400002000040040000C00401E4000002C
:1042500000400042214000000048004280B582B08A
:1042600000AF0200FB1D1A702B4B5B7E1B06DB0FA1
:10427000DBB2012BF8D0FB1D1B78052B39D89A0037
:10428000264BD3181B689F46234A136924490B40C9
:104290001361214A53780F218B43191C01230B43CF
:1042A000537035E01C4A13691D490B4013611A4ACB
:1042B00053780F218B43191C03230B43537027E0C2
:1042C000154A136916490B401361134A53780F219D
:1042D0008B4353701CE0104A136911490B40136162
:1042E0000D4A53780F218B43191C02230B43537043
:1042F0000EE0094A1369F02109050B431361064AD0
:1043000053780F218B43191C02230B435370C04673
:10431000C046BD4602B080BD00400042AC76000001
:10432000FFFFFFF090B583B000AF7860396090492F
:104330007A6813005B009B18DB00CB1808331B78EE
:104340005BB2013300D10EE13B68012B00D1D6E016
:1043500005D3022B37D0032B00D182E004E185483E
:1043600083497A6813005B009B18DB005B561C00D6
:104370007F497A6813005B009B18DB00CB1804337D
:104380001B684021E2018218D3185B1802221A70C0
:10439000784877497A6813005B009B18DB005B560E
:1043A0001C0073497A6813005B009B18DB00CB1874
:1043B00004331B6801229A4013001A00E301C3185A
:1043C00004331A60D0E06B4869497A6813005B00D7
:1043D0009B18DB005B561C0065497A6813005B0084
:1043E0009B18DB00CB1804331B684021E2018218C4
:1043F000D3185B1806221A705E485D497A6813006C
:104400005B009B18DB005B561C0059497A6813005F
:104410005B009B18DB00CB1804331B6801229A4019
:1044200013001A00E301C31804331A6051485049BD
:104430007A6813005B009B18DB005B561C004C493C
:104440007A6813005B009B18DB00CB1804331B68F1
:1044500001229A4013001A00E301C31818331A60AE
:1044600082E0444842497A6813005B009B18DB00F5
:104470005B561C003E497A6813005B009B18DB000A
:10448000CB1804331B684021E2018218D3185B1853
:1044900006221A70374836497A6813005B009B1869
:1044A000DB005B561C0032497A6813005B009B18E6
:1044B000DB00CB1804331B6801229A4013001A005A
:1044C000E301C31804331A602A4829497A681300A3
:1044D0005B009B18DB005B561C0025497A681300C3
:1044E0005B009B18DB00CB1804331B6801229A4049
:1044F00013001A00E301C31814331A6034E01D4896
:104500001B497A6813005B009B18DB005B561C009C
:1045100017497A6813005B009B18DB00CB18043343
:104520001B684021E2018218D3185B1802221A701E
:1045300010480F497A6813005B009B18DB005B563C
:104540001C000B497A6813005B009B18DB00CB183A
:1045500004331B6801229A4013001A00E301C318B8
:1045600008331A6000E0C046BD4603B090BDC046A7
:10457000F87600000044004190B587B000AF786045
:10458000396034497A6813005B009B18DB00CB1854
:1045900008331B785BB2013358D01723F9182D4824
:1045A0007A6813005B009B18DB001B5C0B702949C9
:1045B0007A6813005B009B18DB00CB1804331B6880
:1045C0003B6101223B699A401300FB60224A17239A
:1045D000FB181B785BB2DB01D31808331B68FA6841
:1045E000134018D11C4C1723FB181B785BB23A6898
:1045F000511E8A41D1B24020DB01E2183B69D31839
:104600001A18137801200140880004218B43191CDB
:10461000031C0B4313703B68002B0AD10E4A17236F
:10462000FB181B785BB2DB01D3181433FA681A60ED
:104630000AE0094A1723FB181B785BB2DB01D31889
:104640001833FA681A60C046C04600E0C046BD464E
:1046500007B090BDF876000000440041F0B585B089
:1046600000AF78600A00FB1C1A70A0497A6813003A
:104670005B009B18DB00CB1808331B785BB201335F
:1046800002D101235B422DE1FB1C1B785BB201339D
:104690000C2B00D925E19A00954BD3181B689F4637
:1046A000FB1C1B785BB2092B05D17B68002118002D
:1046B000FFF738FE14E1FB1C1B785BB20A2B05D117
:1046C0007B6802211800FFF72DFE09E1FB1C1B7817
:1046D0005BB20B2B00D003E17B6801211800FFF7D0
:1046E00021FEFDE081497A6813005B009B18DB0026
:1046F000CB1804331B680122134076D07D487B49D8
:104700007A6813005B009B18DB005B561C0077493E
:104710007A6813005B009B18DB00CB1804331B681E
:104720005B083021E2018218D3185B181B78DBB2DA
:104730001A000F231340FB606E486C497A6813001F
:104740005B009B18DB005B561D0068497A6813000C
:104750005B009B18DB00CB1804331B685B08FA1C5A
:1047600012781201D1B2FA68D2B20A43D4B230211F
:10477000EA018218D3185B18221C1A705D4C5B4941
:104780007A6813005B009B18DB005B561E005749DC
:104790007A6813005B009B18DB00CB1804331968A0
:1047A000544D52487A6813005B009B18DB001B567F
:1047B0009C464E487A6813005B009B18DB00C318C8
:1047C00004331B6840206246D201AA18D3181B1874
:1047D0001B78DBB201221343D8B24022F301E31865
:1047E0005B189B18021C1A707BE042483F497A68AC
:1047F00013005B009B18DB005B561C003B497A688A
:1048000013005B009B18DB00CB1804331B685B08AC
:104810003021E2018218D3185B181B78DBB21A0032
:10482000F0231340BB60334830497A6813005B00C3
:104830009B18DB005B561D002C497A6813005B0057
:104840009B18DB00CB1804331B685B08FA1C12783A
:104850000F210A40D1B2BA68D2B20A43D4B2302191
:10486000EA018218D3185B18221C1A70214C1F49C8
:104870007A6813005B009B18DB005B561E001B4927
:104880007A6813005B009B18DB00CB1804331968AF
:10489000184D16487A6813005B009B18DB001B5606
:1048A0009C4612487A6813005B009B18DB00C31813
:1048B00004331B6840206246D201AA18D3181B1883
:1048C0001B78DBB201221343D8B24022F301E31874
:1048D0005B189B18021C1A7003E001235B4201E085
:1048E000C04600231800BD4605B0F0BDF8760000B4
:1048F000C47600000044004180B588B000AFF86085
:10490000B9607A600023FB61FA69BB689A4218DAE1
:10491000FA6913005B009B18FA68D318BB617B68C7
:104920007B617B691A78BB691A707B695A78BB69AD
:104930005A707B699A78BB699A70FB690133FB6195
:10494000E2E7C046BD4608B080BDC046F0B585B0C0
:1049500000AF78600A00FB1C1A707B681B68043388
:104960001C687B685D687B685E690C23F818FB1C1B
:104970001A787B681900FBF799FC0C23FB18786800
:1049800032002900A047C046BD4605B0F0BDC04674
:1049900080B500AF024B1B681800BD4680BDC04605
:1049A000F407002080B582B000AF78607B689B6818
:1049B0001800BD4602B080BD80B584B000AFF8607D
:1049C000B9607A60FB68BA685A60FB687A685A61B5
:1049D000FB681800BD4604B080BDC04680B582B0FB
:1049E00000AF78600A00FB1C1A707B68FA1C127812
:1049F0009A747B681800BD4602B080BD80B582B055
:104A000000AF78607B68FF221A707B6800225A80B2
:104A10007B680022DA607B68012252429A607B68E0
:104A20001800BD4602B080BD80B586B000AFF8600A
:104A3000B9607A603B603B68002B01DD7B6800E079
:104A400000237B613B68002B01DD3B6800E07B6855
:104A50003B61FB681B6808331B68FA6810009847C5
:104A60007A6913005B009B18BA68D1183A69FB6831
:104A70001800FFF7A1FFFB681B6814331B68FA6876
:104A80001000984703001900044B0122180000F0A1
:104A9000A9F8FB681800BD4606B080BDE4070020F9
:104AA00090B585B000AF78600A00FB1C1A707B6877
:104AB0005B68002B0BD0FCF727FE02002B4B1B681A
:104AC000D21A7B685B689A4201D2012300E000237E
:104AD000002B00D0EBE7FCF717FE0200234B1A6017
:104AE0007B68DB68002B0AD07B68DA687B68996892
:104AF000FC1CFB1C1B781800904703002370FFF779
:104B000047FF0300FB60FB68002B26D00B23FC183B
:104B1000FB681800FBF7A2FB030023707B685B882F
:104B2000632B04D8FB6800211800FFF757FFFB1C1C
:104B30001A78FB6811001800FFF708FF0B23FB1819
:104B40001A78FB6811001800FFF748FFFB6818008F
:104B5000FFF728FF0300FB60D5E77B6819211800E9
:104B600000F006F8C046BD4605B090BDFC07002029
:104B700080B584B000AF78603960184B1B68591C51
:104B8000164A11603A68D817D10F93424841030082
:104B9000DBB2002B1DD0FCF7ADFD0300FB60104B1A
:104BA0001B68FA68D31AFB600C4B1B68FA22920050
:104BB0005343F968180001F003FD03009AB27B68C3
:104BC0005A80064B00221A60FCF794FD0200044B49
:104BD0001A60C046BD4604B080BDC0460008002033
:104BE0000408002090B583B000AF78600800110081
:104BF000BB1C021C1A807B1C0A1C1A707B1C1B78B5
:104C0000002B14D0BB1C1B88002B22D07B685C6857
:104C1000BB1C1B881900114801F05CFD03001A0041
:104C2000231E934200D213007A68536011E0BB1C2C
:104C30001B88002B0AD0BB1C1B881900074801F0F9
:104C400049FD03001A007B685A6002E07B6800227D
:104C50005A60C046BD4603B090BDC04640420F00FA
:104C600080B582B000AF786039607B68012B07D1D6
:104C70003B68054A934203D1044B1800FFF7BEFE80
:104C8000C046BD4602B080BDFFFF0000E407002023
:104C900080B500AF034B19000120FFF7E1FFBD46CF
:104CA00080BDC046FFFF000080B58CB000AF7860CB
:104CB00039602C23FB1801221A702B23FB180022C9
:104CC0001A702A23FB1800221A702923FB180022CD
:104CD0001A702823FB187A6812781A702723FB1899
:104CE0007A6852781A702623FB187A6892781A70BC
:104CF0002523FB182822BA1812781F210A401A709F
:104D00002423FB182522BA1812781A702423FB18C2
:104D10002422BA181278D2001A701323FB18242206
:104D2000BA1812781A701223FB1855221A7013231E
:104D3000FB181B781222BA181278013253431B1247
:104D4000DAB22223FB181A702823FB181B785BB2F7
:104D5000002B00DA7DE02823FB181B78402213404B
:104D60002DD12823FB181B782022134014D12F2388
:104D7000FB182222BA181278D2431A702E23FB187D
:104D80002222BA1812781A702D23FB1800221A70EA
:104D90002D23FB181B78E0E02F23FB18AB221A70A1
:104DA0002E23FB182222BA18127855321A702D239E
:104DB000FB1800221A702D23FB181B78CDE0282346
:104DC000FB181B78202213402ED12323FB1824220A
:104DD000BA1812781A701123FB18AA221A7023230A
:104DE000FB181B781122BA181278013253431B1298
:104DF000DAB22023FB181A702F23FB182022BA18CE
:104E00001278552149428A1A1A702E23FB18222241
:104E1000BA181278563A1A702D23FB1800221A700D
:104E20002D23FB181B7898E02F23FB1800221A7003
:104E30002F23FB181B782E23FB182222BA18127876
:104E4000D2431A702D23FB182222BA1812781A7036
:104E500083E02823FB181B784022134049D12823E4
:104E6000FB181B78202213402ED12F23FB18002281
:104E70001A702F23FB181B782123FB182422BA1841
:104E800012781A701023FB18AA221A702123FB181B
:104E90001B781022BA181278013253431B12DAB26F
:104EA0001E23FB181A702E23FB181E22BA18127824
:104EB000552149428A1A1A702D23FB181E22BA184E
:104EC000127855321A7048E02F23FB182222BA18A4
:104ED00012781A702E23FB1800221A702E23FB184A
:104EE0001B782D23FB182222BA181278D2431A708D
:104EF00033E02823FB181B782022134017D12F23DF
:104F0000FB182222BA18127855321A702E23FB1879
:104F100000221A702E23FB181B782D23FB18222247
:104F2000BA181278552149428A1A1A7015E02F23AF
:104F3000FB182222BA181278563A1A702E23FB1840
:104F400000221A702E23FB181B782D23FB18222217
:104F5000BA18127855218A1A1A702723FB181B7861
:104F6000FF2B00D1AFE02723FB181B78002B0CD1BF
:104F70002F23FB18FF221A702D23FB18FF221A7013
:104F80002E23FB18FF221A709DE02F23FB181B789D
:104F9000002B18D01F23FB182F22BA1812781A7072
:104FA0000F23FB182722BA1812781A701F23FB1838
:104FB0001B780F22BA181278013253431B12DAB24F
:104FC0002F23FB181A702E23FB181B78002B18D0E8
:104FD0001D23FB182E22BA1812781A700E23FB1804
:104FE0002722BA1812781A701D23FB181B780E227C
:104FF000BA181278013253431B12DAB22E23FB186F
:105000001A702D23FB181B78002B18D01C23FB18BB
:105010002D22BA1812781A700D23FB182722BA18FD
:1050200012781A701C23FB181B780D22BA181278FC
:10503000013253431B12DAB22D23FB181A701923C5
:10504000FB182722BA181278D2431A701B23FB18B8
:105050001922BA1812781A700C23FB181922BA18E0
:1050600012781A701B23FB181B780C22BA181278BE
:10507000013253431B12DAB21923FB181A7017239B
:10508000FB181922BA1812781A702F23FB182F2236
:10509000B9181722BA18097812788A181A702E23AC
:1050A000FB182E22B9181722BA18097812788A1814
:1050B0001A702D23FB182D22B9181722BA18097857
:1050C00012788A181A702623FB181B78FF2B00D140
:1050D00097E01A23FB182622BA1812781A701823A0
:1050E000FB182622BA1812781A701A23FB181B789C
:1050F0001822BA18127853431B12D9B21A23FB187C
:105100001B78002B06D01823FB181B78002B01D02E
:10511000012300E000230B22BA18CB1813700B23D5
:10512000FB181A782623FB181A702623FB181B7805
:10513000002B0CD12F23FB1800221A702E23FB18F2
:1051400000221A702D23FB1800221A7059E02F2319
:10515000FB181B78002B18D01623FB182F22BA1827
:1051600012781A700A23FB182622BA1812781A70BD
:105170001623FB181B780A22BA18127801325343FF
:105180001B12DAB22F23FB181A702E23FB181B7880
:10519000002B18D01523FB182E22BA1812781A707B
:1051A0000923FB182622BA1812781A701523FB1847
:1051B0001B780922BA181278013253431B12DAB253
:1051C0002E23FB181A702D23FB181B78002B18D0E8
:1051D0001423FB182D22BA1812781A700823FB1812
:1051E0002622BA1812781A701423FB181B7808228A
:1051F000BA181278013253431B12DAB22D23FB186E
:105200001A703B682F22BA1812781A703B682E2247
:10521000BA1812785A703B682D22BA1812789A7010
:10522000C046BD460CB080BD80B582B000AF78608E
:105230007B685B681800BD4602B080BD80B58AB04F
:1052400000AF78600A00BB1C1A8000237B62002339
:105250003B620023FB617B683B613B69BB611623BA
:10526000FB18BA1C12881A801623FB181B88002B07
:105270001FD0BB695A1CBA611B781A007B6A9B1845
:105280007B62BB695A1CBA611B781A003B6A9B1887
:105290003B62BB695A1CBA611B781A00FB699B18F8
:1052A000FB611623FB181A881623FB18013A1A8093
:1052B000DAE750231A007B6A53437B6237231A00D4
:1052C0003B6A53433B624B231A00FB695343FB6128
:1052D0007B6A1B0A7B623B6A1B0A3B62FB691B0AF7
:1052E000FB617A6A3B6AD218FB69D118BB1C1A8829
:1052F00013009B009B18CB18FB60FB681800BD4691
:105300000AB080BD90B587B000AF02003960FB1DC8
:105310001A707D237B61FFF73BFB03003B613B6918
:10532000002B1CD03B691800FFF77EFF04003B698F
:105330001B6810331B683A691000984703009BB242
:1053400019002000FFF77AFF02007B699B187B6140
:105350003B691800FFF726FB03003B61DFE7FB1DFD
:105360001B787A6953431B0AFB60FA683B689A42D0
:105370000CD2154B1B78002B05D0134B1B7800214A
:105380001800FFF7F9F8FB1D1B7819E0FB1D1B78CF
:105390003A685343F968180001F012F903001A0043
:1053A0000B23FB181A70084B1B78002B05D0064BFB
:1053B0001B7801211800FFF7DFF80B23FB181B787F
:1053C0001800BD4607B090BD0808002080B582B027
:1053D00000AF7860074A7B681A600023002B03D077
:1053E0007B68180000F00CF97B681800BD4602B01D
:1053F00080BDC046507B000080B582B000AF7860B1
:105400007B681800FFF7E2FF7B68180000F0F8F8EF
:105410007B681800BD4602B080BDC04680B582B032
:1054200000AF78603960C046BD4602B080BDC0465E
:1054300080B584B000AFF860B960BB1D1A80C0466B
:10544000BD4604B080BDC04680B582B000AF786074
:10545000C046BD4602B080BD80B500AF034B18000A
:1054600000F006FDC046BD4680BDC04624080020B1
:1054700080B500AF034B180000F0FAFCC046BD46F3
:1054800080BDC046E808002080B582B000AF7860DB
:10549000094A7B681A607B681800FFF797FF0023B2
:1054A000002B03D07B68180000F0AAF87B68180076
:1054B000BD4602B080BDC046987B000080B582B07A
:1054C00000AF78607B681800FFF7DEFF7B6818008C
:1054D00000F096F87B681800BD4602B080BDC0465B
:1054E00080B584B002AF786039607B68012B47D10A
:1054F0003B68254A934243D1244A254B11001800AA
:1055000000F038F9234A244B1100180000F032F95A
:10551000224A234B1100180000F02CF9214A224B9B
:105520001100180000F026F9204A214B1100180044
:1055300000F020F91F4A204B1100180000F01AF962
:1055400013491E48012301930323009301230022E2
:1055500000F0B2FB1A4A1B49184B180001F028F85A
:105560001549194801230193032300931E231F2289
:1055700000F0A2FB124A1349134B180001F018F86F
:10558000C046BD4602B080BDFFFF000000080042DB
:105590000C080020000C00421008002000100042FF
:1055A00014080020001400421808002000180042CF
:1055B0001C080020001C00422008002024080020B5
:1055C0000000002089540000E808002080B500AFEA
:1055D000034B19000120FFF783FFBD4680BDC04685
:1055E000FFFF000080B582B000AF78607B681800D4
:1055F00001F0E4FE03001800BD4602B080BDC046C5
:1056000080B582B000AF78607B68180001F0E0FEE2
:10561000C046BD4602B080BD80B586B000AFF86020
:10562000B9607A6000237B617B685A1E7A605A1EDB
:105630009341DBB2002B14D0FB681B681A68BB686F
:10564000591CB9601978FB681800904703005A1E6E
:105650009341DBB2002B03D07B6901337B61E3E72D
:10566000C0467B691800BD4606B080BD80B582B0DB
:1056700000AF0200FB1D1A70064BFA1D12781100D4
:105680001F220A40012191400A001A60C046BD460F
:1056900002B080BD00E100E0B0B582B000AF020012
:1056A0003960FB1D1A70FB1D1B787F2B32D92F4CE4
:1056B000FB1D1B781A000F231340083B99082B4A47
:1056C000FB1D1B7818000F230340083B9B08063383
:1056D0009B00D31804331B68FA1D127810000322B4
:1056E0000240D200FF2090400200D2431A403B68A3
:1056F0009B01FF201840FB1D1B781D0003232B403E
:10570000DB00984003001A438B1D9B00E318043311
:105710001A6027E0164CFB1D1B785BB29B081449EE
:10572000FA1D127852B29208C03292005258F91DF6
:105730000978080003210140C900FF2088400100CA
:10574000C94311403A689201FF201040FA1D1278B7
:10575000150003222A40D200904002000A43C033C1
:105760009B001A51C046BD4602B0B0BD00ED00E03E
:1057700000E100E080B582B000AF786039607B68FE
:105780003A681A607B681800BD4602B080BDC0460A
:1057900080B586B000AFF860080011007B600B2375
:1057A000FB18021C1A700A23FB180A1C1A70FB68EB
:1057B000180000F09FF9FB68180000F0D1F8FB68B2
:1057C0001B680B22BA181278920011001C2211409B
:1057D0000A22BA18127852031204120C0A431A60F1
:1057E000FB681B6884229A750B23FB181B78012B1E
:1057F0003BD10A23FB181B78012B04D11623FB187D
:1058000010221A8003E01623FB1808221A80194B75
:105810001B68D8001623FB181B887A6853431900AD
:1058200000F0CEFE03003B61FB681A683B69DBB207
:10583000191C07230B40D9B293894803DB04DB0C06
:10584000191C031C0B439381FB681A683B69DB0836
:105850009BB2DB04DB0C99B29389C904C80C5B0BC7
:105860005B03191C031C0B439381C046BD4606B065
:1058700080BDC0463400002090B583B000AF786092
:105880000C0010001900FB1C221C1A70BB1C021C0F
:105890001A707B1C0A1C1A707B681B687A68126875
:1058A00011687A1C1278023A501E8241D2B2120656
:1058B0001000F02212050240B81C00788007024355
:1058C0000A431A607B681B687A6812685168FA1C80
:1058D000127807200240182038180078800102430F
:1058E000781C0078022803D0781C0078400300E080
:1058F000002002430A435A60C046BD4603B090BD33
:1059000090B583B000AF786008001100FB1C021C4A
:105910001A70BB1C0A1C1A707B681B687A681268B4
:105920001168FA1C127812041000C0229202104072
:10593000BA1C127812051400C022920322400243BE
:105940000A431A607B681B687A6812685268C02133
:1059500089020A435A60C046BD4603B090BDC046A6
:1059600080B582B000AF78607B681B681A6801213F
:105970000A431A607B681B681B68DB07DB0FDBB21E
:10598000002B07D17B681B68DB69DB07DB0FDBB211
:10599000002B01D0012300E00023002B00D0E9E719
:1059A000C046BD4602B080BD80B582B000AF786011
:1059B0007B681B681A6802210A431A607B681B68AF
:1059C000DB699B07DB0FDBB2002B00D0F6E7C0469C
:1059D000BD4602B080BDC04680B582B000AF7860E1
:1059E0007B68180000F04AF8031E0BD17B681B6827
:1059F0001B7E9B07DB0FDBB201225340DBB2002B87
:105A000001D0F3E7C046BD4602B080BD80B582B08C
:105A100000AF78607B681B6800225A83C046BD4691
:105A200002B080BD80B582B000AF78607B681B6833
:105A30001B7E5B07DB0FDBB21800BD4602B080BDEA
:105A400080B582B000AF78607B681B681B7E1B0648
:105A5000DB0FDBB21800BD4602B080BD80B582B05E
:105A600000AF78607B681A68137E802149420B433F
:105A70001376C046BD4602B080BDC04680B582B038
:105A800000AF78607B681B681B7EDB07DB0FDBB237
:105A90001800BD4602B080BD80B582B000AF78600E
:105AA0007B681B681B8DDB05DB0D9BB2DBB218002E
:105AB000BD4602B080BDC04680B582B000AF786000
:105AC0000A00FB1C1A707B681800FFF7D7FF030061
:105AD0001A0001235340DBB2002B00D0F3E77B68B0
