:1000000000800020A108000089080000A101000074
:1000100000000000000000000000000000000000E0
:10002000000000000000000000000000890800003F
:10003000000000000000000089080000F508000032
:10004000890800008908000089080000890800006C
:100050008908000089080000BD0100008D0800002B
:1000600089080000ED2200008908000089080000CE
:100070008908000089080000FD22000089080000AE
:10008000890800008908000089080000890800002C
:1000900000000000890800008908000089080000AD
:1000A000890800008908000089080000890800000C
:1000B0000000000010B5064C2378002B07D1054B3B
:1000C000002B02D0044800E000BF0123237010BDC4
:1000D000200100200000000070330000084B10B524
:1000E000002B03D00749084800E000BF0748036819
:1000F000002B00D110BD064B002BFBD09847F9E731
:1001000000000000240100207033000014010020D2
:10011000000000004069704737B500246B461C7032
:100120005C709C7003680A001D6801AB1C705C70F9
:100130009C706946A84737BD0020704703688EB0A1
:1001400000934368019383680293C3680393036930
:1001500004934369059383690693C36907930A4B24
:100160001B680893094B1B680993094B1B680A938A
:10017000084B1B680B93084B1B680D93074B1B68C0
:100180000C9300BE0EB0704728ED00E02CED00E0AF
:1001900030ED00E03CED00E034ED00E038ED00E053
:1001A00004207146084202D0EFF3098001E0EFF32A
:1001B00008804169C2E700BE7047000010B572B602
:1001C0000C4B0D4C1A8C0F2313400C4A13702378E0
:1001D0000B4ADBB213601368012B03D109490A48AB
:1001E00000F0FCFB02232370013B237003332370D8
:1001F00062B610BD004800414E4800413F480041F2
:1002000010030020682E0000E80500202021094B83
:100210005A690A435A61DA6910390A43DA6140229D
:10022000054B1A60054B064A5A63064A9A63064A0A
:100230001A8070470004004000E100E000480041DF
:100240008001002050020020020F0000174BF7B57C
:100250001F0000251C0002263F37019040343D70EE
:100260002278B243227001229446604622701A69B5
:1002700082431A610E4A5A6407224D331A700D4B9D
:100280000D4A1D600D4B598081405A60019ADD6016
:1002900050180B4A98601A8019001022094802F081
:1002A000EFFC3D7023781E432670F7BD00480041E7
:1002B00000278000100300201A400042D0030020D5
:1002C000010900008001002010B50E2001F09AFD08
:1002D00002211C4B1A788A431A705A7E1949D20996
:1002E000FBD1F0200A69000502430F200A614A7819
:1002F00082430D3802434A705A7E1248D209FBD11C
:100300001F2461321049FF32895C02692140A243F7
:100310000A4302615A7E0B49D209FBD18A70CA7026
:100320005A7ED209FCD10949064A91805A7E054974
:10033000D209FBD102200A7802430A705A7ED20900
:10034000FCD110BD00400042E42E00002406000055
:1003500013B501212A4A2B48136814000B401BD106
:10036000FF22436043618360274B027342738273B1
:10037000C273027442741A688174002A00D1186032
:10038000224B1A68002A00D090601860204B03604E
:1003900000238361013323601E4C002321003C2293
:1003A00001F080FEB022FF234273403282731A496B
:1003B0001A4A0373D1601A4913709160694600228A
:1003C0004B700A708A70684601A901F09DFE01AA6F
:1003D00020003C2101F058FE96211248890100F0CE
:1003E0009DFC0A2001F0D8FCFFF76EFFFFF70EFF1F
:1003F00001A801F047FE01A801F045FE13BDC0466B
:10040000580100205C010020D40B0020D80B0020F4
:100410004C2E00001403002085220000C40B002095
:1004200010270000E8050020802110B5490004488D
:10043000FFF70CFF034A1368002BFCD010BDC04629
:10044000E003002010030020006810B5002802D04F
:1004500003685B68984710BD70B501241A4E2200EE
:10046000330094331B6805009A40184B06201A602D
:10047000330090331B78164A5BB2DB019918154A9A
:100480001160154A21009B18144A136001F02EFDDB
:1004900033002200DC331B6809209A40104B1A609D
:1004A000D823F3560A4ADB0199180E4A11600A4A0A
:1004B00021009B180C4A136001F018FD2800183029
:1004C000FFF7C2FF70BDC046E42E000054010020BB
:1004D0001044004150010020204400414C01002004
:1004E00048010020440100204001002000238361D6
:1004F00070470000F0B54F494F4C45B24F4B504A42
:1005000027680E68002D02DA35683D4301E0356842
:10051000BD43356015681F682E683E432E601F6816
:100520002E68BE432E6027680E68450602D53568E2
:100530003D4301E03568BD43356015681F682E688E
:100540003E432E601F682E68BE432E6027680E68EB
:10055000850602D535683D4301E03568BD43356009
:1005600015681F682E683E432E601F682E68BE43C4
:100570002E6027680E68C50602D535683D4301E048
:100580003568BD43356015681F682E683E432E6090
:100590001F682E68BE432E6027680E68050702D5C7
:1005A00035683D4301E03568BD43356015681F6817
:1005B0002E683E432E601F682E68BE432E6027685B
:1005C0000E68450702D535683D4301E03568BD43F7
:1005D000356015681F682E683E432E601F682E68C0
:1005E000BE432E6027680E68850702D535683D43F7
:1005F00001E03568BD43356015681F682E683E43CD
:100600002E601F682E68BE432E602468C00703D585
:1006100008680168214302E008680168A143126884
:1006200001601868116801431160196813688B43F1
:100630001360F0BD5001002054010020480100204B
:100640004401002070B5060080690C0018360028AF
:1006500002D003681B6898470020FFF74BFF00207B
:10066000FFF748FF0020FFF745FF0020FFF742FF9C
:10067000A368002B53DD23689B78002B06D0A27B58
:10068000D318FF22934200DC1A00D3B2257DFF204D
:1006900001356B432E4D1B121D43ADB2FFF72AFFF0
:1006A000E8B2FFF727FF22685378002B06D0657B5E
:1006B000EB18FF25AB4200DC1D00EBB2E57C0135F9
:1006C0006B43FF252D021D401378002B06D0227BA3
:1006D000D318FF22934200DC1A00D3B2A07C013071
:1006E00043431B121D43ADB2280AFFF703FFE8B2D4
:1006F000FFF700FF227BE37B9B1A2373627B237C43
:100700009B1A6373A27B637C9B1AA37315232268D5
:10071000E356D3182360A368013BA360A8E71F2218
:100720006368DC171440E4186411FF20FFF7E2FE51
:100730000020FFF7DFFE0020FFF7DCFE0020FFF7C0
:10074000D9FE013CF1D23000FFF77EFE70BDC046FD
:1007500000FFFFFF072370B518490A7801321A40DD
:10076000063B13400A70DB01910701D540210B4382
:1007700004210A4201D02022134305000F30060055
:100780001033DCB20C350023A979994205D08020C2
:10079000400002F041F90130C3B25A1C6243121208
:1007A000EB70D1B2002A00D001392970002B01D0A2
:1007B000013BEB700135AE42E5D170BD3C0100203C
:1007C00070B5160088B00191197801AC6660A6601A
:1007D000A1745978827CE1749B7805002375012A05
:1007E00003D12000FFF7B6FF06E0002363742374F3
:1007F000E373A373637323730023310020006375D5
:10080000FFF774FE2B6821009B692800984708B009
:1008100070BD70B5160088B00191197801AC6660A2
:10082000A660A1745978827CE1749B7805002375D9
:10083000012A03D12000FFF78DFF06E00023637437
:100840002374E373A37363732373032331002000C2
:100850006375FFF74BFE2B6821009B6928009847C2
:1008600008B070BD10B5054C200001F00BFC044A27
:100870000449200002F034F810BDC04640020020B8
:100880000000002087200000FEE70000034B10B5A9
:100890001B68002B00D0984710BDC046E005002023
:1008A00070B50F490F4CA14204D100F0EBF800F0F5
:1008B0004BF80BE00C4D00238D42F6D0CA18E81817
:1008C000A24204D2006804331060F7E7FEE79042CA
:1008D000EBD00022054B06498B42E6D204C3FBE76E
:1008E00000000020200100207433000020010020BF
:1008F0009C0D002010B500F024F8002801D100F074
:1009000015F810BD014B18607047C046E005002087
:1009100070B5051E07D0044C266800F011F8236856
:100920009B1B9D42F9D870BDE405002010B5034A19
:1009300013680133136000F069F810BDE40500206E
:10094000704700207047704710B501F09DF902F024
:100950005DF9FFF7F8FF0120FFF7DAFF084C2000F0
:1009600000F01AFC200000F08FFCFFF7F1FCFFF70D
:100970005BFD044B002BFAD000E000BFF7E7C04658
:10098000B30A002000000000F7B506000D000C00BF
:100990008B180193019B671B9C4207D03368217819
:1009A0001B683000984701340028F3D13800FEBDA1
:1009B00070B505000C00081E07D002F021FA2B6864
:1009C00002005B6821002800984770BD10B50249FD
:1009D000FFF7EEFF10BDC0466E2E000070B505009B
:1009E000FFF7E6FF04002800FFF7F0FF001970BDD5
:1009F000014B18607047C046040000200122024BE2
:100A000052421A607047C04604000020164A10B5D2
:100A10001368591C27D0013B1360002B23D172B6F9
:100A2000124B134A0433934207D8BFF34F8F114A36
:100A3000114BDA60BFF34F8F14E001210F4C207D82
:100A40000E4A0842FBD02020118BFF309B085B0030
:100A500001431183D3610A4B13800123117D194295
:100A6000FCD0E2E7FEE710BD04000020000000001B
:100A7000030200000400FA0500ED00E00040004120
:100A800002A5FFFF1E2270B508244A484A49436860
:100A900093431C3A134343608B6923438B61474C58
:100AA000474B9C829C8A14439C82DC681442FCD095
:100AB000444A0124160014701578254203D0757835
:100AC0006DB2002DF8DB01249460547864B2002CE0
:100AD000FBDB3D4D3B4C6560547864B2002CFBDB86
:100AE0008225384CED016580547864B2002CFBDB24
:100AF00002249C840E34DD682542FCD0304C334DFA
:100B0000E5621024DE682E4D2642FBD0AC8C304EC0
:100B10003443AC841024DE68294D2642FBD00226E3
:100B2000AC8C3443AC8440247E36DD683542FCD046
:100B3000234DED682542F8D01024DD682542FCD015
:100B400000249460547864B2002CFBDB214D1D4CD2
:100B5000656054781B4D64B2002CFADB1E6A1E4C93
:100B6000344080261C621C6AB4431C620323AB60C1
:100B70001A4B6B6053785BB2002BFBDB0023184AE7
:100B80000B724B728B72CB72164B1A60164B1C6831
:100B9000164BA1061B686401DA0EFF23490F2340A0
:100BA00009021343124A0B431385802243681343FF
:100BB000436070BD00400041000400400C0600008E
:100BC00000080040000C004001050100B805FF7D51
:100BD000040A000000070300FFFCFFFF03060100FA
:100BE000006CDC0284000020246080002060800013
:100BF000004000423F20704713B56B460268D97130
:100C00000733546819000122A04716BD10B5022110
:100C1000006900F039FC10BD10B50321006900F037
:100C200049FC10BD10B5130004000A00006903213F
:100C300000F03CFD002801D10123636010BD0000DD
:100C4000074B0200186810B5411C03D00122524224
:100C50001A6003E00221106900F01AFD10BDC046C1
:100C60005800002010B5054C23685A1C04D10368B5
:100C7000DB68984703002060180010BD5800002072
:100C800010B503784222023303700249024800F093
:100C9000BFFD10BD14000020B30A002010B501787C
:100CA000030042780020A12908D1212A2ED11A3A26
:100CB0001749184800F0ACFD012027E0212925D173
:100CC000202A05D1193A1249124800F039FC04E0F3
:100CD000222A12D19A780E4BDA7196220C4BD2004E
:100CE000196891420FD1D87901231840041E0AD106
:100CF000FA20FFF77DFE200008E0232A06D15A885B
:100D0000054B1A6002E0FFF779FE002010BDC046D7
:100D100008000020B30A00201000002070470000E7
:100D2000FA220021054B92009A60054A5960083268
:100D30001A60044A19761A617047C046E805002017
:100D4000802E0000B30A002070B5C024194EC3B233
:100D50005A01B21895681849A4050D4025439560BD
:100D6000164D8001281850603068072608335B0153
:100D70001D5CB543063E35431D5496693140214301
:100D8000702491610E495161195CA143603C21437B
:100D9000195494680B49C3182140802464032143EB
:100DA00091609168890B8903916040215A790A43C7
:100DB0005A7170BDBC0A0020FFFFFF8FD4080020CD
:100DC00010070020FF3F00F070B50400012104CCA3
:100DD0000500137820000B4313708022002152007D
:100DE00001F057FF2B689A78D207FCD45C6270BD83
:100DF0001F22144BF0B51B68590B9C0C9B01114032
:100E00005B0F22401F2900D11A391F2A00D1023A54
:100E1000072B00D1043B1F2506688C01378D0A493A
:100E20002A403940214331850468218DA9430A4372
:100E3000228501681A03088D044B034013430B8578
:100E4000F0BDC046246080003FF8FFFFFF8FFFFF2A
:100E5000EFF3108303600123436072B670470368A9
:100E6000002B02D162B6BFF36F8F704737B50569AB
:100E700004006846002D13D1FFF7EAFF019B621DB5
:100E8000013B02D3D57FEDB2FAE768460193FFF745
:100E9000E6FF002D01D1002016E0236AE06912E090
:100EA0000025FFF7D5FF019B013B04D3220034321C
:100EB0001578EDB2F8E768460193FFF7D0FF002DF3
:100EC000E9D0236BE06A181A3EBD0000436830B5D4
:100ED0001968FF23012482681A4052018A18D21827
:100EE000917A21439172826841681A4052018A18AE
:100EF000C16895688C040D492409294021439160FB
:100F0000826841681A4052018A189168890B8903E6
:100F10009160816842680B404021126808335B0190
:100F2000D3181A790A431A7130BDC046FF3F00F04A
:100F300073B5436804001868FF23A16819400A00CC
:100F4000083252018218D179C90752D50125D571CD
:100F5000A26860696168134000281DD15A018B188E
:100F60009A6865619204920C2262A26A68465A608D
:100F7000631DDD77FFF76CFF2100019B3531013BDD
:100F80005A1C2FD0220034321278581ED2B2002AB6
:100F90001ED10A700300F3E75B01CB189A6868461C
:100FA0009204920C226300226261A269661D5A605B
:100FB000FFF74EFF2100019B3531013B5A1C11D038
:100FC000220034321570F27F581ED2B2002A06D0A9
:100FD0000193012368460B70FFF741FF09E00A7097
:100FE0000300EBE768460193FFF739FF2000FFF7A6
:100FF0006DFF73BDF7B5056904000F001600684664
:10100000002D19D1FFF724FF019B601D013B5A1CE5
:1010100005D0C27F591E002A40D00B00F7E7684672
:101020000193FFF71CFF0022E369964243D0216A37
:101030008B4238D316003EE0FFF70AFF019B013BCD
:101040005A1C08D02200343215785A1EEDB2002DF9
:1010500024D01300F4E7684601930025FFF7FFFE54
:10106000E36AB5420AD0226B934207D25A1CE2626D
:10107000A26AD3181B787B550135F1E7226B9342A6
:101080004FD100236846E3622361FFF7E1FE2200AF
:101090000026019B3532013B591C32D16846019331
:1010A000FFF7DDFE3DE0591CE161A169CB181B781B
:1010B000BB540132B8E7226A934220D10023E36196
:1010C000013323616846FFF7C3FE22000027019B1E
:1010D000651D013B3532591C0DD0EF771178581E34
:1010E000002901D10300F6E70193002320001370CB
:1010F000FFF7ECFEE9E768460193FFF7B0FE350025
:101100000FE0210034310E701178581E002901D1F2
:101110000300C1E70193002320001370FFF7D6FE00
:10112000B5E72800FEBD37B56B46DC1D00230D007A
:1011300020002370FFF7A4FD2B681818286001F029
:101140006DFB210001F026FB2B6818182860207821
:101150003EBD000003290CD180200E4B62311B687C
:10116000FF315A5C404202435A546339FF396822C6
:101170000DE001290DD18020064B24311B68FF3181
:101180005A5C404202435A5428222339FF39FF3225
:1011900099547047BC0A002070B500252F4B0121DF
:1011A00004001A201D7000F0A1FE01211A2000F099
:1011B000D9FE2B4B012119201D7000F097FE012153
:1011C000192000F0CFFE2021264A0135D3690B43B8
:1011D000D361254A1A3913782B4313700F22234BFE
:1011E00018789043187018780843187020480178D0
:1011F0002943017019780A4060211A701A780A434D
:101200001A701C4B1C4A5A805A78D209FCD11B48D0
:10121000FFF778FB1A4D2800FFF7D6FD2800FFF7EF
:10122000E7FD7F222B68C120197880000A40042145
:101230001A701A780A431A701A8908318A431149B8
:101240001A810A581202120A0A5080220A600221E8
:101250001A780A431A700123237070BDD008002049
:10126000B80A002000040040584400413C440041BA
:1012700059440041000C004006400000691C000079
:10128000BC0A002000E100E00078002810D0012115
:10129000084B1B681A898A431A811A8B07310A4343
:1012A0001A831A8B04390A431A830022024B1A60EC
:1012B0007047C046BC0A0020C00B00200E4A8020A8
:1012C000936940429B0B9B03936113680222FF3397
:1012D0001A729A7902439A711A7A9207FCD57F2082
:1012E000064B01409A7A82431143997280219A7A7F
:1012F00049420A439A727047BC0A002000500041DC
:1013000010B50B790C00002B0BD10800FFF7C6FCC1
:10131000002804D1094A93699B0B9B039361012028
:101320000BE001F07BFA210001F068FA0028F6D109
:10133000024A93699B0B9B03936110BDBC0A00207A
:10134000F8B50D00832A16D14148CBB25901411896
:101350008E69404AAD013240C026B60532438A61EB
:101360003D4A083355194D61016870205B015A5C94
:101370008243303862E0022A42D1382001F028F856
:10138000364B802703600023314E7F00421D0362ED
:1013900003614361C36146608560C760D3772F32C4
:1013A0000400C362036313703800537001F054FCEF
:1013B000A061380001F050FCFF232A001A40A0620F
:1013C000500130188768234908323940C027BF05CB
:1013D00039438160306807265201115CAD00B1438A
:1013E000043E31431154A2682000134062685B013F
:1013F000D318A2695A60FFF769FD194BEC5025E03C
:10140000822A1ED11248CBB2590141188E69114A65
:1014100080243240C026B60532438A610E4AAD01AF
:1014200055194D61083301685B01C818027964429F
:101430002243027170205A5C8243403802435A545E
:1014400004E0002A02D10800FFF77EFCF8BDC04688
:10145000BC0A0020FFFFFF8F10070020AC2E000009
:10146000940A002070B505000124064BA200D25852
:10147000002A05D021002800FFF762FF0134F4E7BD
:1014800070BDC0465C000020084B8A00D05810B5E3
:10149000002803D003689B68984706E0C9B2044B54
:1014A0004901591888688004800C10BD940A0020F6
:1014B000BC0A002010B50C00FFF7E6FF00280CD096
:1014C0008022064BE4B219680834640109194B798B
:1014D000524213434B710223CB7110BDBC0A002052
:1014E000144AF0B5CBB289015118134A5C011019A6
:1014F000416085681149402729408025AD02294374
:10150000816081680833890B890381601068590103
:10151000461835793D4335714518AD796D06FBD5D3
:101520005B01C118C979C907FBD51419A068C0B2FD
:10153000F0BDC046D4080020BC0A0020FF3F00F0E8
:1015400070B50D0040210B4B14001B68FF335A7916
:101550000A435A710021FFF7C3FFA04200D92000BF
:1015600000230549A34203D05A5CEA540133F9E74A
:1015700070BDC046BC0A0020D408002030B5C9B2F6
:101580000B4C4901601883689B049B0C3F2B07D9C7
:10159000403B85689B049A0CAB0B9B03134302E012
:1015A00083689B0B9B03836061188868C0B230BD61
:1015B000BC0A0020F0B51C00304B85B01B6806004B
:1015C0000D000192002B52D02D4F3978C9B200295D
:1015D00002D1192000F0C6FC64233B70294BAA00FD
:1015E000D058002805D0036822005B68019998470D
:1015F00041E029003000FFF747FF844204D9290069
:101600003000FFF741FF040029003000FFF7B6FF6C
:101610000121EBB21C4F03935B010293029A3B68DA
:1016200001989B18FF335A7A0A4318495A72AB0142
:10163000C918220001F024FB002C1BD02900300027
:10164000FFF722FF002815D14020039B396808339B
:101650005B01CB181A7902431A710122DA71029BDD
:10166000CB180121FF339A7A0A439A7202E00120D3
:10167000404200E0200005B0F0BDC046C00B002095
:10168000B80A0020940A0020BC0A0020D4080020D8
:1016900013B56B46DC1D22000123FFF78BFF0128E9
:1016A00001D1207801E00120404216BDF0B51D00B7
:1016B0003D4B85B01B680E000392002B6FD080233A
:1016C000DB019D426BD8394C2178C9B2002902D187
:1016D0001A2000F047FC6423237000230193002D9F
:1016E00052D0334F3B680293FF2333401C000093DA
:1016F0000834029B64011B199B79DB0915D02D4B23
:101700002D49186801F0FEF82C4B1721584301F0C1
:10171000F9F82B4B029A1219D279920705D49A5DE7
:10172000002A33D1013831D3F4E70022244B2C1E98
:101730009A553F2C00D93F24224FB301FF182200B5
:101740000399380001F09CFA009B194A5B01D318F9
:101750005F619869A204910C820B92030A439A611B
:10176000009B029A08335B01D31802228021DA71B0
:101770005A7949420A435A71019B2D1B1B19019347
:10178000039B1B190393AAE701980AE001229A55CB
:10179000009B5B01FF18BB699B0B9B03BB61012096
:1017A000404205B0F0BDC046C00B0020D00800206C
:1017B000BC0A00208400002040420F00701101008C
:1017C000080700201007002070B50C001D000D4E0A
:1017D000A301F618110030002A0001F051FAE1B21D
:1017E0004C010949094B09194E618A6913408B6103
:1017F0008869AB049A0C830B9B03134328008B610D
:1018000070BDC04610070020BC0A0020FF3F00F05A
:10181000F7B5114B01901B780F001500002B18D164
:101820000E4B16001C78002C08D00D4E0D48348845
:101830000019641901F024FA34800AE0002E08D05F
:101840003A19330000210198FFF7BEFF2418361A19
:10185000F4E72800FEBDC046B20A0020B00A00200E
:101860000607002005060020F8B5002000AF0E0096
:10187000151E012D27D9D31D6A46DB08DB00D31ABC
:101880009D46080001F0BCFA6C46032302220021A9
:101890000130400020706370AA420DD230780028D9
:1018A0000AD0531CDBB20136A0549D4203D0023251
:1018B000E154D2B2F0E72A0021000448FFF7A8FF64
:1018C000431E9841C0B2BD46F8BDC046B30A0020D1
:1018D000F0B50027012687B01E4B009102A91E70AB
:1018E00005000297FFF71FFC03AC019009223900A5
:1018F000200001F0CEF909232370022363709E3388
:10190000E3715A332372029B6671093363806B461D
:101910001B7923710F4B1F70009B092B02D11A00FA
:10192000210011E00C4B09221E700C4E21002800F2
:1019300002973780FFF76CFF02A92800FFF7F3FB3F
:10194000054B328806491F702800FFF761FF012010
:1019500007B0F0BDB20A0020B00A00200607002040
:101960000506002070B5CE788AB005000C00022E66
:1019700007D1C9882148FFF7ABFF431E9841C0B289
:101980003AE000F04BFF210000F019FF002803D0DF
:10199000C317181AC00F2FE0012E04D1E28818498E
:1019A000112A24D820E0032E26D1A378002B04D1BD
:1019B000E2881449032A17D919E0022B02D1A2792F
:1019C000114903E0012B05D1A27910492800FFF746
:1019D0004BFF11E0032B0FD100F020FF01A900F015
:1019E000FEFEA27901A9F1E7D2B2002A00D10A785D
:1019F0002800FFF70DFF01200AB070BDB30A0020D8
:101A0000C62E0000C22E0000D82E0000B82E000006
:101A100073B5060048780D000B283DD800F068FF2C
:101A200006163C273C383E7042466467097801AA96
:101A3000002906D10223117051703000FFF7C4FE57
:101A40002AE00023137053702E4B07E08A7800239E
:101A5000012A09D101AA137053702B4B1B78012B5B
:101A600000D1137002231FE0264A137042E08C78E5
:101A7000012C06D10021244B01AA1C7011702300F7
:101A8000DBE7002C04D101201E4B204A187026E011
:101A9000A9783000FFF712FC012032E03000FFF798
:101AA00061FF2EE001231A4A0021C6E70B780020CF
:101AB000DB0626D13000FFF7D5FC2A200224AA78C5
:101AC000134BFF301A60114A1368195C21434A24F2
:101AD0001954FF34195D2938FF38014319559369AA
:101AE0009B0B9B0393610CE001230A4ADCE78A7895
:101AF000084B1A60054A93699B0B9B039361CBE7E4
:101B0000002076BD04060020B10A0020BC0A002097
:101B1000C00B0020B40A00204B4BF7B51D7807001E
:101B2000002D00D08FE0494C23689B8B1B070DD5FF
:101B30002800FFF709F9226810201100FF318B7A85
:101B400003438B72424B1D600823938323689A8B57
:101B500052071FD504229A833E4A1378002B0AD0DD
:101B60001378013BDBB213701378002B03D10121F2
:101B70001A2000F0F7F9384A1378002B0AD01378AE
:101B8000013BDBB213701378002B03D10121192024
:101B900000F0E8F92368FF331A7AD20626D510221E
:101BA00040211A725A7938000A435A7160232B492E
:101BB0000A781A4202D1FFF72BFF01E0FFF7A0FBE2
:101BC000002806D0802123684942FF339A790A43CE
:101BD00001E02022224B9A712368FF331A7A5206C1
:101BE00004D5402119725A7A0A435A722368002692
:101BF0001D8C01239D43EDB20193F1B2002D22D043
:101C00002B003341019A134215D033002268083368
:101C10005B01D318DA79D20702D4DB799B0707D5A9
:101C2000104BB200D058002809D003681B689847B1
:101C3000019BB3409D430136092EDED103E03800FD
:101C4000FFF788FAF4E7F7BDB00A0020BC0A0020CD
:101C5000C00B0020D0080020B80A0020D4080020C3
:101C6000FF500041940A002010B50248FFF754FFCE
:101C700010BDC046B30A0020014A024B1A607047EB
:101C800000500041BC0A0020FA21334B10B51868FF
:101C9000890000F037FE314B0138984224D8304992
:101CA000304A4860C020136A00061B021B0A034327
:101CB0001362002407238C600B608021136A0906DD
:101CC0001B021B0A0B43FC211362274B1A6A0A43AF
:101CD000FC211A621A6A89010A43A0211A621A6A4F
:101CE000C9020A431A6200E0FEE720000021013425
:101CF00000F0FCF8142CF8D11C4A53781B4C5BB252
:101D0000002BFADB1A4B1B4963804B7E194ADB0917
:101D1000012BFAD0E423DB0093803F23D370537E62
:101D20001449DB09012BFAD0C02300205B010B61B1
:101D3000887000F037F863785BB2002BFBDB0E4A4B
:101D40000A4B5A800D4AD379DB09012BFBD0412283
:101D50000A4B5A7010BDC04684000020FFFFFF00F0
:101D600010E000E000ED00E000040040000C004046
:101D70001E40000000400042214000000048004298
:101D80000300914206D002D98A1AD34002E0030030
:101D9000521A934018007047014B18607047C046B4
:101DA0008C00002010B5154C144A617E1300C9093F
:101DB0000129F9D00138042813D81969104A0A40BA
:101DC0000F211A615A788A4300F092FD0305090732
:101DD00003000E3902E00C3900E00D390A435A7055
:101DE0000AE0F021136909050B430F2113615378B1
:101DF0008B430D390B43537010BDC0460040004269
:101E0000FFFFFFF010B5041E062C05D0072805D0F3
:101E1000052804D80E3402E02C2400E02D240121F2
:101E2000200000F0CDF80E2C0DD12B49CB792A4A99
:101E3000DB09012BFAD0022113788B431370D3797D
:101E4000DB09012BFBD025494A7E244BD209012A0C
:101E5000FAD018221F205443214A1419217C1A69F0
:101E6000014082430A431A615A7E1C49D209012A61
:101E7000FAD002200A7802430A70597E174AC9092B
:101E80000129FAD00220117B01431173012111763F
:101E90005A7E1249D209012AFAD002200A7B024353
:101EA0000A731A7ED207FCD50C4A508B80B25A7E38
:101EB0000A49D209012AFAD002240A78A2430A70F8
:101EC0005A7ED209012AFBD0064B1A68064B1968C4
:101ED000FFF756FF10BDC0460048004200400042D8
:101EE000E42E00009000002088000020182270B529
:101EF0001600050046430820184B9E1930561C005A
:101F0000431C29D0032927D8130008006B43E2564D
:101F1000E3185968D301124A9B185A18403200F04E
:101F2000E7FC0216080F0220107001228A405A6056
:101F300012E00620107001228A405A609A610BE07C
:101F40000620107001228A405A605A6104E0022083
:101F5000107001228A409A6070BDC046E42E0000D5
:101F600000440041182308225843F0B5124E33189C
:101F70009A5601321ED0012215005C688357A54095
:101F80000E48DB011E18B06828420CD10800471E1D
:101F9000B841024090000422341940342678964318
:101FA000320002432270054A9B18002901D15D616D
:101FB00000E09D61F0BDC046E42E000000440041F9
:101FC000F8B518230200434308202C4CE318185698
:101FD0002300040001304ED0481C00240C284AD8AD
:101FE00000F086FC471A1A1A1A1A1A1A1A07070753
:101FF0000700092901D1002102E00A2904D108398A
:102000001000FFF773FF23E000240B2933D10A39B6
:102010001000FFF76BFF2EE0182042439818466827
:10202000012534009A562C40D3017008144A002C24
:1020300010D09A180F23101830300478090123406B
:102040001943C9B29319017040331A7815431D70B2
:10205000002410E00F279B181818303002789B19C5
:10206000BA431143C9B2017040331A7815431D7049
:1020700001E0012464422000F8BDC046E42E0000C7
:102080000044004170477047002310B58B4208DAC6
:102090001478013304705478447094788470033059
:1020A000F4E710BDF8B504000E0017001D1E01DC9A
:1020B00015000027236820009B6898470321794377
:1020C00023687118616065615B6920009847011E93
:1020D00008D0054800F0A0FC044D6B68834200D294
:1020E00003006B602000F8BD40420F00C40B0020CD
:1020F000FF22044B1A7000225A80DA60013A9A607B
:102100007047C046C40B00205622F0B506784478CC
:10211000F300DBB25A43857870B2120A40270028D8
:1021200023DB202037400640002F0BD1002E04D1A6
:10213000D343DBB210001A0010E05532D0B2AB220C
:102140003B0033E0002E0BD1AB2755207B434042B0
:102150001B12C71A563AFFB2D0B23A00330025E03C
:102160000026D0431300C0B21FE0380020273040C3
:102170000CD13E4007D1AB22534355381B0AC01A3D
:10218000C0B2553310E0D343DBB20FE0300016008D
:10219000384004D15536F6B255235B4203E0563E33
:1021A000F6B2002055239B1ADBB23200FF2C23D05D
:1021B000002C1ED0002A03D0661C72431212D2B229
:1021C000002803D0661C70430012C0B2002B03D05D
:1021D000661C73431B12DBB2E443E4B2661C744317
:1021E0002412E4B2121900191B19D2B2C0B2DBB228
:1021F00002E0FF2318001A00FF2D1ED02C00661EDF
:10220000B4416D432D126419E4B2002C12D0002A9F
:1022100003D0651C6A431212D2B2002803D0651C99
:1022200068430012C0B2002B07D0013463431B1275
:10223000DBB202E02300200022000A7048708B709D
:10224000F0BD70B500240D0026002300002D09D03C
:102250000278013D9B184278ADB2B61882780330FF
:10226000A418F3E7502537226B4372431B0A120A66
:102270009B184B20052244434A439818220A801891
:1022800070BD0000F7B504000F007D25144B1E68DB
:10229000002E0CD073683000019333681B69984797
:1022A00081B20198FFF7CDFFB6682D18F0E729003D
:1022B00061430C4D090AB94204D228783100002844
:1022C0000CD009E03800604300F01CFB04002878C3
:1022D000E4B2002802D00121FFF744FE2000FEBD39
:1022E000D40B0020DC0B00207047000010B5024822
:1022F00000F0CAF910BDC046E00B002010B502483E
:1023000000F0C2F910BDC046A40C002010B50400B6
:1023100000F062F8200010BDF7B51D4E1D493000D9
:1023200000F05EF81C491D4800F05AF81C491D4891
:1023300000F056F81C491D4800F052F81C491D4891
:1023400000F04EF81C491D4800F04AF80124032310
:102350001B4D00933100230001940022280000F05F
:102360006DF9184F184E3A003100280000F0B8FA05
:102370000323164D009328001B3301941F220F499D
:1023800000F05CF93A003100280000F0A9FAF7BD2E
:10239000680D002000080042000C00426C0D002077
:1023A00000100042700D002000140042740D002047
:1023B00000180042780D0020001C00427C0D002017
:1023C000E00B002000000020E9220000A40C002007
:1023D00010B500F041FC10BD10B500F047FC10BD79
:1023E00001607047F0B5150005AA147802689F1EB9
:1023F000944616687A1E97416246AD0735433F06FC
:102400003D431560072211400A000568A001024300
:102410006E680020022B00D05803310011430143A5
:102420006960F0BD30B5C0251205AD032A40C02556
:102430000468AD02236809041A432940114321604E
:10244000026853682B43536030BD01210268136852
:102450000B43136003681A68D207FCD4DA69D20709
:10246000F9D470470221026813680B4313600268B5
:10247000D3699B07FCD4704703681A7ED20702D445
:102480001A7E9207FCD57047002203685A83704772
:102490000368187E4007C00F70470368187EC009A4
:1024A0007047802102684942137E0B4313767047C0
:1024B0000368188DC0B2704703681A7ED207FCD536
:1024C00089B20120198570470368224A30B59342CA
:1024D00011D0214A934211D0204A934211D0204A70
:1024E000934211D01F4A934211D01F4A93422FD1D9
:1024F0000E2319220DE0092314220AE00A231522D3
:1025000007E00B23162204E00C23172201E00D2321
:1025100018220121D8B28140144C9B08216003216C
:102520000140FF209B001B19C024C9008840A40063
:102530001D598543C020884001002943195180233B
:10254000DB011A430A4B5A805A7852B2002AFBDB4D
:1025500030BDC04600080042000C0042001000429E
:102560000014004200180042001C004200E100E09C
:10257000000C0040F8B504000F0016001D00FFF726
:10258000A3FF2000FFF761FF1C23BA00134072076E
:102590002168120C13430B60842322689375012F6A
:1025A0001AD11021012E00D008390C4B694318684C
:1025B000C00000F0A7F90723216803408D895A0362
:1025C000EB04DB0C13438B81216800048A89C30C64
:1025D000500B400318438881F8BDC046840000209A
:1025E0000120704710B50368014A5B6A984710BD27
:1025F0001304000010B504000069FFF726FF200057
:10260000143000F03CF910BD10B50069FFF734FF3D
:1026100010BD10B5143000F04DF910BD10B51430D8
:1026200000F051F910BD10B5143000F02FF910BDB5
:1026300010B50069FFF740FF012010BDF7B51D0080
:1026400008AB1B780400009309AB1B7816000193BC
:1026500000234360FA239B0083600A4B0F0008337A
:102660000360143000F0ECF86A4623001278C0339F
:1026700027619A706A4612791E705D702000DA70C8
:10268000FEBDC0463433000010B504000069FFF7FA
:10269000FFFE002807D02069FFF70AFF0100200095
:1026A000143000F0DAF82069FFF7F7FE002805D0B3
:1026B0002069FFF7F6FE2069FFF7E6FE10BDF02364
:1026C000194030390800414248417047F0231B014E
:1026D0001940802306209B0099420AD00133FF3322
:1026E0000130994205D0802302385B00994200D026
:1026F000002070470F2300201940012904D002391F
:102700004B424B410230C01A704700000300F0B545
:10271000182585B00391C033040018782B000821D8
:1027200043431B4F1600FB185956FFF749FC230083
:102730000821C133187845437F197956FFF740FCCB
:102740000122039B11002069FFF714FF31002000D4
:10275000FFF7BCFF310005002000FFF7CBFF310081
:1027600007002000FFF7ABFF3B0000902900206925
:102770000122FFF737FE2300C2331A785978206907
:10278000FFF750FE2069FFF76DFE05B0F0BDC046B3
:10279000E42E000070B50E0000244568002D09D01D
:1027A0002B6831005B6828009847002804DB241858
:1027B000ED68F3E7200001E00120404270BD70B5F4
:1027C0000D004468002C08D0236829009B68200075
:1027D0009847002802D1E468F4E7200070BD70B586
:1027E0000D004468002C07D0236829002000DB6816
:1027F0009847E4682D18F5E72C7070BD70B50D0092
:102800004468002C08D0236829001B6820009847E2
:10281000002802D1E468F4E7200070BD0121064AD7
:1028200010B5136805480B4005D102240470241923
:1028300044704360116010BD880D0020800D0020A1
:1028400010B50400A422002100F023FA2200002386
:10285000A43220001360536010BDF8B505000400D9
:10286000A4352E680F00701CA42100F0D1F82300BD
:10287000A8331B688B4201D0A7552960F8BD020020
:102880000023A432A83013600360704770B50200C3
:102890000500A432A8352B681268934207D0C45CA7
:1028A000A421581C00F0B4F82000296001E00120A8
:1028B000404270BD0300A830A4331B680068181A9A
:1028C00000D5A430704703000200A833A4321B686F
:1028D0001268934201D0C05C01E001204042704781
:1028E0000B0010B50100180000F082F910BD0000C7
:1028F00002B4714649084900095C49008E4402BC93
:102900007047C046002243088B4274D303098B42B0
:102910005FD3030A8B4244D3030B8B4228D3030CAF
:102920008B420DD3FF22090212BA030C8B4202D351
:102930001212090265D0030B8B4219D300E0090A79
:10294000C30B8B4201D3CB03C01A5241830B8B4282
:1029500001D38B03C01A5241430B8B4201D34B036B
:10296000C01A5241030B8B4201D30B03C01A5241D0
:10297000C30A8B4201D3CB02C01A5241830A8B4255
:1029800001D38B02C01A5241430A8B4201D34B023E
:10299000C01A5241030A8B4201D30B02C01A5241A2
:1029A000CDD2C3098B4201D3CB01C01A5241830956
:1029B0008B4201D38B01C01A524143098B4201D390
:1029C0004B01C01A524103098B4201D30B01C01ABB
:1029D0005241C3088B4201D3CB00C01A5241830835
:1029E0008B4201D38B00C01A524143088B4201D362
:1029F0004B00C01A5241411A00D2014652411046C2
:102A00007047FFE701B5002000F0F0F802BDC046B6
:102A10000029F7D076E7704703460B437FD40022A6
:102A200043088B4274D303098B425FD3030A8B4262
:102A300044D3030B8B4228D3030C8B420DD3FF22CC
:102A4000090212BA030C8B4202D31212090265D09A
:102A5000030B8B4219D300E0090AC30B8B4201D34D
:102A6000CB03C01A5241830B8B4201D38B03C01A94
:102A70005241430B8B4201D34B03C01A5241030B0B
:102A80008B4201D30B03C01A5241C30A8B4201D3BC
:102A9000CB02C01A5241830A8B4201D38B02C01A67
:102AA0005241430A8B4201D34B02C01A5241030ADE
:102AB0008B4201D30B02C01A5241CDD2C3098B42C3
:102AC00001D3CB01C01A524183098B4201D38B0140
:102AD000C01A524143098B4201D34B01C01A5241E3
:102AE00003098B4201D30B01C01A5241C3088B4228
:102AF00001D3CB00C01A524183088B4201D38B0013
:102B0000C01A524143088B4201D34B00C01A5241B4
:102B1000411A00D201465241104670475DE0CA0F8B
:102B200000D04942031000D34042534000229C464B
:102B300003098B422DD3030A8B4212D3FC22890155
:102B400012BA030A8B420CD3890192118B4208D32B
:102B5000890192118B4204D389013AD0921100E08D
:102B60008909C3098B4201D3CB01C01A52418309A1
:102B70008B4201D38B01C01A524143098B4201D3CE
:102B80004B01C01A524103098B4201D30B01C01AF9
:102B90005241C3088B4201D3CB00C01A5241830873
:102BA0008B4201D38B00C01A5241D9D243088B42C9
:102BB00001D34B00C01A5241411A00D2014663466C
:102BC00052415B10104601D34042002B00D54942D0
:102BD000704763465B1000D3404201B5002000F00F
:102BE00005F802BD0029F8D016E770477047C046C7
:102BF00070B5054C05001300201E04D00A00022009
:102C0000290000E000BF70BD000000000E4B70B551
:102C100000251E000D4CE41AA410A54204D0AB0000
:102C2000F35898470135F8E700F000F9084B002504
:102C30001E00084CE41AA410A54204D0AB00F358BF
:102C400098470135F8E770BDF8000020F800002033
:102C5000F80000201001002010B5034B0100186897
:102C600000F066F810BDC046F400002010B5034B1C
:102C70000100186800F016F810BDC046F4000020EE
:102C8000002310B59A4203D0CC5CC4540133F9E759
:102C900010BD03008218934202D019700133FAE785
:102CA0007047000030B500293ED004390B68002B76
:102CB00000DAC9181D4A13681400002B02D14B60BA
:102CC000116031E08B420DD90A688818834203D124
:102CD00018685B6882180A604B60216024E08A42B1
:102CE00003D813005A68002AF9D11D685C198C4278
:102CF0000BD10968691858181960824214D11068FC
:102D00005268411819605A600EE08C4202D90C23B7
:102D1000036009E008680C18A24203D114685268E5
:102D2000201808604A60596030BDC046900D0020F0
:102D3000032370B5CD1C9D43083506000C2D01D230
:102D40000C2505E0002D03DA0C230020336040E061
:102D5000A942F9D81F4B1C681A002100002913D082
:102D60000B685B1B0DD40B2B02D90B60CC181EE03B
:102D70008C4202D1636813601AE04B6863600C00F8
:102D800016E00C004968E9E7134C2368002B03D1D7
:102D9000300000F023F820602900300000F01EF819
:102DA000431CD1D00323C41C9C43A0420AD12560FC
:102DB000200007220B30231D9043C31A09D05A422A
:102DC000E25006E0211A300000F008F8431CEED172
:102DD000BAE770BD900D00208C0D0020002370B567
:102DE000064C05000800236000F012F8431C03D1D4
:102DF0002368002B00D02B6070BDC046980D0020CA
:102E00000023C25C0133002AFBD1581E704700002A
:102E1000044A1368002B03D018181060180070477C
:102E2000014BF9E7940D00209C0D0020F8B5C04639
:102E3000F8BC08BC9E467047F8B5C046F8BC08BC54
:102E40009E4670470000000000000000C10700001F
:102E500013080000590400001901000015010000CA
:102E600039010000450600006572726F72000D0A9C
:102E7000006E616E006F7666002E00696E6600005F
:102E80000000000000000000F90B0000250C00000D
:102E90000D0C0000410C0000650C0000190C000036
:102EA000F50B00000000000000000000310F0000E2
:102EB000F50F00006D0E0000416461667275697463
:102EC00000000403090412010002EF0201409A23EA
:102ED0000B80000101020301466561746865722080
:102EE0004D300000000000000B0000000200000058
:102EF00004000000FF00FFFFFFFF0B0000000000C8
:102F00000A0000000200000004000000FF00FFFFB4
:102F1000FFFF0A00000000000E0000000800000093
:102F200004000000FF00FFFFFFFF0E000000000094
:102F300009000000040000001C000000FF00010068
:102F4000010009000000000008000000040000006B
:102F50001C000000FF000000000010000000000046
:102F60000F000000040000001C000000FF0001032F
:102F700001030F0000000000140000000500000025
:102F80002C000000FF00020002000400000000000E
:102F9000150000000800000004000000FF00FFFF13
:102FA000FFFF050000000000060000000400000014
:102FB0001C000000060000010001060000000000E7
:102FC00007000000040000001C00000007000101D1
:102FD00001010700000000001200000004000000D2
:102FE0001C000000FF0000030003020000000000BE
:102FF00010000000040000001C000000FF000002A0
:1030000000020000000000001300000005000000A6
:103010002C000000FF00030003000300000000007C
:1030200011000000040000001C000000FF0001026D
:103030000102010000000000020000000100000089
:10304000020000000000FFFFFFFF0200010000007F
:103050000800000001000000180000000200000449
:103060000004080001000000090000000100000049
:103070001800000003000104010409000000000022
:103080000400000001000000000000000400FFFF39
:10309000FFFF040000000000050000000100000028
:1030A000000000000500FFFFFFFF05000100000019
:1030B0000200000001000000000000000A00FFFF05
:1030C000FFFF0200000000001600000002000000E8
:1030D00004000000FF00FFFFFFFF060000000000EB
:1030E000170000000200000004000000FF00FFFFC6
:1030F000FFFF0700000000000C00000003000000BC
:1031000004000000FF00FFFFFFFF0C0001000000B3
:103110000A0000000300000004000000FF00FFFFA1
:10312000FFFF0A00010000000B0000000300000088
:1031300004000000FF00FFFFFFFF0B000100000084
:10314000030000000B00000004000000FF00FFFF70
:10315000FFFFFF00000000001B0000000B0000004C
:1031600004000000FF00FFFFFFFFFF000000000061
:103170001C0000000600000000000000FF00FFFF30
:10318000FFFFFF0000000000180000000600000024
:1031900000000000FF00FFFFFFFFFF000000000035
:1031A000190000000600000000000000FF00FFFF03
:1031B000FFFFFF00010000001600000003000000F8
:1031C00000000000FF00FFFFFFFFFF000100000004
:1031D000170000000300000000000000FF00FFFFD8
:1031E000FFFFFF00000000001600000002000000CA
:1031F00000000000FF00FFFFFFFFFF0000000000D5
:10320000170000000200000000000000FF00FFFFA8
:10321000FFFFFF000000000013000000020000009C
:1032200000000000FF00FFFFFFFFFF0000000000A4
:10323000100000000200000000000000FF00FFFF7F
:10324000FFFFFF000000000012000000020000006D
:1032500000000000FF00FFFFFFFFFF000000000074
:10326000110000000200000000000000FF00FFFF4E
:10327000FFFFFF00000000000D0000000400000040
:103280000C000000FF000100FFFF0D000000000027
:1032900015000000050000000C000000FF00030006
:1032A000FFFFFF0000000000060000000400000017
:1032B0000C000000FF000001FFFFFF000000000005
:1032C00007000000040000000C000000FF000101E6
:1032D000FFFFFF00000000000300000001000000ED
:1032E00002000000FF00FFFFFFFFFF0000000000E2
:1032F0000200000001000000020000001400FFFFB7
:10330000FFFF0200000000000600000001000000B6
:10331000020000000600000100010600000000009D
:10332000070000000100000002000000070001018A
:10333000010107000000000000000000312600002D
:103340008909000013260000272600001D26000022
:1033500009260000E92200000D230000E5250000F9
:103360000D270000F5250000E125000043000000C6
:043370000000000059
:1033740000000000FFFFFFFF00C201000000080082
:10338400FFFFFFFF080B0002020200000904000017
:103394000102020000052400100104240206052491
:1033A400060001052401010107058103100010092D
:1033B400040100020A0000000705020240000007A1
:1033C4000583024000000000FFFFFFFF0000000033
:1033D40083000000020000008200000000000000E2
:1033E40000000000000000000000000000000000D9
:1033F4000000000040420F000A0000000800000026
:103404000A000000000000000000000000000000AE
:1034140000000000000000000000000000000000A8
:10342400000000006C3300000000000000000000F9
:103434000000000000000000000000000000000088
:103444000000000000000000000000000000000078
:103454000000000000000000000000000000000068
:103464000000000094000020DD000000650800005A
:10347400210D0000791C0000F12000001923000038
:10348400B500000000000000000000000000000083
:04000003000008A150
:00000001FF
